:040000000217403271
:03000B00020610DA
:0100130032BA
:01001B0032B2
:03002300020C13B9
:01002B0032A2
:01003300329A
:01003B003292
:01004300328A
:01004B003282
:01005300327A
:01005B003272
:01006300326A
:01006B003262
:10007300120282C290C291000000D2C200D290004C
:1000830000C2907808E5311200AA7808E532120020
:10009300AA7805E533D2E41200AAC2C2000000C266
:1000A30091D2900000C290120282A2E092910000CD
:1000B300D29000000003C29000D8EC2290021C8072
:1000C300039001DC120282E82323F893423108E80B
:1000D30093423208E89342332212028275F00AE80F
:1000E30084F811BFA8F011C422120282E8FA540F57
:1000F300F811C4EAC4540FF811BF2212028253311B
:100103008F533220753300227470523174DF5232B0
:10011300E485C4F0A22192E3A21892E0A21B92E22A
:10012300A219B392E74231A22092E5F85420423259
:10013300E8B5300122F530D21F2275F00012028299
:1001430090D000E0F820E102D2F020E202D2F19058
:10015300E000E0F820E102D2F220E202D2F3E5F07F
:100163002275F00012028290D000E0F8A2E222E5AC
:100173003B883B89F020F036B401061209440201A2
:10018300DBB402061208980201DBB4040F30480600
:100193001205C60201DB1209170201DBB4080612BD
:1001A300091D0201DBB4063012058E0201DBB40126
:1001B300061209440201DBB4020912035D1203C2F1
:1001C3000201DBB404091205B31203C20201DBB45A
:1001D300080612091D0201DB22005C030000400136
:1001E300000098030000D0030000C4010000D40203
:1001F3000000DC02000040030000DC030000D40325
:100203000000CC030000DC0000001C020000D80149
:1002130000009C0200008C020070030400400004F4
:100223000010030C0050010C0060000C007001086A
:1002330000700308005000040070030C0070010CF0
:100243000070020C00600308003003000040030C40
:10025300003003080030020800E52112026FE52098
:1002630012026FC290D2B5C2B4C2B5221202827A10
:1002730008C290A2E792910000D29023DAF32243BE
:10028300871075FF0022203A417400F5C57407F505
:10029300C5740FF5C55182E5C530E4F9E5C6F4B57B
:1002A300220122B4FF07F522D2C10202CDC2C153FB
:1002B30021F0F5227400A21792E0A21692E1A21592
:1002C30092E2A21492E34221515C51827400F5C57B
:1002D300225182D290D295E823C2E77A07120322F1
:1002E300E97A08120322E87A021203227583007561
:1002F3008216E07A03120322758217E07A0812034A
:1003030022C295227C0A51D47D0F7EFF5182DEFCEE
:10031300DDF8E5C430E205DCED020332D21C2251E4
:1003230082D290A2E792910000C29023DAF122C216
:100333001C752200D2C178EE11FE11EC117322E577
:10034300C423A23BB382E292E2652320E20122B2FC
:100353001AE521B2E4F521515C2274FE5220B21950
:10036300120808E5230354014220515C2274FE5213
:1003730020E5230354014220515C22518220C022F4
:100383003164E5C482E520D719C2AF20C0143164BB
:10039300E5C482E520D70BB20212025C781DD8FEB9
:1003A30080E9C202D2AF22C00078C75182D8FC00D4
:1003B300D00022C00179191203AAD9FBD00122C0AF
:1003C3000075FD7F780471B6D8FC75FD00D000225E
:1003D300D297D2960000C2970000C2960000D2972F
:1003E30022C296C2970000D2960000D29700002244
:1003F300C0E0C000C296780833929700D2960000FE
:10040300C2960000D8F2D297D000D0E022C000C23A
:1004130096D2977808D29600A29733C2960000D856
:10042300F4D00022C296C29700D2960000C2960072
:1004330000D29722C296D29700D2960000C29600AD
:100443000022C296D29700D2960000A297B39230B0
:10045300C296000022C0E0C001518271D3E54AC4B4
:1004630023540E44A071F3914520300675500102C8
:1004730004ACE54AC454F071F3914520300675503D
:10048300020204AC71D374A171F391452030067557
:1004930050030204AC79109110F0A3D9030204A70E
:1004A300912780F3913775500071E4D001D0E02299
:1004B300C0E0C00112028271D3E54AC423540E4442
:1004C300A071F391452030067550040204F9E54A02
:1004D300C454F071F391452030067550050204F9B8
:1004E3007910E0A371F3914520300675500602049C
:1004F300F9D9EF75500071E471AA71AA71AA71AAB2
:1005030071AAD001D0E02230380221DB0539E53968
:100513007002053A301E08C3E53A940150012231B6
:100523003DF8B53B2CC21E700122C3E53A953C5001
:10053300012274095888F0B5F006753C030205469C
:10054300201D0DD21D7901E8753900753A0021721D
:1005530022D21E753900753A00C3E53B98500388D3
:100563003B22201D087900E87002217222C21D88F7
:100573003B753C0F227400F5C57406F5C5740EF582
:10058300C55182E5C530E4F9A8C622B24A204A0320
:100593001209F122304A18304B155182B178E8B56F
:1005A30053030205B2F55311FE11ECD21FC24B22C5
:1005B300518220480E758300758210E0F554D248AD
:1005C3000205DBC248758300758210E554F01208FA
:1005D300FF758300758201F022304830201A2D30D8
:1005E300492A5182C2495182055475830075821389
:1005F300E004B55403755400A95412064F2023E6B2
:10060300A840A93F71071209F1853E3D22C0D0C021
:10061300E0C083C082D2D474B2258AF58A743C3593
:100623008CF58C304A08D55205D24B755206201AE8
:1006330005D53D05D249853E3DD082D083D0E0D05B
:10064300D0325182758300758210E0F97583028977
:1006530082E0F524202140E975830123F582E0F54A
:10066300410582E0F54274B02542F54074063541F8
:10067300F53F302021302210A843E54228F542E51A
:10068300513541F541020699C3A843E54298F54225
:10069300E5419551F541225182758300758210E041
:1006A300901869F923F893F54108E893F54274B07B
:1006B3002542F54074063541F53F302210A843E545
:1006C3004028F540E551353FF53F0206DEC3A84318
:1006D300E54098F540E53F9551F53F2212070F603D
:1006E3000F71C21209CE12070F600512074D71C2B6
:1006F300758300758211E0F523758215E0F5437566
:100703008214E0F551758218E0F53E227F0075836F
:1007130000758200E0C3944060010F1208FF7583E7
:1007230000758201E0C39860010F1208E77583002A
:10073300758202E0C39860010F1208CF75830075BC
:100743008203E0C39860010FEF2212075A1207AF2A
:100753001207E11209AB225182758300754330758C
:1007630051007523007582107400F07582117400B6
:10077300F07582127405F07582137441F075821559
:100783007430F07582147400F07582007440F07553
:1007930082167420F07582177490F07582187408AD
:1007A300F01208FF758300758201F0225182758370
:1007B30000758213E0F8901869E82393F9E823049D
:1007C30093FA758301E823F582E9F00582EAF018CC
:1007D300B8FFE31208E7758300758202F0225182A5
:1007E300758300758213E0F89018EDE893F975832B
:1007F30002E8F582E9F018B8FFEE1208CF7583001E
:10080300758203F022740A5523758300758211F0F3
:100813001208FF758300758201F022304805A85441
:1008230002082E758300758210E0F8C221E524B218
:10083300E0F5247583028882F01208CF7583007572
:100843008203F0120645A840A93F1203072230484D
:1008530005A854020861758300758210E0F8C2216F
:10086300E52420E007D2E0C2E202087B20E205D2C1
:10087300E202087BC2E0C2E2F5247583028882F0BB
:100883001208CF758300758203F0120645A840A9AC
:100893003F12030722120282302030304805A95448
:1008A3000208AE758300758210E0F97583028982B0
:1008B300B221E524F0D21F120645A840A93F120336
:1008C300071208CF758300758203F02275830275C2
:1008D300820078007400120282E028F80582A9825F
:1008E300B900F32275830175820078007400120247
:1008F30082E028F80582A982B900F3227583007586
:10090300820A78007400120282E028F80582A98224
:10091300B900F322B2181209F12220185D304805FC
:10092300E55402092F758300758210E004F0F5F099
:10093300758213E004B5F02B7400758210F0020980
:1009430066201844304805E554020956758300753E
:100953008210E014F075F0FFB5F008758213E075AE
:100963008210F011FF758300758201F0120645A80D
:1009730040A93F1203071209F12275830075821201
:10098300E004540FF0020996758300758212E01497
:10099300540FF011FF758300758201F0758212E028
:1009A300F8C4F5FC1209F122C0E0C083C082754A85
:1009B30000900000E54A1204B3E5507007054AE5CC
:1009C3004AB480F2D082D083D0E022C0E0C083C09A
:1009D30082754A00900000E54A120458E5507007FA
:1009E300054AE54AB480F2D082D083D0E022204A7F
:1009F30029120282201813304805E554020A0975AA
:100A03008300758210E0F8020A157583007582125F
:100A1300E0F81200FE1200DCD21F2212028212063C
:100A230045A840A93F12030712037075830075821E
:100A330012E0C4F5FC22120282304805A954020ACE
:100A43004C758300758210E0F97583028982B223A5
:100A5300E524F0D21F11CF758300758203F022C203
:100A6300ACC28EC228C22975440075450075460084
:100A730075470075480075490053877F75987275EF
:100A83008DE6758BE6D28ED2ACD2BC1203B6C08390
:100A9300C082901190120B48D082D08322C2ACC284
:100AA3008EC228C2297544007545007546007547F6
:100AB30000754800754900438780759872758DF3FA
:100AC300758BF3D28ED2ACD2BC1203B6C083C08274
:100AD300901190120B48D082D08322C2ACC083C045
:100AE30082C0E0E5467007D228D0E0020B00D0E0D8
:100AF300758308854582E00545C2281546D082D016
:100B030083D2AC22C083C082C0E0E549B4FF0512A2
:100B1300028280F6C2AC758309854782D0E0F00576
:100B2300470549202902D299D082D083D2AC22C072
:100B3300E074207107D0E022C0E0740D7107740ADD
:100B43007107D0E022C0E074009360057107A380B1
:100B5300F6D0E022C083C082C0E0900B76C4540F6D
:100B6300937107D0E0C0E0540F937107D0E0D082B7
:100B7300D08322303132333435363738394142432A
:100B8300444546C0E075F00A8424307107E5F0243B
:100B9300307107D0E022120282E54660F951DE226D
:100BA300C0007199120C6630331CE54B7107E54C9C
:100BB300C4F87199120C6630330CE54B7107E845A4
:100BC3004CD235020BCD74FFC235D00022C0F0C029
:100BD300007199120C6630341B7107E54C75F00AED
:100BE300A4F87199120C6630340A7107E8254CD2C7
:100BF30035020BFB74FFC235D000D0F022C0E0C039
:100C0300007810E071577132A3D8F8D000D0E022F9
:100C1300C0D0C0E0C083C082120282309819E5467A
:100C2300047003020C38F546758308854482E59900
:100C3300547FF00544C298309920E5497005C229D4
:100C4300020C5B758309854882E0C2E7A2D092E774
:100C5300F59905481549D229C299D082D083D0E0AD
:100C6300D0D032C0E0F54B754CFFC232C231C23432
:100C7300C233C23620E757B40D05D236020CD1C3B6
:100C8300946120E70BC3941A30E705D232534BDF4C
:100C9300D0E0C0E0C3944120E708C3941A30E702D0
:100CA300D231D0E0C0E0C3943020E70EC3940A30C1
:100CB300E708D234D233240AF54CE54BC3944120E0
:100CC300E70CC3940630E7062410F54CD233D0E08A
:100CD30022E5467003020E8C51DE9166E54BB42388
:100CE3000774217107020E87B43003020000B43188
:100CF3000C9011D77148E5907157020E87B4320CEE
:100D03009011DE7148E5A07157020E87B4330C9041
:100D130011E57148E5B07157020E87B4340C901198
:100D2300EC7148E5C07157020E87B4350C9011F38E
:100D33007148E5C47157020E87B44306120F990236
:100D43000E87B444139013FA714871A3303506F536
:100D530023511E31F1020E87B445061210C0020E54
:100D630087B44618901296714871D030350B540FE2
:100D7300758300758212F03196020E87B44808908D
:100D830014137148020E87B449219012DE71487121
:100D9300999166E54BB4590B12074D511E020000A1
:100DA300020E879012FE7148020E87B44B0F901308
:100DB300E8714871A3303502F527020E87B44C1051
:100DC3009011FA7148E5217157E5207157020E879A
:100DD300B44D06120F4C020E87B44E169012A17139
:100DE3004871D0303509758300758210F031660281
:100DF3000E87B44F129013F0714871D0303505F45B
:100E0300C41202A6020E87B45006120FE2020E8726
:100E1300B45106121084020E87B4520612113B021B
:100E23000E87B4531531CEE55071577132E54A71CF
:100E330057713B511E31F1020E87B454061211064D
:100E4300020E87B45506120F15020E87B45608908A
:100E530014027148020E87B4581131ABE550715733
:100E63007132E54A7157713B020E87B45906120E6F
:100E7300CC020E87B45A06120E8F020E87710790AA
:100E83001204714890120771482281D4C0E0C083D4
:100E9300C0829012527148900000754A00713B74F1
:100EA30024710774307107E54A7157743071077103
:100EB30032743A710771329100054AE54AB480DD14
:100EC300713BD082D083D0E022C0E0C083C0829047
:100ED30012357148754A009012247148E54A7157DA
:100EE30090122D7148900A00120458E550700F902B
:100EF3000A009100054AE54AB480DC020F0C901306
:100F0300427148E55024307107713BD082D083D0C1
:100F1300E022C0E0C000C083C0829013177148D0A4
:100F230082D0837800E8540F700F713B74247107EB
:100F3300E871577132743A71077132E6715708E8F4
:100F430070E4713BD000D0E022C0E0C083C0829047
:100F53001278714871A3303530F54D71A3303529BE
:100F6300F54E854D83854E82713B74247107E5836D
:100F73007157E58271577132E07157713271A32055
:100F83003604303504F0A380DF713B511E31F1D0BC
:100F930082D083D0E022C0E0C083C082901354711A
:100FA30048758300758213E0F9097800E87186714A
:100FB30032743A71077132E875830123F582E07167
:100FC300570582E0715771327583028882E0715749
:100FD300713B08C3E99870D4D082D083D0E022C09B
:100FE300E0C083C082901366714871D0203503023C
:100FF300107AF8713B901378714871A3303578F902
:10100300120BA3303571FA120B3B9012AC120B4842
:10101300120BA3303561FB120B3B758300758213F2
:10102300E0FCC39830D71E90138E120B48120B9915
:10103300120C66E54B120B3BB4593C0CECF8758370
:1010430000758213F0E875830123F582E9F00582C8
:10105300EAF07583028882EBF01208E77583007566
:101063008202F01208CF758300758203F01208FF25
:10107300758300758201F0120B3BD082D083D0E0E0
:1010830022C0E0C083C0829013CA120B48120BD057
:10109300303520758300758213F07400758210F06B
:1010A300F81200FE1200DCD21F1208FF75830075D0
:1010B3008201F0120B3BD082D083D0E022C0E0C08B
:1010C30083C082E523120B57758300758210E012EB
:1010D3000B57E524120B57758212E0120B57E522CA
:1010E300120B57E527120B57E53F120B57E540123A
:1010F3000B57E541120B57E542120B57D082D083B1
:10110300D0E0229012AC120B48120BD0303528F5E8
:1011130024758300758210E0F97583028982E524C2
:10112300F0D21F120645A840A93F1203071208CFA9
:10113300758300758203F0229012BE120B48120BC6
:10114300A330353BF8120BA3303534F9120B3B9027
:1011530012CE120B48120BA3303524FA120BA33014
:10116300351DFB883F89408A418B42201B0AA840DA
:10117300A93F120307021182A842A94112030712D1
:1011830000FEC21875240012010BD21F220D0A5053
:10119300524D3830363020313434204669726D7701
:1011A3006172652028632920463446455A202F2042
:1011B3004638454751200D0A56657273696F6E2094
:1011C300342E302C2031372F30332F323030392E1C
:1011D3000D0A3E005031203D2024005032203D2096
:1011E30024005033203D2024005034203D2024008F
:1011F3005035203D2024004C61746368203D202439
:1012030000203F000D0A3E000D0A54797065202727
:10121300482720666F722068656C700D0A0D0A3EC0
:10122300000D0A506167652024002F243746203AB9
:101233002000323443313620454550524F4D20640F
:10124300617461203A200D0A00204F4B2021004693
:101253006972737420324B62206461746120667218
:101263006F6D2065787465726E616C2052414D20FC
:101273003A200D0A0045787465726E616C20524104
:101283004D20616472657373202458585858203A6E
:10129300202400537175656C6368203A200043680D
:1012A300616E6E656C203A20004368616E6E656CFA
:1012B300207374617465203A2024005258206672AA
:1012C300657175656E6379203A2000545820667203
:1012D300657175656E6379203A20004572617365A7
:1012E3002052414D20616E64206368616E6E656CAF
:1012F300732028592F4E29203F20004E0D0A636F7B
:101303006D6D616E642063616E63656C65642E2E22
:101313002E0D0A00446973706C617920746865202E
:101323003235362062797465732066726F6D206979
:101333006E7465726E616C2052414D203A200065D7
:1013430072726F7220493243206E756D626572202E
:10135300004368616E6E656C73206C697374203A28
:101363000D0A004368616E6E656C20746F207365AF
:1013730074203A2000504C4C2076616C75652074C3
:101383006F206C6F6164203A2024005468697320D5
:101393006368616E6E656C206E756D626572206444
:1013A3006F65736E27742065786973742E204164AA
:1013B30064206E6577206368616E6E656C202859C2
:1013C3002F4E29203F20004368616E6E656C7320A9
:1013D3006E756D6265722028303020746F20393944
:1013E30029203A20004C6F636B203A2000566F6C23
:1013F300756D65203A20004D6F6465203A200050DA
:10140300524D383036302056342E302031343400AB
:10141300480D0A20436F6D6D616E646573206469C6
:1014230073706F6E69626C6573203A0D0A205B30CE
:101433005D203D2052657365742E0D0A205B315D7E
:101443002061205B355D203D2053686F7720383065
:101453006335353220706F72742073746174652044
:10146300503120746F2050352E0D0A205B435D20D0
:101473003D205072696E74206368616E6E656C7393
:10148300206C6973742E0D0A205B445D203D20534C
:1014930065742073797374656D20627974652E0D9C
:1014A3000A205B455D203D2053686F772073797375
:1014B30074656D20737461746520284D6F64652DA8
:1014C3004368616E2D4368616E73746174652D5357
:1014D300716C2D566F6C2D4C6F636B2D52582066BB
:1014E3007265712D54582066726571292E0D0A207C
:1014F3005B465D203D2053657420737175656C6395
:10150300682E0D0A205B485D203D205072696E7481
:1015130020746869732068656C7020706167652E3C
:101523000D0A205B495D203D204572617365206192
:101533006E6420696E69742052414D20616E64208F
:10154300454550524F4D2E0D0A205B4B5D203D20EB
:10155300536574206C6F636B20627974652E0D0A7A
:10156300205B4C5D203D205072696E74206C617469
:1015730063682073746174652E0D0A205B4D5D20D2
:101583003D20456469742065787465726E616C20D2
:1015930052414D206D616E75616C792E0D0A205B91
:1015A3004E5D203D205365742063757272656E74C1
:1015B300206368616E6E656C2E0D0A205B4F5D20A3
:1015C3003D2053657420766F6C756D652E0D0A2072
:1015D3005B505D203D20456469742F416464206342
:1015E30068616E6E656C2E0D0A205B515D203D2097
:1015F300536574206368616E6E656C73206E756DE0
:101603006265722E0D0A205B525D203D2053657486
:101613002073796E74686574697365722066726588
:101623007175656E636965732E0D0A205B555D20C8
:101633003D205072696E742038306335353220692D
:101643006E7465726E616C2052414D2E0D0A205BE3
:10165300535D203D20436F707920454550524F4DD7
:1016630020746F2065787465726E616C2052414DF1
:101673002E0D0A205B545D203D2053657420637555
:101683007272656E74206368616E6E656C2073742C
:101693006174652E0D0A205B565D203D20507269F2
:1016A3006E74206669726D776172652076657273F8
:1016B300696F6E2E0D0A205B585D203D20436F70CD
:1016C300792065787465726E616C2052414D207487
:1016D3006F20454550524F4D2E0D0A205B595D201A
:1016E3003D205072696E74206669727374203220D3
:1016F3006B622066726F6D20746865204545505299
:101703004F4D204932432032346331362E0D0A20A7
:101713005B5A5D203D205072696E74206578746554
:10172300726E616C2052414D2028243030303020BD
:10173300746F202430374646292E0D0A00785D88C1
:101743009078DF88B078FF88C478F988C0789F885C
:1017530081788088A2A81C88FE7589217531FF7560
:1017630032FF7533FF7534FF7535FF7536FF7537F7
:10177300FF7538FF752700752201753900753AFB2F
:101783007530FF753B00753C0F755206752900D205
:101793008CD2A912007375208175213112025C125B
:1017A300013DB409061203C212074D1206DF120AE5
:1017B3001E120289120AA0120282753100753200CC
:1017C300753300753400753500753600753700754F
:1017D30038001209F17F0FD2AF12028212034212B4
:1017E3000CD412028212050A301CEEA2C0723920F8
:1017F300D7031218171205DC12028212010B120210
:1018030082120289120597120282301F0512007399
:10181300C21F80C5C248301805C2181209F1D21B75
:1018230012010B120282120073A842A941744042B2
:101833002112025C1203077480422112025C78FFBA
:1018430012028212037E120CD430C0F4C21B1201A6
:101853000B120282120073A840A93F743F52211257
:10186300025C120307222D802D812D822D832D846E
:101873002D852D862D872D882D892D8A2D8B2D8CB9
:101883002D8D2D8E2D8F2D602D612D622D632D6459
:101893002D652D662D672D682D692D6A2D6B2D6C99
:1018A3002D6D2D6E2D6F2D702D712D722D732D7449
:1018B3002D752D762D772D782D792D7A2D7B2D7CF9
:1018C3002D7D2D7E2D7F2D282D402D502D512D52D8
:1018D3002D532D542D552D562D572D582D592D5AE9
:1018E3002D5B2D5C2D5D2D5E2D5F0101010101013D
:1018F30001010101010101010101000000000000DB
:1019030000000000000000000000000000000000D4
:1019130000000000000000000000000000000000C4
:0C192300000000000000000000000000B8
:00000001FF
