:0600000002002E02009434
:03000B0002009A56
:030013000200A048
:03001B000200A63A
:030023000200AC2C
:03002B000200B21E
:03008C0002008FE0
:05008F0012011780FEC4
:06009400750800121BFFBD
:06009A00750801121BFFB6
:0600A000750802121BFFAF
:0600A600750803121BFFA8
:0600AC00750804121BFFA1
:0600B200750805121BFF9A
:0E00B800AA82AB83ACF08A037C000BBB000174
:0100C6000C2D
:0E00C700C00274E8C0E07403C0E08B828C833A
:0E00D500121634AB82AC8315811581D0028ADD
:0700E300F005F0740180023A
:0200EA0025E00F
:0400EC00D5F0FBFA56
:0E00F000EA6280C0028B058C067F007A008DCC
:0D00FE00828E838FF0EAC002C003C004129E
:0C010B000A83D004D003D002D00280D9B7
:0E011700758280121B107464C0E0E4C0E0909A
:0E0125000064123C52AA82AB83ACF015811527
:0E013300818A828B838CF012383CAA82AB83C7
:0E014100ACF0900000EAF0A3EBF0A3ECF08A23
:0E014F00828B838CF01202697580007A007B2F
:05015D00007C007D00A4
:03016200BA0800D8
:050165004003020251FD
:0E016A008A067F00C002C003C004C005C006A4
:0A017800C0077470C0E07449C0E0D5
:0A0182007480C0E07413C0E0740B39
:0E018C00C0E0E4C0E0121EB9E58124F8F58160
:0E019A00D005D004D003D002C002C003C004C0
:0A01A800C0057413C0E0740BC0E042
:0A01B200E4C0E07477C0E07449C0B7
:0E01BC00E07480C0E012027AE58124FAF58139
:0E01CA00D005D004D003D0028A067F00C00208
:0E01D800C003C004C0057462C0E07401C0E042
:0E01E6008E828F83121634AE82AF8315811580
:0C01F40081D005D004D003D002EE24031B
:0C020000FEEF3400FF7800C002C003C015
:0E020C0004C005E4C0E0C0E0C003C004C005AB
:09021A0074B8C0E07400C0E07487
:0A02230013C0E0740BC0E0E4C0E07B
:0E022D007460C0E08E828F8388F0121376E535
:0E023B008124F5F581D005D004D003D0020A4D
:050249000BBB00010CDD
:03024E0002016248
:0E025100900000E0FAA3E0FBA3E0FC8A828BA1
:0A025F00838CF01229AD90000022FC
:0749700042495423256400B5
:0E497700537461727420746872656164202349
:054985002025730A006B
:06005D00E478FFF6D8FD77
:0E026900AAF0AB83E582900B1DF0A3EBF0A38F
:03027700EAF02288
:08027A00C0128581120581907C
:0E0282000B1DE0FAA3E0FBA3E0FCBA0008BBF2
:070290000005BC0002806EB6
:0A029700A81208E51224FBF6740912
:0E02A1002AFEE43BFF8C058E828F838DF012C7
:0A02AF003CD9FEA3123CD9FFA312B4
:0E02B9003CD9FD740C2AFAE43BFB8A828B834D
:0C02C7008CF0123CD9FAA3123CD9FBA821
:0A02D3001208E6C0E0E51224FBF873
:0E02DD00E6C0E008E6C0E008E6C0E0C006C0EB
:0E02EB0007C0058A828B83122F03AA82AB8381
:0C02F900E58124F9F5818A828B83800363
:0303050090FFFF67
:06030800851281D01222D3
:08003B007900E94400601B7A22
:0500430000904B4E7817
:03004800E075A0C0
:0A004B000FE493F2A308B8000205C9
:08005500A0D9F4DAF275A0FF56
:0E030E00AA82AB83ACF0123CD9FDA3123CD9FD
:0E031C00FEA3123CD9FFA3123CD9F80DBD0080
:0A032A00090EBE00050FBF00010818
:0D0334008A828B838CF0ED12456CA3EE12D3
:0A034100456CA3EF12456CA3E8120F
:0E034B00456CED4E4F48704674042AFAE43BB0
:0D035900FB8A828B838CF0123CD9FDA3122D
:0A0366003CD9FEA3123CD9FFA312FC
:0E0370003CD9F80DBD00090EBE00050FBF0000
:02037E00010874
:0D0380008A828B838CF0ED12456CA3EE1287
:0A038D00456CA3EF12456CA3E802D3
:02039700456CB3
:010399002241
:0A039A00C012858112C082C083C02A
:0B03A400F0E5812413F581A81208E5A4
:0C03AF0012240AF9743726F7740108368E
:0E03BB0009F70809E6F7900C34E0FAA3E0FB1E
:0D03C9007C007D00C002C003C004C005E53B
:0C03D6001224FAF886820886830886F05C
:0E03E20008E6121CB8AA82AB83ACF0FDE581E0
:0C03F00024FCF581E512240AF88682083E
:0E03FC0086830886F0EA12456CA3EB12456C6E
:0B040A00A3EC12456CA3ED12456C90B2
:0C0415000C2BE0FAA3E0FBA3E0FCE512D6
:0B0421002404F8A60208A60308A604A5
:0A042C00E5122404F8E6B42B0D08D5
:0C043600E6B40C0808E6B400030205DC84
:0C044200E5122404F8740626FDE40836D8
:0C044E00FE0886078D828E838FF0E51279
:0E045A002407F8123CD9F6A3123CD908F6A3E9
:0C046800123CD908F6E512240AF886823E
:0E0474000886830886F0123CD9FAA3123CD900
:0C048200FBA3123CD9FCA3123CD9FDE501
:0A048E00122407F8E512240DF9749A
:0E0498003726F77401083609F70809E6F7E57C
:0C04A60012240DF886820886830886F078
:0B04B200E5122410F9123CD9F7A31248
:0C04BD003CD909F7A3123CD909F7A3129F
:0C04C9003CD909F7E5122410F8C3EA96AC
:0C04D500EB0896EC0896ED08964058E500
:0C04E10012240AF886820886830886F040
:0B04ED00123CD9FDA3123CD9FEA31263
:0904F8003CD9FFA3123CD9FAE53E
:0C050100122410F8EDC396FDEE0896FEE3
:0C050D00EF0896FFEA0896FAE512240AAF
:0E051900F886820886830886F0ED12456CA3F2
:0C052700EE12456CA3EF12456CA3EA1223
:05053300456C0205BA51
:0C053800E512240AF886820886830886F3
:0C054400F0123CD9FDA3123CD9FEA3121A
:090550003CD9FFA3123CD9FAE5E5
:0C055900122410F8E6C39DFD08E69EFE8B
:0C05650008E69FFF08E69AFAE512240D54
:0E057100F886820886830886F0ED12456CA39A
:0C057F00EE12456CA3EF12456CA3EA12CB
:0C058B00456CA81208742026FA740108C0
:0C05970036FB088604C002C003C004E567
:0C05A300122404F886820886830886F083
:0B05AF0012180E158115811581804681
:0C05BA00E5122404F88682088683088677
:0E05C600F0123CD91818F6A3123CD908F6A37F
:0805D400123CD908F602042CC8
:0C05DC00A81208742026FA74010836FBEF
:0E05E800088604C002C003C004900C2B75F0FE
:0A05F6000012180E15811581158101
:06060000851281D01222D8
:0A060600C012858112C082C083C0BB
:0C061000F0058105810581A81208744ED8
:0E061C0026FD74010836FE0886078D828E8347
:0C062A008FF0744112456CA81208E6B471
:0A063600BA0C08E6B40D0708E6B49C
:040640000002800232
:02064400800331
:0306460002082483
:0C064900C005C006C007A8120874602697
:0E065500FA74010836FB0886048A058B068CB1
:0E066300078D828E838FF0123CD95401D00790
:0D067100D006D00560408A828B838CF01289
:0E067E003CD954FE12456C8D828E838FF07431
:0C068C005012456CA81208742026FA7465
:0E069800010836FB088604C002C003C00490AF
:0E06A6000C1975F00012175015811581158181
:0306B40002082415
:0C06B700A81208743426FA74010836FBFF
:0E06C3000886048A828B838CF0123CD9FA746C
:0A06D100342509FB7401350AFCAD65
:0C06DB000B8B828C838DF0123CD9FBA8A5
:0C06E70012181818E6600EC3EB9A4015BC
:0906F300900C4EE04401F0800C73
:0C06FC00C3EA9B5007900C4EE04401F054
:0C070800900C22E0FCA3E0FDA3E0FEE565
:0C071400122404F8A60408A60508A60696
:0A072000E5122404F8E6B4220D08E7
:0C072A00E6B40C0808E6B4000302080066
:0C073600C002E5122404F8740626FFE45B
:0D0742000836FA0886048F828A838CF01234
:0A074F003CD9FFA3123CD9FAA31213
:0E0759003CD9FC74342FFF74013AFA8F828A67
:0C076700838CF0123CD9FF8F03D002A855
:0C07730012181818E66032C3EB9A405FC1
:0C077F00A81208742026FC74010836FD46
:0C078B00088606C004C005C006E5122464
:0E07970004F886820886830886F012180E1574
:0707A50081158115818078A8
:0C07AC00C3EA9B502DA81208742026FB05
:0E07B80074010836FC088605C003C004C005A5
:0C07C600E5122404F88682088683088669
:0C07D200F012180E15811581158180466B
:0C07DE00E5122404F88682088683088651
:0E07EA00F0123CD91818F6A3123CD908F6A359
:0807F800123CD908F6020720AB
:0C080000A81208742026FA74010836FBC8
:0E080C00088604C002C003C004900C2275F0E0
:0A081A000012180E158115811581DA
:06082400851281D01222B2
:0B082A00AA82AB83EA4B70030219EBBB
:030835000219E8BD
:0E0838001219EEAA82AB83C002C0031219EBA4
:09084600D003D0028A828B8322C8
:0A084F0074612509FA7401350AFBF3
:0C085900AC0B8A828B838CF0123CD9FD22
:0E08650074012DFE8A828B838CF012456CED9F
:0A087300703B74602509FA7401352A
:0A087D000AFBAC0BC002C003C0046C
:0E088700120838AD82AE83D004D003D0028AAE
:0E089500828B838CF0ED2D5402C0F0C0E01277
:0D08A3003CD9D0F054FD45F0D0F002456C7A
:0108B0002225
:0A08B10074612509FA7401350AFB91
:0C08BB00AC0B8A828B838CF0123CD9FDC0
:0E08C7001D8A828B838CF0ED12456C702274BA
:0A08D500602509FA7401350AFBAC36
:0C08DF000B8A828B838CF0123CD90354EE
:0B08EB0001FA7B008A828B8302082A3E
:0108F60022DF
:0808F700900C4EE054FDF022CC
:0808FF00900C4EE04402F022CF
:0D090700AA82AB83ACF0C002C003C0041292
:0C091400084FD004D003D002EAB509421D
:0A092000EBB50A3EECB50B3A744E3D
:0E092A002AFD74013BFE8C078D828E838FF0B8
:0E093800745012456C74202AFD74013BFE8C35
:0E09460007C005C006C007900C1975F000121E
:0C09540017501581158115811219FE0243
:020960000A1477
:0E096200744E2AFD74013BFE8C078D828E833D
:0B0970008FF0123CD9FDBD4102800356
:03097B000209FE70
:0D097E00C002C003C004C002C003C004904A
:0E098B000C2275F000121957AD82AE83AFF04A
:0E099900158115811581D004D003D0028D8206
:0E09A7008E838FF0C002C003C004C005C006DE
:0E09B500C0071218C6D007D006D005D004D057
:0E09C30003D002C002C003C004C005C006C0BD
:0E09D10007900C1975F0001217501581158152
:0E09DF001581D004D003D002744E2AFD74019D
:0D09ED003BFE8C078D828E838FF0745012BC
:0409FA00456C8016B2
:0E09FE0074602AFA74013BFB8A828B838CF0B2
:080A0C00123CD9440112456CB3
:030A14000208B124
:0A0A1700C0128581120581058105DA
:0E0A210081AA82AB83ACF074602AFD74013BA5
:0C0A2F00FE8C07A81208A60508A6060801
:0C0A3B00A607A812088682088683088699
:0E0A4700F0123CD930E0108D828E838FF012B9
:090A55003CD954FE12456C800FDF
:0E0A5E007401C0E08A828B838CF012060615AC
:010A6C008108
:060A6D00851281D0122267
:0B0A730012084F900C4EE04401F012FE
:050A7E0019FE0208B1A1
:0E0A8300AA82AB83ACF0FDC002C003C004C069
:0E0A91000512084FD005D004D003D002744ED9
:090A9F002509FE7401350AFFA8C7
:0C0AA8000B8E828F8388F0745712456C0F
:0C0AB400C002C003C004C0058509828593
:060AC0000A83850BF01211
:0C0AC600039AE58124FCF5811219FE0260
:020AD20008B169
:0E0AD400900C38E0FAA3E0FBA3E0FCA3E0FDE9
:0D0AE2000ABA00090BBB00050CBC00010D99
:0E0AEF00900C38EAF0A3EBF0A3ECF0A3EDF0CE
:0D0AFD00900C44E0FAA3E0FB1ABAFF011BC5
:0D0B0A00900C44EAF0A3EBF0EA4B7062900F
:0E0B17000C36E0FAA3E0FB900C44EAF0A3EBEE
:0E0B2500F0900C3CE0FAA3E0FBA3E0FCA3E0A0
:0E0B3300FD0ABA00090BBB00050CBC00010D49
:0E0B4100900C3CEAF0A3EBF0A3ECF0A3EDF077
:0E0B4F00900C40E0FAA3E0FBA3E0FCA3E0FD65
:0D0B5D000ABA00090BBB00050CBC00010D1D
:0E0B6A00900C40EAF0A3EBF0A3ECF0A3EDF04A
:0A0B780074462509FA7401350AFBE2
:0C0B8200AC0B8A828B838CF012030E7483
:0A0B8E00352509FA7401350AFBACA5
:0C0B98000B8A828B838CF0123CD9602108
:0A0BA40074352509FA7401350AFBC7
:0C0BAE00AC0B8A828B838CF0123CD9FDCA
:0B0BBA001D8A828B838CF0ED12456CCD
:0A0BC50074352509FA7401350AFBA6
:0C0BCF00AC0B8A828B838CF0123CD97036
:080BDB0007900C4EE04401F00C
:0E0BE300900C2BE0FAA3E0FBA3E0FC900F1CAB
:0C0BF100EAF0A3EBF0A3ECF0EAB42B0B4D
:0B0BFD00EBB40C07ECB40003020DC1C8
:0E0C080074062AFAE43BFB8A828B838CF0127E
:0A0C16003CD9FAA3123CD9FBA3124B
:0E0C20003CD9FC900F1FEAF0A3EBF0A3ECF020
:0E0C2E0074372AFA74013BFB8A828B838CF0A8
:0B0C3C00123CD9FDA3123CD9FEA3120C
:0E0C47003CD9FFA3123CD9F8ED4E4F48602671
:0D0C55001DBDFF091EBEFF051FBFFF0118DA
:0D0C62008A828B838CF0ED12456CA3EE129C
:0A0C6F00456CA3EF12456CA3E812D8
:020C7900456CC8
:0E0C7B00900F1FE0FAA3E0FBA3E0FC74372A01
:0E0C8900FA74013BFB8A828B838CF0123CD9FB
:0D0C9700FAA3123CD9FBA3123CD9FCA31216
:0C0CA4003CD9FDEA4B4C4D6003020DC131
:0E0CB000900F1CE0FAA3E0FBA3E0FC8A828B0D
:0E0CBE00838CF01218C6900F1FE0FAA3E0FB23
:0E0CCC00A3E0FC744E2AFD74013BFE8C078DE4
:0E0CDA00828E838FF0123CD9FDBD42727432BF
:0E0CE8002AFD74013BFE8C078D828E838FF0F7
:0E0CF600740112456CA3E412456C743B2AFD98
:0D0D040074013BFE8C078D828E838FF012F0
:0A0D11003CD9FDA3123CD9FEA31249
:0E0D1B003CD9FFC002C003C0048D828E838FBE
:0E0D2900F0121957AA82AB83ACF01581158128
:0E0D37001581900F1CEAF0A3EBF0A3ECF0BACC
:0A0D45000008BB0005BC0002800995
:090D4F008A828B838CF01218C615
:0E0D5800900F1FE0FAA3E0FBA3E0FC7401C0C3
:0D0D6600E08A828B838CF0120606158190C6
:0E0D73000C2BE0FAA3E0FBA3E0FC900F1CEABF
:0E0D8100F0A3EBF0A3ECF074062AFDE43BFEB9
:0E0D8F008C078D828E838FF0123CD9FDA3124B
:090D9D003CD9FEA3123CD9FF90E1
:0C0DA6000F1FEDF0A3EEF0A3EFF0EAB495
:0A0DB2002B0AEBB40C06ECB40002AF
:020DBC008003B2
:030DBE00020C7BA9
:030DC100021A040F
:060DC400AA8285090C85DE
:030DCA000A0D858A
:050DCD000B0EBA10003E
:050DD2004003020E5871
:0A0DD700EA75F00FA42420FAE434BA
:0C0DE1000BFB7C00900F25EAF0A3EBF068
:0E0DED00A3ECF08A828B838CF0123CD9FDA31C
:0C0DFB00123CD9FEBD0005BE0002805174
:0E0E070074022AFAE43BFB8A828B838CF01281
:0A0E15003CD9FAA3123CD9FBA3124A
:0C0E1F003CD9FCC005C0067439C0E0746A
:0C0E2B000EC0E0C005C0068A828B838CDC
:020E3700F022A7
:0E0E3900D006D005900F25E0FAA3E0FBA3E061
:0E0E4700FC74052AFAE43BFB8A828B838CF054
:030E550012030E77
:080E5800900C4EE020E10122A4
:0A0E6000744E2509FA7401350AFBEF
:0C0E6A00AC0B8A828B838CF0123CD9FA0E
:050E7600BA52028007E2
:070E7B00900C4EE04401F071
:080E8200900C4EE020E001227B
:0E0E8A00900C22E0FAA3E0FBA3E0FC900F2204
:0C0E9800EAF0A3EBF0A3ECF0EAB422189F
:0C0EA400EBB40C14ECB40010900F287498
:0A0EB000BAF0A3740DF0A37400F073
:020EBA00802690
:0E0EBC0074062AFAE43BFB8A828B838CF012C8
:0A0ECA003CD9FAA3123CD9FBA31295
:0E0ED4003CD9FC900F28EAF0A3EBF0A3ECF061
:0A0EE200744E2509FA7401350AFB6D
:0C0EEC00AC0B8A828B838CF0123CD9FA8C
:0E0EF800BA5249900F28E0FAA3E0FBA3E0FCF9
:0E0F060074342AFA74013BFB8A828B838CF0D0
:0C0F1400123CD9FA74342509FB74013535
:0A0F20000AFCAD0B8B828C838DF070
:090F2A00123CD9FBC39A500122CC
:0A0F3300E4C0E0850982850A838589
:070F3D000BF01206061581FE
:0D0F4400900F28E0FAA3E0FBA3E0FCEAB464
:0A0F5100BA0AEBB40D06ECB400027E
:020F5B00801400
:0E0F5D00900F22E0FAA3E0FBA3E0FC8A828B57
:060F6B00838CF01218C691
:090F7100900F28E0F50CA3E0F557
:060F7A000DA3E0F50EE5F9
:050F80000CB5090BE5B2
:050F85000DB50A06E5B0
:050F8A000EB50B012271
:0A0F8F00744E250CFA7401350DFBB9
:0B0F9900AC0E8A828B838CF074521225
:0A0FA400456C7435250CFA74013514
:070FAE000DFBAC0E743625AB
:080FB5000CFD7401350DFEAFC7
:0C0FBD000E8D828E838FF0123CD9FD8ACD
:0C0FC900828B838CF012456C743E250C6A
:0A0FD500FA7401350DFBAC0E8A82A0
:0E0FDF008B838CF012030E900C4EE054FEF04B
:010FED0022E1
:0A0FEE0074122509FA7401350AFB9C
:0C0FF800AC0B8A828B838CF0123CD9FA7F
:0C100400A3123CD9FB74142509FC7401F4
:0A101000350AFDAE0B8C828D838E35
:0C101A00F0123CD9FCA3123CD9FDA3123B
:0C1026003CD9FEC002C0037440C0E0745E
:0C10320010C0E0C002C0038C828D838ED1
:02103E00F0229E
:04104000D003D00207
:0210440080FE2C
:0A104600C012858112C082C083C071
:0D105000F07462C0E07401C0E0E4C0E0A8EC
:0B105D00120886820886830886F012C5
:0C1068001D47158115811581A812087420
:0E1074004F26FD74010836FE0886077410C072
:0C108200E0E4C0E0E51224F9F8E6C0E06C
:0E108E0008E6C0E008E6C0E08D828E838FF099
:0C109C001236D8E58124FBF581A812086B
:0D10A800743426FD74010836FE088607E545
:0C10B5001224FCF886028D828E838FF0DE
:0C10C100EA12456CA81208741726FA7495
:0C10CD00010836FB088604A81208E6C0E3
:0E10D900E008E6C0E008E6C0E08A828B838C67
:0C10E700F01216D6158115811581A81293
:0E10F30008742026FA74010836FB088604A84B
:0C1101001208E6C0E008E6C0E008E6C006
:0E110D00E08A828B838CF01216D61581158134
:0C111B001581A81208742926FA74010836
:0C11270036FB088604A81208E6C0E008A9
:0E113300E6C0E008E6C0E08A828B838CF012F2
:0C11410016D6158115811581A8120874BE
:0E114D001226FA74010836FB0886048A828B8B
:0C115B00838CF0E51224F7F8E612456CD6
:0C116700A308E612456CA81208741426B8
:0E117300FA74010836FB0886048A828B838C8E
:0C118100F0E51224F4F8E612456CA30817
:0B118D00E612456CA308E612456CA8B2
:0C1198001208743626FA74010836FB08B1
:0E11A40086048A828B838CF0740A12456CA834
:0C11B2001208741026FA74010836FB08BD
:0D11BE0086048A828B838CF0E412456CA8B5
:0C11CB001208740F26FA74010836FB08A5
:0E11D70086048A828B838CF0740112456CA80A
:0C11E5001208740E26FA74010836FB088C
:0E11F10086048A828B838CF0740212456CA8EF
:0C11FF001208740D26FA74010836FB0873
:0E120B0086048A828B838CF0740312456CA8D3
:0C1219001208740C26FA74010836FB0859
:0E12250086048A828B838CF0740412456CA8B8
:0C1233001208740B26FA74010836FB0840
:0E123F0086048A828B838CF0740512456CA89D
:0C124D001208740A26FA74010836FB0827
:0E12590086048A828B838CF0740612456CA882
:0C1267001208740926FA74010836FB080E
:0E12730086048A828B838CF0740712456CA867
:0C1281001208740526FA74010836FB08F8
:0E128D0086048A828B838CF0745512456CA8FF
:0C129B001208740626FA74010836FB08DD
:0E12A70086048A828B838CF074AA12456CA890
:0C12B5001208741126FA74010836FB08B8
:0E12C10086048A828B838CF0745A12456CA8C6
:0C12CF001208740726FA74010836FB08A8
:0E12DB0086048A828B838CF0741212456CA8F4
:0C12E9001208740826FA74010836FB088D
:0E12F50086048A828B838CF0743412456CA8B8
:0C1303001208860274010826FB0886040C
:0C130F007D218A828B838CF0ED12456CEE
:0C131B00A81208740426FA74010836FBBE
:0E1327000886048A828B838CF0748012456CD9
:0C133500A81208740326FA74010836FBA5
:0E1341000886048A828B838CF0E412456CA827
:0C134F001208740126FA74010836FB082D
:0A135B0086047DEE7E0F8A828B83EC
:0C1365008CF0ED12456CA3EE12456C8577
:051371001281D01222E0
:0A137600C012858112AA82AB83AC7D
:0C138000F0A812181818E624015009A863
:08138C001218181876FE8011FA
:08139400A812181818B6010098
:09139C005007A812181818760178
:0C13A500A81218181886057E00C002C0AF
:0C13B10003C004E51224F3F8E6C0E008D5
:0C13BD00E6C0E0E51224F5F8E6C0E00808
:0C13C900E6C0E008E6C0E0E51224F8F8F9
:0C13D500E6C0E008E6C0E0E51224FAF8EB
:0E13E100E6C0E008E6C0E008E6C0E0C005C0D7
:0E13EF00068A828B838CF0121046E58124F46E
:0E13FD00F581D004D003D00274172AFD7401CC
:0E140B003BFE8C07C002C003C004C005C00633
:0E141900C007900C1075F00012180E1581150A
:0E142700811581D004D003D002C002C003C0E2
:0E1435000412084FD004D003D0027401C0E0AE
:0E1443008A828B838CF012060615811208B186
:03145100D0122294
:0814540090000112082A80F843
:0A145C00C012858112AA82AB83C082
:0E14660002C003743FC0E0E4C0E0E4C0E090C8
:0E1474000C1075F000121D47158115811581B1
:0E148200D003D002900C34740AF0A3E4F09072
:0E1490000C367464F0A3E4F0900C36E0FCA37C
:0E149E00E0FD900C44ECF0A3EDF0C002C003A2
:0E14AC00E4C0E0C0E0C0E0900C1075F000124B
:0E14BA0016D6158115811581D003D002C0020F
:0E14C800C003E4C0E0C0E0C0E0900C1975F075
:0E14D600001216D6158115811581D003D002A3
:0E14E400C002C003E4C0E0C0E0C0E0900C22F3
:0E14F20075F0001216D6158115811581D003F4
:0E150000D002C002C003E4C0E0C0E0C0E09032
:0E150E000C2B75F0001216D615811581158173
:0E151C00D003D0027CFF7DFF7E00C002C00322
:0E152A00C004C005C006121B00E5828583F0D8
:0E153800D006D005D004D003D0022401FFE479
:0E15460035F0F87900C002C003C004C005C033
:0E155400068F82888389F0121E321581158160
:0E1562001581D003D002E4C0E0C0E0E4C0E098
:0C157000C0E0C0E0E4C0E0C0E0748AC04D
:0C157C00E07449C0E07480C0E0C002C010
:0E15880003900C5875F000121046E58124F413
:0E159600F5817420C0E0E4C0E0E4C0E0C0E0F5
:0A15A400C0E07454C0E07414C0E00D
:0A15AE00748FC0E07449C0E074803F
:0E15B800C0E074FFC0E0E4C0E0900DBA75F032
:0C15C60000121046E58124F4F581746FDA
:0C15D200C0E0740DC0E0E4C0E0900C101C
:0D15DE0075F00012175015811581158174EC
:0A15EB00D1C0E0740EC0E0E4C0E0DF
:0E15F500900C1075F00012175015811581151D
:05160300817509587516
:031608000A0C7554
:0A160B000B00744E2509FA74013536
:0A1615000AFBAC0B8A828B838CF079
:0C161F00745212456C900F087441F0905A
:09162B000C4EE04402F0D0122242
:05498A004D61696E00A3
:05498F0049646C6500A5
:0A163400C012858112C082C083E558
:0A163E00812407F581AA120AA81200
:0C164800080808A602087600087640E5B5
:0B1654001224FCFD8D027B007C40E5B1
:0A165F00122406F8A91209090987F0
:0E166900820987830987F0123CD9FD8A828BA3
:0E167700838CF0123CD9FE8DF0A4F608A6F08C
:0C168500E51224062401F886070ABA00CA
:02169100010B4B
:0E1693008A828B838CF0123CD9FA8DF0A4FD74
:0C16A100A912090909740127FAE40937AD
:0E16AD00FB0987048A828B838CF0123CD9FAE9
:0C16BB008AF0EEA42D2FF6E5122406F8AC
:0C16C70086020886038A828B83851281CC
:0316D300D0122210
:0A16D600C012858112AA82AB83AC1A
:0C16E000F0E51224FBF8E608460846700E
:0C16EC000DE51224FBF8A60208A6030876
:0216F800A60446
:0E16FA0074032AFDE43BFE8C078D828E838FE5
:0D170800F0EA12456CA3EB12456CA3EC1245
:0E171500456C8A828B838CF0EA12456CA3EB44
:0E17230012456CA3EC12456C74062AFAE43BE6
:0C173100FB8A828B838CF0E51224FBF80D
:0E173D00E612456CA308E612456CA308E612FE
:05174B00456CD01222E4
:0A175000C012858112C082C083C060
:0C175A00F0058105810581E51224FBF8F3
:0C1766008605088606088607A81208867B
:0C177200820886830886F0E5122404F942
:0C177E00123CD9F7A3123CD909F7A312C2
:0C178A003CD909F78D828E838FF0E512A8
:0E1796002404F8E612456CA308E612456CA385
:0E17A40008E612456C74032DFAE43EFB8F0438
:0B17B2008A828B838CF0A81208E612DC
:0C17BD00456CA308E612456CA308E61278
:0C17C900456CE5122404F8740326FAE4D1
:0E17D5000836FB0886048A828B838CF0ED12A6
:0A17E300456CA3EE12456CA3EF1253
:0C17ED00456CA8120886820886830886D6
:0D17F900F0ED12456CA3EE12456CA3EF124B
:06180600456C851281D043
:02180C001222A6
:0A180E00C012E581F5122406F581F1
:0C181800AA82AB83ACF0E51224FBF8863A
:0E182400050886060886078D828E838FF0EAFF
:0B18320012456CA3EB12456CA3EC12F6
:0C183D00456CA8120874032DF6E43E0868
:0C184900F608A607E5122404F874032A30
:0C185500F6E43B08F608A604E5122404A3
:0E186100F886820886830886F0123CD9FAA326
:0A186F00123CD9FBA3123CD9FCA8DF
:0C187900120886820886830886F0EA12B6
:0A188500456CA3EB12456CA3EC12B6
:0E188F00456C8A828B838CF0ED12456CA3EEC3
:09189D0012456CA3EF12456CE545
:0C18A600122404F886820886830886F06D
:0C18B200ED12456CA3EE12456CA3EF1282
:0618BE00456C851281D08B
:0218C4001222EE
:0A18C600C012E581F5122406F58139
:0C18D000AB82AC83AAF0E5122404F812ED
:0B18DC003CD9F6A3123CD908F6A31279
:0A18E7003CD908F6E5122404F8A924
:0C18F1001209740326F7E4083609F70812
:0E18FD0009E6F774032BFBE43CFC8A058B82A2
:0E190B008C838DF0123CD9FBA3123CD9FCA3B7
:0C191900123CD9FDA812088682088683C3
:0E1925000886F0EB12456CA3EC12456CA3EDA6
:0C19330012456C8B828C838DF0E5122431
:0E193F0004F8E612456CA308E612456CA308F6
:08194D00E612456C851281D001
:0219550012225C
:0A195700C012858112AA82AB83AC96
:0C196100F0123CD9FDA3123CD9FEA312E9
:03196D003CD9FF63
:0E197000EDB5020AEEB50306EFB50402806184
:0E197E00C002C003C00474062DFAE43EFB8FC5
:0D198C00048A828B838CF0123CD9FAA312DE
:091999003CD9FBA3123CD9FCE58A
:0C19A2001224FBF8E6B5020E08E6B503BF
:0A19AE000908E6B504047401800185
:0119B800E44A
:0E19B900D004D003D00260088D828E838FF0A0
:0219C700801C82
:0E19C9008D828E838FF0123CD9FDA3123CD983
:0819D700FEA3123CD9FF809130
:0619DF0090000075F0000D
:0319E500D01222FB
:080063007800E84400600A790E
:03006B000075A07D
:06006E0000E4F309D8FCD8
:0800740078E0E8440F600C790C
:0B007C0010900000E4F0A3D8FCD9FABB
:0319E800D2AF2259
:0319EB00C2AF2266
:0719EE0030AF047A01800212
:0219F5007A0076
:0719F7007B008A828B832232
:0619FE007508FF121BFF3B
:0A1A0400C28C85108C850F8AD28CED
:011A0E0022B5
:0A1A0F00C012858112C082C0830559
:0D1A19008105810581740FC0E0E4C0E0A8E4
:0C1A260012088682088683121634AC82F7
:0C1A3200AD8315811581EC2420FCED34FF
:0A1A3E000BFDA812080808A6040812
:0E1A4800A605087600740FC0E0E4C0E0E4C01C
:0C1A5600E0A812080808868208868308B1
:0C1A620086F0121D47158115811581A822
:0C1A6E001208080886820886830886F0AB
:0C1A7A00E51224FCF9E712456CA309E713
:0C1A860012456CA812080808740226FF24
:0E1A9200E40836FA0886038F828A838BF0E51B
:0C1AA0001224F9F8E612456CA308E612C7
:091AAC00456CA308E612456CA884
:0C1AB50012080808740D26FAE40836FB3D
:0C1AC100088607A8120886048A828B831E
:0C1ACD008FF0EC12456CA8120808087499
:0E1AD9000E26FAE40836FB0886058A828B8307
:0C1AE7008DF0EC12456CA812080808866F
:0B1AF300820886830886F0851281D0EF
:021AFE001222B2
:081B0000900FE0229055AA228B
:081B0800904B4E229055AA22D9
:0E1B1000AA82C00274F0C0E0E4C0E0E4C0E0CD
:0E1B1E00900B2075F000121D471581158115E2
:0E1B2C0081D002E4FBC0E0C0E0E4C0E0C0E015
:0E1B3A008A828B8312145CE58124FCF5819075
:0E1B48000C46E4F0A3741BF0A374B7F0A3E402
:0E1B5600F0900C4A7440F0A37442F0A3740F98
:0E1B6400F0A3E4F0900C4AE0FAA3E0FBA3E04B
:0E1B7200FCA3E0FD74E8C0E07403C0E0E4C032
:0E1B8000E0C0E08A828B838CF0ED121CB8AAC4
:0E1B8E0082AB83ACF0FDE58124FCF581740A86
:0E1B9C00C0E0E4C0E0C0E0C0E08A828B838C31
:0E1BAA00F0ED123CF5AA82AB83ACF0FDE581B4
:091BB80024FCF5818A0F8B10E575
:051BC1000FF4F50FE533
:051BC60010F4F510050C
:061BCB000FE4B50F020556
:011BD1001003
:0E1BD200758901121A04C28DD2A9D28CE4C00A
:0A1BE000E0C0E0C0E074D4C0E0747F
:0C1BEA000AC0E0900001121A0FE58124EF
:091BF600FBF58190000102082AB0
:0A1BFF00D011D011C0D0A2AFC2AFC8
:0E1C0900C0D0C0E0C0F0C082C083C007C006DB
:0D1C1700C005C004C003C002C001C000C071
:051C2400128508821288
:051C29000DC4E50CB53F
:051C2E000908E50DB5F9
:051C33000A03021C97EA
:071C3800850982850A83780B
:011C3F002183
:0B1C4000E6F0A308E870F98509828532
:0C1C4B000A830583C374113582F582748E
:071C5700003583F5837911CC
:0B1C5E00D0E0F0E582158270021583D3
:0A1C6900D9F3E581F0850C82858235
:061C730009850D83858345
:031C79000A7821C5
:0B1C7C00E0F6A308E870F9850C8285F3
:0A1C87000D830583E0F581A37911B8
:061C9100E0C0E0A3D9FA57
:0C1C9700D012D000D001D002D003D00445
:0E1CA300D005D006D007D083D082D0F0D0E09C
:071CB100D0D092AFD0D03279
:0A1CB800C012858112C082C083C0F3
:0D1CC200F0C0E07E007F007A007B007C20F7
:0C1CCF00A81208080808E6235401FD24B0
:0A1CDB00FF9200A81208E625E0F6CB
:0E1CE50008E633F608E633F608E633F6EE2E90
:0C1CF300FEEF33FFEA33FAEB33FB300066
:041CFF000343060194
:0C1D0300E51224FAF8C3EE96EF0896EA09
:0C1D0F000896EB0896401CE51224FAF838
:0E1D1B00EEC396FEEF0896FFEA0896FAEB0874
:091D290096FBA81208E64401F63D
:0C1D3200DC9BA8120886820886830886C5
:091D3E00F008E6851281D01222A2
:0A1D4700C012858112C082C083C063
:0B1D5100F0058105810581A81208E55E
:0C1D5C00122404F9E6F70809E6F708096C
:0C1D6800E6F7E51224FBF886020886036B
:091D74008A048B051ABAFF011B59
:0C1D7D00EC4D6020E5122404F88682087A
:0C1D890086830886F0A912191919E712C8
:0C1D9500456CA31818A68208A68380D312
:0C1DA100A8120886820886830886F08558
:051DAD001281D012229A
:0A1DB200C012E581F5122406F58148
:0C1DBC00AA82AB83E5122404F8E4F608C8
:0C1DC800F608F6900C52A81208E0F6A3F2
:0C1DD400E008F6A3E008F6A81208EA26D2
:0E1DE000FAEB0836FB088607900C55E0FCA3D2
:0E1DEE00E0FDA3E0FEC3EA9CEB9DEF9E5023B8
:0C1DFC00A812088604088605088606E583
:0C1E0800122404F8A60408A60508A6068B
:0B1E1400900C52EAF0A3EBF0A3EFF0FB
:0C1E1F00E5122404F886820886830886F9
:071E2B00F0851281D01222A4
:0A1E3200C012858112AA82AB83ACB6
:0D1E3C00F0900C4FEAF0A3EBF0A3ECF09057
:0E1E49000C52EAF0A3EBF0A3ECF0900C55E580
:0C1E57001224FBF8E6F0A308E6F0A30854
:081E6300E6F0900001D012220C
:0A1E6B00C012858112AA82AB83AC7D
:0C1E7500F0123CD9FDA3123CD9FEA312D0
:0C1E81003CD9FF8D828E838FF0A81218D0
:0B1E8D001818E612456C0DBD00010E98
:0D1E98008A828B838CF0ED12456CA3EE1254
:0E1EA500456CA3EF12456C8D828E838FF0E4A6
:061EB30012456CD0122262
:061EB900C012858112E554
:0A1EBF001224F8FAE51224FBFB7C64
:0C1EC900007D40C002E51224F8F8E6C0DD
:0E1ED500E008E6C0E008E6C0E0C003C004C0BC
:0E1EE30005901E6B122F03AA82AB83E58124AB
:0A1EF100F9F5818A828B83D012225A
:05008700900F73E4F08E
:0A1EFB00C012858112AA82AB83ACED
:0A1F0500F0E51224F7F8E51224F9C4
:0E1F0F00F9E6C397FD08E60997FEC005C00677
:0C1F1D00C005C006C005C006E51224F790
:0C1F2900F8E6C0E008E6C0E0E51224F98C
:0C1F3500F8E6C0E008E6C0E0E51224FB7E
:0D1F4100F8E6C0E008E6C0E008E6C0E07485
:0A1F4E0094C0E07449C0E07480C044
:0E1F5800E0C002C003C004123652E58124EF3F
:0C1F6600F581D006D0058D828E83D0124C
:011F7200224C
:0A1F7300C012858112AA82AB83AC74
:0E1F7D00F0900C34E0FDA3E0FEC002C003C0F3
:0A1F8B0004C005C00674ABC0E0748A
:0C1F950049C0E07480C0E0C002C003C07E
:0E1FA10004123652E58124F8F581D004D003F5
:0E1FAF00D002900C36E0FDA3E0FEC002C0039D
:0B1FBD00C004C005C00674BBC0E07487
:0C1FC80049C0E07480C0E0C002C003C04B
:0E1FD40004123652E58124F8F581D004D003C2
:0E1FE200D002900C38E0FDA3E0FEA3E0FFA3C8
:0E1FF000E0F8C002C003C004C005C006C00770
:0A1FFE00C00074CBC0E07449C0E0DD
:0E2008007480C0E0C002C003C004123652E56E
:0E2016008124F6F581D004D003D002900C3C5A
:0E202400E0FDA3E0FEA3E0FFA3E0F8C002C0D1
:0C20320003C004C005C006C007C0007455
:0A203E00DCC0E07449C0E07480C00B
:0E204800E0C002C003C004123652E58124F647
:0E205600F581D004D003D002900C40E0FDA331
:0E206400E0FEA3E0FFA3E0F8C002C003C0044A
:0C207200C005C006C007C00074EDC0E04F
:0C207E007449C0E07480C0E0C002C003E0
:0E208A00C004123652E58124F6F581D004D050
:0E20980003D002900C46E0FDA3E0FEA3E0FFA3
:0E20A600A3E0F8C002C003C004C005C006C01D
:0A20B40007C00074FEC0E07449C0CC
:0E20BE00E07480C0E0C002C003C004123652BD
:0D20CC00E58124F6F581D004D003D0029008
:0E20D9000C4AE0FDA3E0FEA3E0FFA3E0F8C088
:0C20E70005C006C007C000740FC0E07404
:0C20F3004AC0E07480C0E0C002C003C01E
:0E20FF0004123652E58124F6F581900000D0DF
:02210D0012229C
:0A210F00C012858112C082C083C097
:09211900F0E581240AF5817D0046
:03212200BD1000ED
:05212500400302221638
:0A212A00ED75F00FA42420FEE4344C
:0A2134000BFFE5122404F8A60608CC
:0C213E00A607087600E5122404F886824B
:0E214A000886830886F0123CD9FBA3123CD90C
:0A215800FCBB0006BC0003022212CB
:0C216200C005E5122404F8740526FBE417
:0D216E000836FC0886058B828C838DF0E519
:0A217B00122407F8123CD9F6A31253
:0C2185003CD908F6A3123CD908F6A312BE
:0C2191003CD908F6E5122404F8740E2670
:0E219D00FEE40836FF0886028E828F838AF0E9
:0C21AB00123CD9FE7A00E5122404F874FE
:0E21B7000D26FBE40836FC0886058B828C831F
:0C21C5008DF0123CD9FB7C00C005E51237
:0E21D1002407F8E6C0E008E6C0E008E6C0E03B
:0D21DF0008E6C0E0C006C002C003C00474E2
:0A21EC0020C0E0744AC0E07480C017
:0C21F600E0A81208E6C0E008E6C0E0081F
:0E220200E6C0E0123652E58124F2F581D005E7
:02221000D005F7
:042212000D02212276
:09221600900000851281D0122213
:0A221F00C012858112C082C083C086
:0E222900F0058105810581121B00E582858389
:0E223700F0900F46F0A3E5F0F0121B08AD8208
:0C224500AE83C005C006E4C0E0C0E07439
:0A22510042C0E0744AC0E07480C08F
:0C225B00E0A8120886820886830886F03E
:0E226700121EFBE58124F9F581740AC0E0A87F
:0B227500120886820886830886F0129B
:0E22800035751581900F46E0C0E0A3E0C0E088
:0A228E00E4C0E0C0E07447C0E07453
:0A2298004AC0E07480C0E0A81208FC
:0E22A20086820886830886F0121EFBE58124E2
:0C22B000F9F581740AC0E0A812088682CB
:0C22BC000886830886F012357515817DB8
:0C22C800217E00C005C006E4C0E0C0E0BC
:0A22D400744BC0E0744AC0E074804F
:0C22DE00C0E0A8120886820886830886EB
:0E22EA00F0121EFBE58124F9F581740AC0E0B4
:0C22F800A8120886820886830886F0126F
:09230400357515817D217E0090E4
:0E230D000F46E0FFA3E0FA900F46ED2FF0EE32
:08231B003AA3F0900F35E4F045
:08232300900F35E0FABA010049
:05232B00400302245BE9
:0B2330007B00C002C0037451C0E074C9
:0A233B004AC0E07480C0E07436C0B0
:0C234500E0740FC0E0E4C0E0121EB9E537
:0E2351008124F8F581900F35E0FA75F009A4AB
:0A235F00244FFAE4340CFB74062A44
:0E236900F582E43BF583E0FCA3E0FDA3E0FE7B
:0E2377008A828B83E0FAA3E0FBA3E0FEC004A1
:0B238500C005C002C0037436C0E07445
:0A2390000FC0E0E4C0E0A8120886C8
:0E239A00820886830886F0121EFBE58124F976
:0C23A800F581900F35E0FA75F009A424CF
:0A23B4004FFAE4340CFB8A828B839D
:0C23BE00A3A3A3E5122404F8E0F6A3E0BA
:0E23CA0008F6A3E008F68A828B83E0FFA3E00A
:0C23D800FCA3E0FDE5122404F8E6C39F1E
:0E23E400FF08E69CFC74062AF582E43BF583B4
:0C23F200E0FAA3E0FBA3E0FDE5122404E8
:0E23FE00F8EAC396FAEB0896FBC004C007C0CD
:0C240C0002C003C007C004745AC0E07492
:0A2418004AC0E07480C0E0A812087A
:0E242200E6C0E008E6C0E008E6C0E012365270
:0E243000E58124F6F581D007D004900F46E038
:0E243E00FAA3E0FB900F46EF2AF0EC3BA3F070
:0D244C00900F35E0FA900F3574012AF00270
:0224590023233B
:0C245B00900F46E0C0E0A3E0C0E0746E0B
:0B246700C0E0744AC0E07480C0E0A830
:0C2472001208E6C0E008E6C0E008E6C082
:0E247E00E0123652E58124F8F58190000085C9
:05248C001281D01222B4
:0A249100C012858112C082C083C012
:0C249B00F00581058105817D2174FFC3DF
:0A24A7009DFE8E07E51224FBF8E508
:0C24B100122404F9E6F70809E6F7080910
:0624BD00E6F77A008E0331
:0C24C300EB602BC0058B047E00E51224AA
:0E24CF0004F8EC26FCEE0836FE0886058C822A
:0E24DD008E838DF0123CD9D0057009C3EA9FA2
:0624EB0050040A1B80D220
:0E24F100E4FBFCFEEFC39AFFEC9EFCEF2DFF18
:0E24FF00EC3BFCC007C004C005C003C005C014
:0A250D00037480C0E0744AC0E0745B
:0C25170080C0E0A81208E6C0E008E6C0A2
:0D252300E008E6C0E0123652E58124F485A0
:052530001281D012220F
:06253500C01285811212A4
:0B253B000838120000900000D01222AF
:0A254600C012858112C082C083C05C
:0C255000F0900F2BE0FDA3E0FEA3E0FFE5
:0A255C00EDB42B0BEEB40F07EFB443
:0525660000030225E85E
:0E256B0074062DFAE43EFB8F048A828B838C6B
:0C257900F0123CD9FAA3123CD9FBA312CB
:0E2585003CD9FC8A828B838CF0123CD9FAA3DD
:0E259300123CD9FBA3123CD9FCC005C006C007
:0C25A10007C002C003C0047493C0E074C3
:0A25AD004AC0E07480C0E0A81208E4
:0E25B700E6C0E008E6C0E008E6C0E0123652DA
:0E25C500E58124F7F581D007D006D0058D8280
:0E25D3008E838FF0123CD9FDA3123CD9FEA3DB
:0725E100123CD9FF02255C4A
:0925E800900000851281D012223E
:0A25F100C012858112C082C083C0B1
:0E25FB00F0E5812407F581900C10E0FDA3E0CF
:0E260900FEA3E0FF900F4BEDF0A3EEF0A3EF69
:01261700F0D2
:0D261800900F4BE0FDA3E0FEA3E0FFEDB44A
:0A262500100BEEB40C07EFB4000335
:03262F0002285628
:0E26320074062DFDE43EFE8D828E838FF01225
:0A2640003CD9FDA3123CD9FEA31201
:0E264A003CD9FF900F48EDF0A3EEF0A3EFF0A7
:0E265800744E2DFD74013EFE8D828E838FF038
:09266600123CD9FDBD41028024A3
:05266F00BD4202804F96
:05267400BD5002805A78
:05267900BD52028025A6
:05267E00BD5702803091
:08268300900F4E7497F0A37450
:08268B004AF0A37480F0804EB8
:08269300900F4E749DF0A3743A
:08269B004AF0A37480F0803EB8
:0826A300900F4E74A3F0A37424
:0826AB004AF0A37480F0802EB8
:0826B300900F4E74A7F0A37410
:0826BB004AF0A37480F0801EB8
:0826C300900F4E74ACF0A374FB
:0826CB004AF0A37480F0800EB8
:0826D300900F4E74B2F0A374E5
:0626DB004AF0A37480F038
:0E26E100900F48E0FDA3E0FEA3E0FF744F2D34
:0E26EF00FD74013EFE900F4EE0C0E0A3E0C07F
:0C26FD00E0A3E0C0E0C005C006C0077408
:0A270900B8C0E0744AC0E07480C05C
:0C271300E0A81208E6C0E008E6C0E008FC
:0D271F00E6C0E0123652E58124F4F5819009
:0E272C000F48E0FDA3E0FEA3E0FF74342DFD96
:0E273A0074013EFE8D828E838FF0123CD9FD1D
:0B2748007E00C005C00674C3C0E07432
:0A2753004AC0E07480C0E0A812083C
:0E275D00E6C0E008E6C0E008E6C0E012365232
:0E276B00E58124F8F581900F48E0FAA3E0FB29
:0E277900A3E0FC74462AFD74013BFE8C078D24
:0B278700828E838FF0E5122404F8120C
:0B2792003CD9F6A3123CD908F6A312B4
:0E279D003CD908F6A3123CD908F6743E2AFF78
:0E27AB0074013BFB8F828B838CF0123CD9FFB4
:0C27B900A3123CD9FBA3123CD9FCA312D4
:0C27C5003CD9FDE5122404F8E6C0E00851
:0E27D100E6C0E008E6C0E008E6C0E0C007C0D1
:0A27DF0003C004C00574CAC0E07412
:0A27E9004AC0E07480C0E0A81208A6
:0E27F300E6C0E008E6C0E008E6C0E01236529C
:0E280100E58124F2F581900F48E0C0E0A3E0ED
:0C280F00C0E0A3E0C0E0A8120886820828
:0E281B0086830886F01224911581158115819F
:0E282900900F4BE0FBA3E0FCA3E0FD8B828C44
:0E283700838DF0123CD9FBA3123CD9FCA312F6
:0E2845003CD9FD900F4BEBF0A3ECF0A3EDF0AF
:0328530002261842
:09285600900000851281D01222CD
:0A285F00C012858112C082C0839070
:0C286900000E121DB2AC82AD83AEF0E593
:0C2875001224FBF8E612456CA308E612E2
:0E288100456CA308E612456C74032CFFE43D81
:0C288F00FA8E038F828A838BF0A8120857
:0E289B00E612456CA308E612456C74052CFA93
:0E28A900E43DFB8E07C004C005C006C004C09D
:0E28B70005C0068A828B838FF01216D615811B
:0E28C50015811581D006D005D00474052CFCB9
:0E28D300E43DFDC004C005C006900F2B75F05B
:0C28E10000121750158115811581851219
:0428ED0081D0122262
:0B28F10012084F900F34E0FA60030261
:0228FC0029AA07
:0E28FE00900F347401F0E4C0E0C0E0C0E09040
:0E290C000F2B75F0001216D61581158115815E
:0A291A0074DEC0E0744AC0E074806F
:0E292400C0E090253512285F158115811581C0
:0A29320074E4C0E0744AC0E0748051
:0E293C00C0E090254612285F15811581158197
:0A294A0074E9C0E0744AC0E0748034
:0E295400C0E090210F12285F158115811581BA
:0A29620074F2C0E0744AC0E0748013
:0E296C00C0E090221F12285F15811581158191
:0A297A0074FEC0E0744AC0E07480EF
:0E298400C0E09025F112285F158115811581A4
:0A299200740BC0E0744BC0E07480C9
:0E299C00C0E0901F7312285F15811581158110
:0329AA000208B16F
:0A29AD00C0128581120581AAF0AB6B
:0E29B70083E582900F77F0A3EBF0A3EAF0E542
:0B29C500122401F8E64401F61228F18C
:0C29D000A81208E630E03A900F77E0FA19
:0D29DC00A3E0FBA3E0FCC002C003C0047434
:0A29E90015C0E0744BC0E07480C01C
:0E29F300E0C002C003C004123652E58124F792
:0C2A0100F581900F73E4F0E5122401F859
:042A0D00E654FEF697
:0E2A1100900F77E0FAA3E0FBA3E0FC8A828B33
:0E2A1F00838CF0123528AA82AB83900F71EAE7
:0E2A2D00F0A3EBF0EB20E79BBA1B0FBB000CF5
:0C2A3B00E5122401F8E64401F60229D05F
:082A4700BA0D05BB0002800B73
:082A4F00BA0A05BB0002800376
:032A5700022C430B
:0A2A5A007430C0E0744BC0E07480DB
:0E2A6400C0E0900F77E0C0E0A3E0C0E0A3E088
:0C2A7200C0E0123652E58124FAF581E53F
:0C2A7E00122401F8E64402F6900F2BE051
:0E2A8A00FCA3E0FDA3E0FE900F7AECF0A3EDBC
:042A9800F0A3EEF0C9
:0D2A9C00900F7AE0FCA3E0FDA3E0FEECB497
:0A2AA9002B0BEDB40F07EEB4000391
:032AB300022BDA19
:0E2AB60074062CFCE43DFD8C828D838EF012A4
:0A2AC4003CD9FCA3123CD9FDA3127B
:0E2ACE003CD9FE900F74ECF0A3EDF0A3EEF0F7
:0E2ADC008C828D838EF0123CD9FCA3123CD963
:0D2AEA00FDA3123CD9FE8C828D838EF0126C
:0E2AF70038FFAA82AB83900F74E0FEA3E0FFCD
:0E2B0500A3E0FC8E828F838CF0123CD9FEA3DD
:0E2B1300123CD9FFA3123CD9FCC002C00374CF
:0A2B210051C0E0740FC0E0E4C0E012
:0E2B2B008E828F838CF01248AAAC82AD83E5B7
:0E2B39008124FBF581EC4D706B900F74E0FC75
:0E2B4700A3E0FDA3E0FE74032CFCE43DFD8C36
:0E2B5500828D838EF0123CD9FAA3123CD9FB7C
:0E2B6300900F77E0FEA3E0FFA3E0FCC002C0ED
:0A2B7100037451C0E0740FC0E0E4EB
:0A2B7B00C0E07490C0E0742BC0E0CD
:0B2B8500C002C0038E828F838CF02200
:0E2B9000AC82AD83158115811581D003D00272
:0C2B9E00EC4D7038E5122401F8E654FDFF
:032BAA00F6802D85
:0E2BAD00900F7AE0FCA3E0FDA3E0FE8C828D89
:0E2BBB00838EF0123CD9FCA3123CD9FDA3126C
:0E2BC9003CD9FE900F7AECF0A3EDF0A3EEF0F5
:032BD700022A9C33
:0A2BDA00A81208E630E12E7451C085
:0A2BE400E0740FC0E0E4C0E07432BA
:0B2BEE00C0E0744BC0E07480C0E090B9
:0E2BF9000F77E0C0E0A3E0C0E0A3E0C0E01270
:082C07003652E58124F7F58146
:0A2C0F00E5122401F8E654FDF67406
:0A2C190040C0E0744BC0E07480C0BE
:0E2C2300E0900F77E0C0E0A3E0C0E0A3E0C0C7
:0E2C3100E0123652E58124FAF581900F73E42B
:042C3F00F00229D0A6
:0E2C4300C3EA9420EB64809480400DBA2030E8
:0A2C5100BB002D900F73E0FA70260F
:0A2C5B007442C0E0744BC0E07480C6
:0E2C6500C0E0900F77E0C0E0A3E0C0E0A3E085
:0E2C7300C0E0123652E58124FAF5810229D024
:0E2C8100900F71E0FAA3E0FBC3EA9461EB64EC
:0E2C8F00809480401E747A9A74808BF063F0FB
:0E2C9D008095F04010EA24E0FAEB34FFFB9043
:072CAB000F71EAF0A3EBF04A
:082CB200900F73E0FABA1F0055
:0A2CBA0040267442C0E0744BC0E0F5
:0E2CC4007480C0E0900F77E0C0E0A3E0C0E0B5
:0E2CD200A3E0C0E0123652E58124FAF581023B
:022CE00029D0F9
:0C2CE200900F71E0C0E0A3E0C0E074447B
:0B2CEE00C0E0744BC0E07480C0E090B8
:0E2CF9000F77E0C0E0A3E0C0E0A3E0C0E0126F
:0E2D07003652E58124F8F581900F73E0FA90C2
:0C2D15000F7374012AF0EA2451FAE43430
:0C2D21000FFB900F71E0FCA3E0FD8A8224
:0C2D2D008B83ECF0900F73E0FA2451F55A
:0C2D390082E4340FF583E4F00229D08519
:052D45001281D01222F2
:0E499400252D3873202538582D25385820251C
:0949A2003858202825367529003B
:0E49AB0020205469636B4C656E203D202575FD
:0249B9000A00F2
:0E49BB00205469636B2F736563203D202575C2
:0249C9000A00E2
:0E49CB005469636B436F756E74203D20256C3C
:0349D900750A005C
:0E49DC002020202054696D6530203D20256C80
:0349EA00750A004B
:0E49ED002020202054696D6531203D20256C6E
:0349FB00750A003A
:0E49FE00202020202043434C4B203D20256CE0
:034A0C00750A0028
:0E4A0F00202020202050434C4B203D20256CC1
:034A1D00750A0017
:0E4A200049525120232025326420534C4F541C
:0E4A2E002025326420434F554E54455220251A
:064A3C0031306C640A0039
:054A4200434F44450054
:044A47004253530083
:064A4B0049444154410002
:094A51004D454D20232025640091
:0E4A5A002055534544202536752046524545CB
:064A6800202536750A004E
:0E4A6E0055736564206D656D6F72792025317A
:044A7C0030750A0087
:0E4A8000253032582D464620253032582D253F
:054A8E003032580A005F
:044A930025730A007D
:064A97002A2A2A2A2A0047
:064A9D005245414459009E
:044AA30052554E001A
:054AA7005741495400D5
:064AAC00424C4F434B0099
:064AB20050415553450080
:0B4AB800252D387320252D35732000BC
:074AC3005025303364200090
:0E4ACA005357202531306C642054434B202577
:064AD80031306C64200087
:064ADE005245534554004F
:054AE40048454C5000A4
:094AE90053484F57204952510077
:0C4AF20053484F57204D454D4F5259007E
:0D4AFE0053484F572054485245414453003F
:0A4B0B0053484F572054494D450010
:0E4B15000A52542F4F53204D6F6E69746F7209
:0D4B2300202449642420282573290A3E001F
:024B30000A0079
:0E4B32004572726F7220696E202573070A00AB
:024B40003E0035
:024B420007006A
:034B4400256300E6
:0A2D4A00C012858112C082C083050B
:0C2D5400817C00E51224F8F886820886D5
:0C2D6000830886F01238FFAD82AE83A815
:0C2D6C0012080808A605900FA7E0FE3032
:052D7800E003022DF351
:0C2D7D00900FA5E0FE606FA81208080887
:072D8900C3E69E50657C00CB
:0C2D9000900FA5E0FF7A00A812080808C8
:0E2D9C0086037E00EFC39BFFEA9EFA8C067B47
:0E2DAA0000C3EE9FEB64808AF063F08095F02A
:0E2DB8005039900FA7E0FE30E1047E3080021B
:022DC6007E206D
:0A2DC800C004C00674ECC0E0742DD6
:0C2DD200C0E0A81208E6C0E008E6C0E07F
:0C2DDE00E51224FBF88682088683088634
:022DEA00F022D5
:072DEC001581D0040C809D4D
:0C2DF300E51224F8F8860608860708861A
:032DFF00057A0052
:0E2E02008E828F838DF0123CD9FB6062C0027D
:052E10000EBE00010FE1
:0E2E1500900FA7E0FA5408D0026017C3EB64D8
:0E2E23008094E1400F74FA8BF063F08095F01C
:062E31004004EB24E0FB6D
:0C2E3700C002C005C006C007C0037461E3
:0A2E4300C0E0742EC0E0A81208E6FB
:0C2E4D00C0E008E6C0E0E51224FBF886B7
:082E5900820886830886F0223E
:0E2E61001581D007D006D005D0020A8A048061
:012E6F0092D0
:0D2E70008A04900FA7E0FA20E003022EF77D
:0C2E7D00900FA5E0FA6073A81208080886
:072E8900C3E69A50697A00CC
:0C2E9000900FA5E0FB7D00A812080808C8
:0E2E9C0086067F00EBC39EFBED9FFD8A067F3E
:0E2EAA0000C3EE9BEF64808DF063F08095F026
:0E2EB800503D900FA7E0FB30E1047B3080021C
:022EC6007B206F
:0B2EC800C002C004C00374EEC0E07440
:0A2ED3002EC0E0A81208E6C0E008D7
:0C2EDD00E6C0E0E51224FBF886820886BF
:052EE900830886F022C1
:092EEE001581D004D0020A80997C
:0A2EF7007A008C828A83851281D054
:022F010012229A
:0A2F0300C012858112C082C083E570
:0C2F0D00812410F581A812080808E4F6E1
:0D2F190008F6900FA9E4F0A3F0A3F0A3F0D8
:0C2F2600E51224F8F886060886070886E5
:0C2F3200028E828F838AF0123CD9FBE5EE
:0C2F3E001224F8F874012EF6E43F08F6A7
:0C2F4A0008A6028B02E5122405F8A6027E
:062F5600EB7003023518C8
:0A2F5C00E5122405F8B625028003F3
:032F66000234DE54
:0C2F6900E51224F8F886060886070886A2
:0C2F7500028E828F838AF0123CD9FBE5AB
:0C2F81001224F8F874012EF6E43F08F664
:0B2F8D0008A602E5122405F8A603E5E3
:092F9800122405F8E4B625010439
:0B2FA100603AE5122405F8E6C0E07479
:082FAC00CBC0E0742FC0E0A8C7
:0A2FB4001208E6C0E008E6C0E0E500
:0C2FBE001224FBF886820886830886F047
:012FCA0022E4
:0C2FCB001581A812080808740126F6E41D
:062FD7000836F6022F2669
:0A2FDD00900FA6E4F0900FA5F0900D
:0A2FE7000FA7F0900FA8740AF0E5A0
:0C2FF100122405F8B62D34900FA77401CF
:0C2FFD00F0E51224F8F8860608860708A4
:0D30090086028E828F838AF0123CD9FBE58F
:0C3016001224F8F874012EF6E43F08F6CE
:0A30220008A602E5122405F8A60333
:0C302C00E5122405F8B63036900FA7E03E
:0C303800FE4402F0E51224F8F8860608B9
:0E30440086070886028E828F838AF0123CD99E
:0C305200FBE51224F8F874012EF6E43FB0
:0C305E0008F608A602E5122405F8A603F7
:0A306A00E5122405F8B62A1DE51250
:0C30740024F7F9E724FEF8E51224F7F930
:0E308000A700860608860718900FA5EEF080C0
:01308E006AD7
:0C308F00E51224F8F8860608860708867B
:01309B000232
:08309C00E5122405F8B630002E
:0C30A4004046E5122405F8E624C6403C36
:0C30B000900FA5E0FB75F00AA4FBE512F0
:0E30BC002405F8E62B24D0900FA5F08E828F0D
:0D30CA00838AF0123CD9FBA3AE82AF83E5F0
:0C30D7001224F8F8A60608A60708A602B6
:0930E300E5122405F8A60380B0F3
:0C30EC00E51224F8F8A60608A60708A6BE
:0130F80002D5
:0C30F900E5122405F8B66C36900FA7E035
:0C310500FA4404F0E51224F8F8860208F1
:0E31110086030886068A828B838EF0123CD9D4
:0C311F00FFE51224F8F874012AF6E43BE6
:0C312B0008F608A606E5122405F8A60721
:0B313700900F7DE4F0E5122406F8760E
:083142007D08760F087600E518
:09314A00122405F8B60002806CA5
:0B315300E5122405F8B653030231F723
:0B315E00E5122405F8B65803023249C0
:0B316900E5122405F8B662030232599B
:0A317400E5122405F8B66302804E50
:0B317E00E5122405F8B6640302326974
:0B318900E5122405F8B6690302326964
:0A319400E5122405F8B6730280610D
:0B319E00E5122405F8B675030232614B
:0B31A900E5122405F8B678030232514D
:0B31B400900FA7E0FF4440F002326FD4
:0B31BF00A81208080886820886830218
:0231CA003522AC
:0A31CC00E51224F7F9E724FEF8E508
:0C31D6001224F7F9A700860708860418E9
:0B31E200900F7DEFF0900F7EE4F09066
:0A31ED000FA7E0FC4440F002326F2F
:0831F700900FA7E0FF4408F06F
:0A31FF00E51224F7F9E724FDF8E5D6
:0C3209001224F7F9A700860708860408C5
:0C32150086051818E5122406F8A6070824
:0C322100A60408A605E5122406F8E6083D
:0B322D00460846700DE5122406F876F6
:073238004708764B08768081
:0A323F00900FA7E0FF4440F0802646
:08324900900FA7E0FF4408F01C
:08325100900FA87410F0801624
:08325900900FA87402F0800E32
:08326100900FA7E0FF4420F0EC
:06326900900FA8740AF0AA
:0B326F00900FA7E0FF30E60302349A46
:0C327A00EF30E226E51224F7F9E724FC0F
:0C328600F8E51224F7F9A700900FA9E664
:0E329200F008A3E6F008A3E6F008A3E6F018A3
:0432A0001818802357
:0A32A400E51224F7F9E724FEF8E52F
:0C32AE001224F7F9A70086070886041810
:0D32BA00900FA9EFF0A3ECF0A3E4F0A3F057
:0E32C700900FA9E0FCA3E0FDA3E0FFA3E0FA56
:0D32D500EC4D4F4A700E900F7D7430F0905C
:0732E2000F7EE4F002349AB4
:0932E900E5122406F876A308762C
:0A32F2000F087600E5122406F886A6
:0E32FC00820886830886F0E412456C900FA7C6
:0E330A00E0FB20E546900FA8E0FEBE0A3EEA7A
:0E33180030E73A900FA774104BF0900FA9EC1D
:0E332600F4F0EDF4A3F0EFF4A3F0EAF4A3F05A
:0E333400900FA9E0FAA3E0FBA3E0FCA3E0FDEC
:0E334200900FA974012AF0E43BA3F0E43CA331
:05335000F0E43DA3F0D4
:0C335500E5122406F886020886030886AC
:013361000467
:0C336200900FA9E5122409F8E0F6A3E0A2
:0C336E0008F6A3E008F6A3E008F6E5125C
:0D337A002409F8E6084608460846700302DC
:02338700348D83
:0A338900C3747D9A740F9B74808C4E
:0B339300F063F08095F0400302348DE1
:0C339E00C002C003C004900FA8E0FDE5D1
:0C33AA0012240DF8A60508760008760035
:0C33B600087600E512240DF8E6C0E008DF
:0C33C200E6C0E008E6C0E008E6C0E0E578
:0C33CE00122409F886820886830886F025
:0E33DA0008E61247E6AB82AC83AAF0FDE5815F
:0C33E80024FCF581E5122405F8A603E59D
:0C33F40012240DF8E6C0E008E6C0E00876
:0C340000E6C0E008E6C0E0E5122409F890
:0E340C0086820886830886F008E6121CB8AA9D
:0D341A0082AB83ACF0FDE58124FCF58190D0
:0E3427000FA9EAF0A3EBF0A3ECF0A3EDF0E5A3
:0C343500122405F8C3740996D004D003DB
:0C344100D002400BE5122405F874302680
:03344D00F68026E0
:08345000E5122405F8B60A009C
:0C3458004015E5122405F8E624F0400BB6
:0B346400E5122405F8745726F68007D7
:07346F00E5122405F8763F89
:053476001ABAFF011B62
:0C347B008A828B838CF0E5122405F8E6B1
:0634870012456C023362E5
:0C348D00E5122406F8A60208A60308A613
:01349900042E
:0C349A00E5122406F8E6C0E008E6C0E0F9
:0C34A60008E6C0E0E51224FBF8E6C0E0F8
:0C34B20008E6C0E008E6C0E0A8120886AA
:0E34BE0082088683122D4AAA82AB83E5812400
:0C34CC00FAF581A812080808EA26F6EBC1
:0634D8000836F6022F2663
:0A34DE00E5122405F8E6C0E07406CC
:0A34E800C0E07435C0E0A81208E649
:0C34F200C0E008E6C0E0E51224FBF8860C
:0834FE00820886830886F02293
:0C3506001581A812080808740126F6E4DC
:063512000836F6022F2628
:0A351800A8120808088682088683BE
:06352200851281D0122287
:074B4700286E756C6C29005B
:0E352800AA82AB83ACF0740E2AFDE43BFE8C4D
:0D353600078D828E838FF0123CD9FDA31209
:0E3543003CD9FE74092AFAE43BFB8A828B8392
:0D3551008CF0123CD9FAA3123CD9FBA31256
:08355E003CD9FC7474C0E07458
:0C35660035C0E0C005C0068A828B838C53
:02357200F02245
:013574002234
:0A357500C012858112C082C083C01D
:0A357F00F0A812181818B60A60A888
:0C3589001208740C26FDE40836FE0886CB
:0D359500078D828E838FF0123CD9FDA312AA
:0C35A2003CD9FEA81208740926FFE408BA
:0E35AE0036FA0886038F828A838BF0123CD98E
:0E35BC00FFA3123CD9FAA3123CD9FBC005C0F4
:0A35CA0006740DC0E074E2C0E07466
:0C35D40035C0E0C005C0068F828A838BE2
:0235E000F022D7
:0635E2001581D006D005A2
:0C35E800A81208740C26FAE40836FB0850
:0E35F40086048A828B838CF0123CD9FAA312D3
:0C3602003CD9FBA81208740926FCE4085F
:0E360E0036FD0886068C828D838EF0123CD924
:0E361C00FCA3123CD9FDA3123CD9FEC002C093
:0A362A0003A812181818E6C0E07497
:0A36340046C0E07436C0E0C002C0DA
:08363E00038C828D838EF022C3
:0A3646001581D003D002851281D057
:02365000122244
:08365200C0128581120581A858
:08365A001208E51224F8F6E560
:0C3662001224FBF8860308860408860585
:0E366E0074092BFEE43CFF8D028E828F838A4E
:0C367C00F0123CD9FEA3123CD9FFA312AF
:0E3688003CD9FA740C2BFBE43CFC8B828C8347
:0C3696008DF0123CD9FBA3123CD9FCA81B
:0A36A2001208E6C0E0E51224F8F873
:0E36AC00E6C0E008E6C0E008E6C0E0C006C0E8
:0E36BA0007C0028B828C83122F03AA82AB837F
:0C36C800E58124F9F5818A828B8385124C
:0436D40081D012226D
:0A36D800C012E581F5122409F58106
:0C36E200AA82AB83ACF0E5122404F8A629
:0C36EE000208A60308A604E51224F9F85F
:0B36FA008605088606E51224FBF8E5B3
:0C370500122407F9E6F70809E6F70809A6
:02371100E6F7D9
:0C371300ED4E6036E5122407F8868208AF
:0E371F0086830886F0123CD9FF60231DBDFF93
:02372D00011E7B
:0C372F00E5122407F8740126F6E40836C1
:0E373B00F68A828B838CF0EF12456CA3AA8273
:04374900AB8380C608
:0B374D00A81208A60208A60308A604A4
:093758008D078E021DBDFF011E4C
:0C376100EF4A6019A812088682088683CF
:0E376D000886F0E412456CA31818A68208A680
:03377B008380DA6E
:0C377E00E5122404F88682088683088681
:07378A00F0851281D012222C
:09379100AA82AB83ACF00246D021
:06379A00AA82AB83ACF033
:0E37A000C002C003C00474E8C0E07403C0E0BF
:0E37AE00E4C0E0C0E08A828B838CF0124623D8
:0E37BC00AD82AE83E58124FCF581D004D003FC
:0B37CA00D002EE20E7D08D828E83221B
:0A37D500C012858112AA82AB83ACFA
:0C37DF00F0A812181818B60A2CC002C07E
:0E37EB0003C00474E8C0E07403C0E0E4C0E072
:0D37F900C0E0740DC0E08A828B838CF0125A
:0E3806003B4FE58124FBF581D004D003D002B6
:0C381400A812181818860574E8C0E074AB
:0E38200003C0E0E4C0E0C0E0C0058A828B83F4
:0C382E008CF0123B4FE58124FBF581D0AB
:02383A00122258
:0A383C00C012858112C082C083C053
:0E384600F0900012121DB2AD82AE83AFF0C042
:0D38540005C006C0077409C0E0E4C0E0A88C
:0C3861001208E6C0E008E6C0E008E6C07F
:0E386D00E08D828E838FF01236D8E58124FB29
:0E387B00F581D007D006D00574092DFAE43E81
:0C388900FB8F048A828B838CF0A812084D
:0E389500E612456CA308E612456CA308E61285
:0E38A300456C740C2DFAE43EFB8F048A828B78
:0A38B100838CF074D512456CA374EB
:0C38BB003712456C740E2DFAE43EFB8FB2
:0C38C700048A828B838CF0749A12456C8A
:0C38D300A3743712456C74102DFAE43E0B
:0C38DF00FB8F048A828B838CF0749112A2
:0638EB00456CA3743712C6
:0C38F100456C8D828E838FF0851281D093
:0238FD00122295
:0A38FF00AA82AB83ACF07D007E00CE
:0E3909008A828B838CF0123CD9FFA3AA82AB7A
:0B39170083EF60070DBD00EA0E80E7A3
:053922008D828E83225E
:0A392700C012858112C082C083C067
:0E393100F0E5812407F581C2ACC28EC2AB4323
:0C393F00878053890F438920900C46E5D7
:0C394B00122404F8E0F6A3E008F6A3E064
:0C39570008F6A3E008F6E51224FCF88650
:0E39630003088604E4FAFD74C0C0E0E4C0E08E
:0E397100C0E0C0E08B828C838AF0ED123CF542
:0E397F00AA82AB83ACF0FDE58124FCF581C08B
:0C398D0002C003C004C005E5122404F8C9
:0E39990086820886830886F008E6121CB8AA0B
:0E39A70082AB83ACF0FDE58124FCF581C3E426
:0C39B5009AF58DD28EA81208742126FA13
:0E39C100E40836FB0886048A828B838CF012A1
:0C39CF0042B0A81208742A26FAE4083658
:0E39DB00FB0886048A828B838CF01242B0A80F
:0C39E9001208740A26FAE40836FB08866F
:0D39F500048A828B838CF0123CD9440112AD
:083A0200456CD2AC851281D0A5
:023A0A00122286
:0A3A0C00C012858112C082C083C081
:0B3A1600F0058105810581A81208E57C
:0C3A2100122404F9E6F70809E6F708098A
:073A2D00E6F7109802806526
:0C3A3400AD997E00A81208742126FFE462
:0E3A40000836FA088603C005C0068F828A8306
:0C3A4E008BF012435815811581A8120856
:0E3A5A00740A26FAE40836FB0886048A828B7A
:0E3A6800838CF0123CD90303540160258A823E
:0D3A76008B838CF0123CD954FB12456CA8D8
:0C3A83001208740B26FAE40836FB0886D3
:0A3A8F00048A828B838CF0124081C0
:063A9900109903023B49F5
:0C3A9F00E5122404F8742A26FAE4083624
:0E3AAB00FB0886048A828B838CF012446AAB7F
:0E3AB90082AD838B048D02BBFF23BDFF20E591
:0C3AC700122404F8740A26FBE40836FD03
:0E3AD3000886068B828D838EF0123CD944014A
:053AE10012456C80633A
:0C3AE6008C99E5122404F8740A26FAE416
:0D3AF2000836FB0886048A828B838CF01254
:083AFF003CD954FE12456CE5B0
:0C3B0700122404F8740A26FAE40836FBC5
:0E3B13000886048A828B838CF0123CD930E144
:0D3B2100278A828B838CF0123CD954FD1250
:0C3B2E00456CE5122404F8741626FAE435
:0D3B3A000836FB0886048A828B838CF0120B
:023B47004081BB
:063B4900851281D012225A
:0A3B4F00C012858112C082C083C03D
:013B5900F07B
:0C3B5A0012084FA81218181886057E00EB
:0C3B6600A81208742A26FFE40836FA08AA
:0D3B72008603C005C0068F828A838BF01287
:0E3B7F004358AA82AB8315811581EA4B606022
:0C3B8D00A81208740A26FAE40836FB08A7
:0E3B990086048A828B838CF0123CD94402127F
:063BA700456C1208B1A8F4
:0C3BAD001208741626FAE40836FB08869D
:0C3BB90004E51224F9F8E6C0E008E6C0BC
:0E3BC500E008E6C0E008E6C0E08A828B838C50
:0E3BD300F0123F3BAA82AB83E58124FCF58112
:073BE100EA4B7003023B5A9E
:053BE800900001805F68
:0C3BED001208B1A81208740A26FAE408B5
:0E3BF90036FB0886048A828B838CF0123CD93E
:0C3C070030E03FA81208742A26FDE408F3
:0E3C130036FE0886078D828E838FF0C002C0B9
:0E3C210003C00412446AAD82AE83D004D00307
:0A3C2F00D002BDFF05BEFF028010A9
:0E3C39008A828B838CF0123CD954FE12456CAB
:023C47008D9955
:033C4900900000E8
:063C4C00851281D0122256
:0A3C5200C012858112AA82AB83E53F
:0C3C5C001224FCF8E6C0E008E6C0E0C05E
:0E3C680002C003900FAD75F0001246F9E58121
:0A3C760024FCF58174ADC0E0740F6A
:0A3C8000C0E0E4C0E0740CC0E07482
:0C3C8A003AC0E0900004121A0FE58124FB
:0E3C9600FBF5817401C0E07408C0E0744EC0FC
:0E3CA400E07480C0E07425C0E0900FAD75F0B4
:0E3CB20000123927E58124FBF5817401C0E082
:0E3CC000E4C0E0900FAD75F00012458515814F
:0B3CCE001581900FAD75F000D01222A0
:03002E00758120B9
:0A003100124568E582600302008FAB
:0E3CD90020F71430F6148883A88220F507E641
:063CE700A8837583002292
:033CED00E280F77B
:033CF000E4932238
:023CF300E022CD
:0A3CF500C012858112C082C083C096
:0C3CFF00F0C0E0E5812412F581E51224FC
:0C3D0B0005F8740228F9AA120AC000A8EA
:0C3D1700028603D000E51224FAFCC00074
:0C3D2300E512240CF874022CF6D000C04D
:0C3D2F0000E512240CF886008606D00087
:0E3D3B008BF0EEA4F709A7F0A90487068BF021
:0C3D4900EEA4F608A6F0E5122405240301
:0C3D5500F88605E512240BF974032AF728
:0C3D6100E512240BF9870187078FF0EEB4
:0C3D6D00A42DF6860574022AF9C000E5BA
:0B3D7900122409F8E7F6D000C000E5B6
:0C3D840012240AF874012CF6D000C000D4
:0C3D9000E512240AF886008607D000C067
:0C3D9C0000E5122409F886F0EFA4D00026
:0C3DA8002DF6E51224052402F8C001E508
:0C3DB40012240DF9E6F708E609F718D014
:0C3DC0000187058DF0EEA4C0E0E51224A0
:0E3DCC000DF9D0E027FD09E735F0FFA6050848
:0C3DDA00A60718E512240DF9E6F708E62C
:0C3DE60009F71874012AF98705C000E5F0
:0C3DF20012240AF886008607D0008DF02D
:0C3DFE00EFA4C000C0E0E512240DF8D0D6
:0E3E0A00E026FD08E635F0FFD000A60508A66C
:0C3E1800078705E512240CF886008607D9
:0C3E24008DF0EFA4C0E0E512240BF8D0F4
:0E3E3000E08600F674012AF874012AF987056D
:0E3E3E008DF0EEA4F608A6F074032CF88605AD
:0E3E4C008BF0EDA4F674012CF874012CF987AC
:0E3E5A00058BF0EDA4F608A6F0A8047600A8EB
:0A3E6800027600E5122405F8E512C9
:0E3E7200240FF9E6F708E609F708E609F70855
:0C3E8000E609F7181818A91209870609AE
:0C3E8C008707098702098703E512240F4D
:0E3E9800F9EE27FEEF0937FFEA0937FAEB09CA
:0E3EA60037FBA60608A60708A60208A6031802
:0C3EB4001818E512240FF9E6F708E609DB
:0C3EC000F708E609F708E609F7E5122408
:0E3ECC00FAF88606088607088602088603E5CF
:0C3EDA0012240FF8EE26FEEF0836FFEA77
:0E3EE6000836FAEB0836FB8E828F838AF08551
:053EF4001281D0122232
:0A3EF900C012858112AA82AB83ACCF
:0E3F0300F074092AFDE43BFE8C078D828E834C
:0C3F11008FF0E51224FCF8E612456CA3CA
:0E3F1D0008E612456CE4C0E0C0E0C0E08A8215
:0E3F2B008B838CF01216D6158115811581D06E
:023F3900122252
:0A3F3B00C012858112C082C083C04D
:0C3F4500F012084FA81208740926FDE4D1
:0D3F51000836FE0886078D828E838FF012E1
:0D3F5E003CD9FAA3123CD9FB1ABAFF011B93
:0D3F6B008D828E838FF0EA12456CA3EB125D
:0C3F7800456C20E7091208B1900000021F
:023F8400407B80
:0C3F8600E51224FAF8E608460846084652
:0B3F920070091208B190000102407B92
:0A3F9D00744E2509FA7401350AFB81
:0B3FA700AC0B8A828B838CF0744212FA
:0A3FB200456C74292509FA740135E5
:0A3FBC000AFBAC0BC002C003C004F6
:0C3FC600A8120886820886830886F01284
:0C3FD200180E1581158115817432250927
:0A3FDE00FA7401350AFBAC0B8A826D
:0E3FE8008B838CF0E412456CA3E412456C74DC
:0A3FF6003B2509FA7401350AFBAC03
:0A4000000B8A828B838CF0A8120853
:0E400A00E612456CA308E612456CA308E61208
:0C401800456CE51224FAF8B6FF0E08B65D
:0C402400FF0A08B6FF0608B6FF0280265F
:0C403000E51224FAF8E6C0E008E6C0E063
:0C403C0008E6C0E008E6C0E085098285C7
:064048000A83850BF01253
:08404E00039AE58124FCF581D1
:094056001219FE1208B1743225A2
:08405F0009FA7401350AFBACFB
:0C4067000B8A828B838CF0123CD9FAA3E8
:08407300123CD9FB8A828B8309
:06407B00851281D0122223
:0A408100C012858112C082C083C006
:0C408B00F0E581240DF58112084FA81209
:0E40970008740926FDE40836FE0886078D82AF
:0E40A5008E838FF0123CD9FAA3123CD9FB0A8D
:0440B300BA00010B43
:0D40B7008D828E838FF0EA12456CA3EB1210
:0C40C400456CA8120886820886830886D6
:0C40D000F0123CD9FAA3123CD9FBA31259
:0C40DC003CD9FCA81208E6B5020D08E66D
:0B40E800B5030808E6B5040302425DC2
:0E40F30074062AFDE43BFE8C078D828E838FBF
:0C410100F0123CD9FDA3123CD9FEA31221
:0C410D003CD9FFE5122404F8A60508A622
:0E4119000608A6078A828B838CF01218C6E572
:0C412700122404F8E6C0E008E6C0E0083E
:0E413300E6C0E0900C2B75F000121957AD821B
:0E414100AE83AFF01581158115818D028E03BE
:0E414F008F04BA0009BB0006BC000302424701
:0E415D008A828B838CF0123CD9FDA3123CD9D0
:0E416B00FEA3123CD9FF8A828B838CF0C00524
:0E417900C006C0071218C6D007D006D005ED4C
:0A418700B42B0BEEB40C07EFB400EC
:04419100030242479C
:0E41950074062DFDE43EFE8D828E838FF012A7
:0A41A3003CD9FDA3123CD9FEA31283
:0C41AD003CD9FFE5122407F874372DF60A
:0C41B90074013E08F608A607E512240772
:0C41C500F886820886830886F0E5122444
:0E41D1000AF9123CD9F7A3123CD909F7A31240
:0B41DF003CD909F7A3123CD909F7E511
:0C41EA00122404F8743726FE7401083615
:0E41F600FF0886028E828F838AF0123CD9FE6B
:0C420400A3123CD9FFA3123CD9FAA3126C
:0C4210003CD9FBE512240AF8EE26FEEF74
:0C421C000836FFEA0836FAEB0836FBE52E
:0C422800122407F886820886830886F0BE
:0C423400EE12456CA3EF12456CA3EA12D9
:07424000456CA3EB12456C75
:0C4247007401C0E0E5122404F88682082F
:0A42530086830886F0120606158126
:07425D001208B1851281D0A7
:02426400122224
:0E426600AA82AB83ACF074072AFDE43BFE8C09
:0D427400078D828E838FF0123CD9FDA312BE
:0E4281003CD9FE74052AFAE43BFB8A828B834B
:0E428F008CF0123CD9FAA3123CD9FBEDB5021B
:09429D0008EEB503047401800170
:0142A600E433
:0942A700FD3395E08D82F58322C0
:0E42B000AA82AB83ACF074072AFDE43BFE8CBF
:0E42BE000774052AFAE43BFB8A828B838CF09E
:0E42CC00E412456CA3E412456C8D828E838F44
:0A42DA00F0E412456CA3E402456C09
:0A42E400C012858112C082C083C0A1
:0C42EE00F0E51224FCF886020886038A22
:0E42FA00828B83C002C003121DB2AF82AD835F
:0C430800AEF0D003D002A8120886820894
:0E43140086830886F0EF12456CA3ED12456C0F
:0C432200A3EE12456CA81208740326FDDF
:0E432E00E40836FE0886078D828E838FF0EA43
:09433C0012456CA3EB12456CA8BC
:0B434500120886820886830886F012AA
:0643500042B0851281D08D
:02435600122231
:0A435800C012858112C082C083C02C
:0C436200F0E581240AF581A8120874051A
:0E436E0026FDE40836FE0886078D828E838FBA
:0C437C00F0E5122406F8123CD9F6A3125A
:0A4388003CD908F6E5122406F8E51A
:0C439200122404F9740126F7E40836092F
:0C439E00F7A81208740326FCE40836FAA5
:0E43AA000886038C828A838BF0123CD9FCA318
:0C43B800123CD9FAE5122404F8C3E69C7C
:0C43C40008E69A4009E5122404F8E4F62B
:0243D00008F6ED
:0C43D200A81208740726FAE40836FB085D
:0E43DE0086048A828B838CF0123CD9FAA312DB
:0C43EC003CD9FBE5122404F8E6B50207FA
:0743F80008E6B50302800294
:0243FF00800537
:05440100900001805E47
:0C440600A8120886820886830886F0123F
:0A4412003CD9FAA3123CD9FBA31217
:09441C003CD9FCE5122406F8E588
:0C442500122408F9E62AF708E63B09F724
:0B44310009A704E51224FCF88602E550
:0C443C00122408F886820886830886F0A7
:0C444800EA12456C8D828E838FF0E51225
:0E4454002404F8E612456CA308E612456C90AD
:02446200000058
:06446400851281D0122236
:0A446A00C012858112C082C083C019
:0C447400F0E5812407F581A81208740708
:0E44800026FDE40836FE0886078D828E838FA7
:0C448E00F0E5122406F8123CD9F6A31247
:0A449A003CD908F6E5122406F8E507
:0C44A400122404F9740126F7E40836091C
:0C44B000F7A81208740326FCE40836FA92
:0E44BC000886038C828A838BF0123CD9FCA305
:0C44CA00123CD9FAE5122404F8C3E69C69
:0C44D60008E69A4009E5122404F8E4F618
:0244E20008F6DA
:0C44E400A81208740526FAE40836FB084C
:0E44F00086048A828B838CF0123CD9FAA312C8
:0C44FE003CD9FBE5122406F8E6B50207E5
:07450A0008E6B50302800280
:02451100800523
:0545130090FFFF804A4B
:0C451800A8120886820886830886F0122C
:0A4524003CD9FAA3123CD9FBA31204
:0C452E003CD9FCE5122406F8E62AFA0845
:0E453A00E63BFB8A828B838CF0123CD9FA8D13
:0C454800828E838FF0E5122404F8E61246
:0E455400456CA308E612456C7B008A828B83BF
:06456200851281D0122237
:044568007582002236
:0E456C0020F71030F6118883A88220F507F69C
:05457A00A88375830019
:01457F002219
:03458000F280F7CF
:02458300F02224
:0A458500C012858112C082C083C0FD
:0C458F00F0A812088605088606088607BA
:0C459B008D828E838FF0744312456CA853
:0C45A7001208740126FDE40836FE0886A8
:0D45B300078D828E838FF0744F12456CA827
:0C45C0001208740226FDE40836FE08868E
:0D45CC00078D828E838FF0744D12456CA810
:0C45D9001208740326FDE40836FE088674
:0C45E50007E51224FCF8860274302AFA64
:0C45F1008D828E838FF012456CA812089A
:0E45FD00740426FAE40836FB0886048A828BD2
:0C460B00838CF0E412456CA81208868233
:0A4617000886830886F0851281D022
:02462100122263
:0A462300C012858112C082C083C05E
:04462D00F012084F30
:0C463100A81208742126FDE40836FE08DB
:0E463D0086078D828E838FF012446AAA82ABAC
:0C464B00838A078B05BAFF66BBFF63A8DB
:0C4657001208740A26FEE40836FA0886F1
:0D466300038E828A838BF0123CD94404122E
:06467000456C1208B1A820
:0C4676001208740B26FAE40836FB0886D4
:0C46820004E51224FAF8E6C0E008E6C0E7
:0E468E00E008E6C0E008E6C0E08A828B838C7C
:0E469C00F0123F3BAA82AB83E58124FCF5813E
:0946AA00EA4B600590FFFF801748
:0646B30012084F0246311F
:0E46B900C005C0071208B1D007D0057D008FE4
:0346C700828D835E
:0646CA00851281D01222CE
:0E46D000AA82AB83ACF074212AFAE43BFB8A89
:0E46DE00828B838CF0124266AA82AB83EA4B79
:0346EC00B4010016
:0A46EF00E433FA7B008A828B8322F9
:0A46F900C012858112C082C083C088
:0C470300F07433C0E0E4C0E0E4C0E0A8C3
:0B470F00120886820886830886F012DC
:0C471A001D47158115811581E51224FC56
:07472600F8E60846B40100AB
:0B472D00E433FD60067D207E00800A62
:0A473800E51224FCF8860508860649
:0C474200A81208742A26FFE40836FA08C2
:0D474E008603C005C0068F828A838BF0129F
:0C475B0042E415811581E51224FAF8E60D
:054767000846B401004A
:0B476C00E433FA60067A807B00800ACC
:0A477700E51224FAF8860208860312
:0C478100A81208742126FCE40836FD088C
:0D478D008606C002C0038C828D838EF01260
:0C479A0042E415811581A81208740B265A
:0E47A600FAE40836FB088604E4C0E0C0E08AAE
:0D47B400828B838CF0123EF915811581A8CF
:0C47C1001208741626FAE40836FB08867D
:0D47CD0004E4C0E0C0E08A828B838CF0120F
:0A47DA003EF915811581851281D08A
:0247E40012229F
:0A47E600C012858112AA82AB83ACD9
:0B47F000F0FD05817E00A81208760095
:0C47FB00E51224FA040404F8E62354013B
:0C480700FF704DE51224FAF8E625E0F6FB
:0D48130008E633F608E633F608E633F6E56E
:0C4820001224FAF8C3EA96EB0896EC08A4
:0C482C0096ED0896501AE51224FA0404D8
:0E48380004F8E6C313F618E613F618E613F6B6
:0648460018E613F6800BDA
:0A484C00A8120806A81208860680CC
:01485600A4BD
:0C485700E51224FAF8C3EA96EB0896EC90
:0C4863000896ED08964015E51224FAF8BE
:0E486F00EAC396FAEB0896FBEC0896FCED08FF
:02487D0096FDA6
:0C487F00E51224FA040404F8E6C313F662
:0E488B0018E613F618E613F618E613F68E0775
:0C4899001EEF70BA8A828B838CF0ED85D4
:0548A5001281D0122277
:0A48AA00C012858112058105810509
:0C48B40081AA82AB83ACF0E51224F9F875
:0B48C000E60846700690000002496AFE
:0C48CB00E51224FBF88605088606088626
:0A48D70007E51224F9F8A91209E61A
:0548E100F70809E6F7ED
:0C48E600A81208E624FFF608E634FFF6EE
:0C48F200A81208E6084660498A828B8301
:0C48FE008CF0A812080808123CD9F6A89B
:0C490A0012080808E66032C002C003C0BA
:0C491600048D828E838FF0123CD9FAA829
:0C49220012080808E6B5020474018001C8
:01492E00E4A4
:0D492F00D004D003D002600C0ABA00010BC6
:07493C000DBD00A60E80A3D3
:0E4943008A828B838CF0123CD9FA3395E0FB0C
:0E4951008D828E838FF0123CD9FD3395E0FCF1
:0B495F00EAC39DFAEB9CFB8A828B836D
:06496A00851281D012222B
:00000001FF
