:03000000020AAC45
:100AAC00787FE4F6D8FD7581570205B07816D285AB
:100ABC007913D9FEC2857913D9FED8F2780BC28589
:100ACC007913D9FEC2857913D9FED8F222780BD2CC
:100ADC00857913D9FEC2857913D9FED8F27816C25E
:0E0AEC00857913D9FEC2857913D9FED8F2227E
:100422003D20005265736574004572726F72200040
:100432005345542000203D2000466F726D617400C8
:1004420048616C7400474F200045415354005745A2
:1004520053540057500053544F502000464F5200FF
:10046200474F00504F5300524543414C0052414EBA
:100472004745004F46462045004F46462057004913
:100482004E2000474F53415420004F555420003F07
:1004920000560956657273696F6E00510951756590
:1004A200727900480953746F70004509456173748D
:1004B200005709576573740050094D6F76650053F4
:1004C200095361766520736174004709476F746F41
:1004D20020736174005809526573657400520952A1
:1004E2006563616C2E004609466F726D617420442B
:1004F2004200440944756D70204442004D0944692C
:1005020053457143204D6F6E69746F72004C0953ED
:10051200657420666C61670041095365742044422A
:10052200206164640049095244204442004F095743
:10053200522044420057726974650052656164003A
:1005420044656300486578004D6F6E69746F720090
:10055200460050004857204500485720570053573F
:1005620020450053572057004449534551432031F9
:100572002E322F525332333220506F736974696FA7
:100582006E657220312E303020245265766973698F
:100592006F6E3A20312E362024003031323334351A
:0E05A2003637383941424344454600000000D8
:100E7C00E5162532F532E5153531F53122AB05AAEB
:090E8C0004120CD9AF03AE0222DE
:080003003099FDC2998F99228A
:100E2B00AD07AC068D828C83E49360100DED7001E1
:0D0E3B000C14F582E493FF12000380E822FE
:0A0F90007F0D1200037F0A02000328
:060FBA00120E2B020F9045
:100EC100E4FEEE90059C93B50703AF06220EBE101B
:040ED100F17F00228B
:0B0F7A00EF540F90059C93FF02000352
:0F0F1B00AE07EEC4540FFF120F7AAF06020F7A23
:0E0F2A00AD07AC06AF04120F1BAF05020F1B84
:100DD100AB07AA06E4FFC3EB9DEA9C4009EB9DFB30
:0E0DE100EA9CFA0F80F0120F7AAE02AF0322E6
:100E95007E007D647C00120DD17E007D0A120DD18D
:070EA5007E007D01020DD16A
:100DB2007D107C27120DD17DE87C03120DD17D645C
:0F0DC2007C00120DD17D0A120DD17D01020DD1E1
:100CD900AD07AC06E4FEED2EF582E43CF583E49322
:100CE900FF60061200030E80ED0EEEC3941050074C
:0E0CF9007F2012000380F27E047F22020E2B69
:080EE8007E047F75AD3AAC39C0
:090EF000120E89120DB2020F90DE
:090F9A00120E89120F2A020F90B9
:1007EE007E047F25120FBAC2AF9005AD120C0D021A
:0207FE000C3FAE
:100E6300C2AFEB70010B8F418F3BAF058F548F40A7
:090E73008B33C212D282D2AF22ED
:100D2F00A9077E047F2B120E2BAF01120E95120F07
:100D3F0090AD017B1E7F05120E63D283C297C296C0
:020D4F0080F82A
:100DEF00120E0C120E0C120E0C120E0C120E0CD246
:0D0DFF0086120E0C120E0C120E0C120E0CB1
:010E0C0022C3
:100D51007F08E4FED287120DEFEE25E0FE30870119
:100D61000EC286DFF1A2209287120DEFC286AF0676
:010D7100225F
:100D07007E09C286EF30E703D38001C39287EF25C0
:100D1700E0FF120DEFDEEBD287120E00A2879221C1
:080D2700C286A221E433FF2281
:100EF900C287120DEFD287120E0CA287B3E433FF1B
:010F090022C5
:0D0F5400D287120DFEC287120E00C2862247
:100CA900AD07AC06ED7807CEC313CE13D8F9540EB1
:100CB900FFA222E43344A04207120F54120D07EF9A
:100CC90060037F0122202205AF05020D077F002264
:100BD300AB05AA048F828E8379FFAF82AE83C222D4
:100BE300120CA9EF6008120EF9D9EF7F0122AF02B0
:100BF300120D07EF60028008AF03120D07EF6006C6
:0A0C0300120EF97F0122120EF922F1
:100A5C00AB07AA06C21679FFAF03AE02C222120C74
:100A6C00A9EF6007120EF9D9EF800FAF03AE02D2D7
:100A7C0022120CA9EF600A120EF9D2167E007F0129
:100A8C0022C220120D51AB07EB7B00FAD220120DC3
:100A9C0051EFFB120EF9EF24FF9216AE02AF0322B8
:100E4800EF25E0FFEE33FE120A5C8E178F1830167E
:0B0E5800057F05120D2FAE17AF18220A
:100ED500EF25E0FFEE33FE120BD3EF60057F051221
:030EE5000D2F22AC
:100C78008C198D1AA9077E047F32120E2BAF011230
:100C88000E957E047F37120E2BAF1AAE19120DB2D5
:100C9800120F90E429FFE43401FEAD1AAC19020EDC
:010CA800D576
:0B0F8500E42FFFE43401FE120E4822AE
:0C0F6E007F077E00120E488F208E21228B
:070FB300E521FEE520FF220D
:0E0F3800120FB3AC06AD077F077E00020ED588
:100B8F007E047F3B120FBA751B04751C00E51C1504
:100B9F001C7002151B14FFAE1BE4FDFC120ED5E5F5
:100BAF001C451B70E8752001F5217DAA7C55FFFEC1
:100BBF00120ED57D017C007F017E00120ED5120F23
:040BCF00380207EEF3
:03000B000208DF09
:1008DF00C0E0C0D075D008C28C758CF8758ADFD295
:1008EF008CA294301401B34023E5346026D5342311
:1008FF0075280AD21030050A053DE53D7015053CF7
:10090F008011E53D153D700B153C8007A2949214A4
:10091F0075340A0525E55360021553E54560021548
:10092F00451552AF52EF7037755264E528600215C6
:10093F0028E53860021538E5306005208302153050
:10094F0020121CD53B1985413B308204C282800F97
:10095F00D5400AE55404F54085333B8002D282D05E
:04096F00D0D0E032D2
:100EAC00AD071FED600EE4FEEEC3940F50F2120E70
:050EBC000C0E80F42281
:080FA300753802E53870FC22EC
:100B46007C09D21C75530AE55370037F012220935A
:100B5600F67F07120EAC309304D21D8002C21D7FB1
:100B660004120EAC1CEC6013E52D25E0F52D301DAE
:100B7600D3432D01A21CB3921C80C9A21D301C01B7
:090B8600B350037F02227F00221C
:100D7200E4F52F120B46EF7014AF2F052F744A2F94
:100D8200F8A62DE52FC3940840E97F00227F0022B8
:100E0D00208318D283C297C296120FA3C284D20731
:0E0E1D00C218C2177E047F42120FBAC204220E
:030FAB00120E0D16
:050FAE00E52870FC22A3
:100AFA0020830BA284302301B35040120FABD212D1
:100B0A00C282D204C203C201302306D296D2058021
:100B1A0004D297C205A2239284120FA375280AC28F
:100B2A00837E047F47120E2B2023067E047F4B8090
:0C0B3A00047E047F50120E2B120F90223C
:0E0F4600C2AFAF3DAE3C302402C210D2AF228B
:10080000E4F51F301027308324E5287020C224121D
:100810000F46AC06AD077E047F55120EF0D22412AF
:100820000F46AC06AD077F027E00120ED5C2AF2088
:10083000130201BF30830201BFE5287005D20175A4
:100840001F0120053EC3E53D952CE53C952B500549
:10085000D201751F02300616E54945486010C3E510
:100860003D9549E53C95485005D203751F03301767
:100870004ED3E53D953FE53C953E5043D207751F6D
:1008800004803CD3E53D9527E53C95264005D20103
:10089000751F05300616E54345426010D3E53D95CA
:1008A00043E53C95424005D203751F06301710C33F
:1008B000E53D953FE53C953E4005D207751F07D2C3
:1008C000AFE51F6019120E0D7E047F58AD3DAC3CA4
:0F08D000120EF07E047F5EAD1F7C00120EF02230
:100973008E1D8F1E7E047F62AD1EAC1D120EF0C253
:1009830024120F46AC06AD077E047F65120EF012EB
:100993000FABC224120F46EFB51E07EEB51D03D2EF
:1009A3000722C3E51E952CE51D952B400BD3E51EB1
:1009B3009527E51D95264005D201D20722C207C21D
:1009C30024120F46E51E253AFDE51D3539FCC3ED1E
:1009D3009FEC9E500A8C3E8D3FD217C223801FC2CC
:1009E30024120F46C3E51E9537FDE51D9536FCD34E
:1009F300ED9FEC9E400B8C3E8D3FD217D223020A13
:040A0300FAD20722FA
:100F0A0012097330040512080080F8120FAE0208A5
:010F1A0000D6
:1006D5007E047F69120FBA120E0D120FAEC213C23D
:1006E500231207E4E4F53CF53DD2231207E4853CEB
:1006F50010853D117E047F6FAD3DAC3C120EF0E5DB
:100705003D453C70057F02120D2FD3E53D9400E574
:100715003C948040057F03120D2FE53CC313F53C47
:10072500E53D13F53DC3E4953DF52C7480953CF509
:100735002BE4253DF527E53C3480F526AD2CAC2B87
:100745007F057E00120ED5AD27AC267F067E0012F2
:100755000ED57D007C80E4FF120C78E4253DF53D47
:100765007480353CF53CD213E4F539F53AF536F5A8
:1007750037FF7E80120F0AE511AE107803CEC31342
:10078500CE13D8F9FFC3E49FF51374809EF512AF1D
:1007950013FE120F0AC224120F46C3E5139FF53A42
:1007A500E5129EF539AD3AFC7F087E00120ED51292
:1007B5000EE87F007E80120F0AC224120F46E42F36
:1007C500F537EE3480F536AD37FC7F097E00120E25
:1007D500D57E047F7BAD37AC36120EF00207EE12E4
:0907E5000AFA120FAE120E0D22E9
:100C45008F56755709D21ED55706A21E921F8013BF
:100C5500E55633921FA21F301E01B3921EE556259D
:100C6500E0F556301F05120AD98003120AB8E55778
:030C750070D52215
:100D9200AB05120E2BE4FDEDC39B5011744A2DF8E6
:100DA200E6FF120F1B7F201200030D80EA020F9054
:10027E00C219C21A209304E4F52522E525C3940A77
:10028E0050028117120D72EF60028117E52FC39491
:10029E000350028117E55560127E047F81AD2F1247
:1002AE000D92E555D3940140028117E54A54F0644E
:1002BE00E060028117E54A30E2028117D212C28253
:1002CE00E54B64316008E54B643060028117E54A06
:1002DE00A2E1921B754AE4E54C120C1903E90003E6
:1002EE00E90103E90203E903032011032760032C4C
:1002FE0063033264033966034867035C68035C6911
:10030E0003B46A03CE6B03E66F0000031B434A017E
:10031E0061E9754B20D21961E9120E0D61E9C20631
:10032E00D21A61E985204BD21961E91204188E4860
:10033E008F49AD49AC487F03800D1204188E428F51
:10034E0043AD43AC427F047E00120ED561E9E4F961
:10035E00E52FD39402401CC218E54D601630E70518
:10036E00F404F9800ED218E54D2402FF33333354D2
:10037E00F8F530E54CB46816E9600FC224120F464A
:10038E00FDC3EF9DFFEE94008012C2238013E9603F
:10039E000EC224120F467C002FFFEC3EFE8034D29C
:1003AE0023120AFA8035D206D21AE54D602DC224E8
:1003BE00120F46AC06AD07AF4D120C78C200801B73
:1003CE003083187E047F85AD4D7C00120EF0AF4D4C
:1003DE00120F8512097380031206D5301B25200ECD
:1003EE00227E047F8C3019047D0180027D00ED0495
:1003FE00FD120D92AF4A120C45301905AF4B120C7F
:10040E0045C285301A03120F3822D206D21AC224E0
:04041E00120F462251
:10000E002098024173859914C298AF14120003E52B
:10001E0014B41B06120F90C2152220150F85142E34
:10002E00D215E4F531F532F546F54722E514640DA7
:10003E00604BE53225E0F516E53133F515F53185E2
:10004E001632E51625E0F516E51533F515120E7C7C
:10005E00120E7CE547C4F8540FC868F547E546C450
:10006E0054F048F546AF14120EC1EF424774D02536
:10007E0014F5142532F532E43531F53122120F9094
:10008E00C215E52E120C1900D53F014B4102384422
:10009E00021045023546022747020D480168490104
:1000AE00B14C01944D01524F02195001BB51023215
:1000BE0052021F5301AA56021457022F5800000075
:1000CE00CF7E047F9121AE7E047F93120FBA7E0401
:1000DE007F9D120FBA7E047FA5120FBA7E047FACED
:1000EE00120FBA7E047FB3120FBA7E047FBA120FBC
:1000FE00BA7E047FC1120FBA7E047FCC120FBA7E75
:10010E00047FD7120FBA7E047FDF120FBA7E047FF0
:10011E00E8120FBA7E047FF4120FBA7E047FFE122D
:10012E000FBA7E057F0F120FBA7E057F1A120FBA15
:10013E007E057F27120FBA7E057F2F8063853129BA
:10014E0085322A227E057F37AD2AAC29120EF0ADFC
:10015E0032AC31AF2AAE29120ED5AF2AAE29120E0D
:10016E00488E318F327E057F3DAD2AAC29120EF0BE
:10017E007E057F42AD32AC31120EF07E057F46AD6C
:10018E0032AC31020F9A0555E555D394024003E483
:10019E00F5557E057F4AAD557C0080607E057F6AF1
:1001AE00020FBA854720E546F521020F38120FB32C
:1001BE00AC06AD077E057F52120F9A1202747E05B1
:1001CE007F54120EF07E057F56AD2CAC2B120EF026
:1001DE007E057F5BAD27AC26120EF07E057F60ADEF
:1001EE0049AC48120EF07E057F65AD43AC42120E4F
:1001FE00F0120EE87E047F7BAD37AC36020EF002B5
:10020E000E0DC2238002D223020AFAAF32AE318023
:10021E000D120274AF32020C78AF32120F85020942
:10022E00730207EE0206D5020B8FE4F514AF14121B
:10023E000F858E158F16E516F47003E515F4601F05
:10024E00E516451560197F23120003AF14120E95A3
:10025E007F3D120003AF16AE15120DB2120F9005B0
:10026E0014E51470C822C224120F46AC06AD072244
:0D0F6100E4FF2080010F20810343070222DE
:100A0700120F61AB07EB700F300408300F05C20FF0
:100A1700120E0DE4F54422EB654460067545648BC0
:100A27004422E545702EE54414601C14601F1470C1
:100A370023753832E5386008120F61EF640360F4FC
:100A4700E53870100206D5D20FC2238004D20FD228
:050A570023120AFA223F
:1005B000C2AF7584237585647591187592C0758076
:1005C000FF7590FFD286C285D283C284C297C2963D
:1005D000758780758921758CF8758ADF758DF4753E
:1005E0009850D2A9D28CD28ED299A2949214D212BF
:1005F000D2827E057F6A120FBAE4FFFE120E48BE59
:100600005510BFAA0D7F017E00120E48EF64014E07
:100610006003120B8FD2AF7F057E00120E488E2B27
:100620008F2C7F067E00120E488E268F277F037E3A
:1006300000120E488E488F497F047E00120E488EAD
:10064000428F43120FA37F027E00120E488E3C8F12
:100650003DC2107F087E00120E488E398F3A7F0906
:100660007E00120E488E368F37120F6E5320415384
:100670002140C211D3E52C9527E52B95265020E586
:10068000274526601AE52C452B6014E527F47003F6
:10069000E526F4600AE52CB4FF0BE52BB4FF06D287
:1006A00011C2138002D2133011047F0280027F0A2C
:1006B000E4FB7D0A120E6312080012000E120A07F4
:1006C00020110312027E3018EE2083EBE53070E734
:0506D000120E0D80E296
:0C0C0D00E493FB740193FA740293F92243
:100C1900D083D082F8E4937012740193700DA3A36A
:100C290093F8740193F5828883E47374029368607E
:060C3900EFA3A3A380DF7E
:060C3F008A838982E47340
:00000001FF
