:0600000002002E02008F39
:03000B000200955B
:0300130002009B4D
:03001B000200A13F
:030023000200A731
:03002B000200AD23
:0300870002008AEA
:05008A001200C980FE18
:06008F0075600002044B45
:0600950075600102044B3E
:06009B0075600202044B37
:0600A10075600302044B30
:0600A70075600402044B29
:0600AD0075600502044B22
:0B00B300E591759100E5927592FF2227
:0B00BE00AA4D7B007C007D008A82229E
:0E00C9007A01758280C00212036CD002C00260
:0E00D7001200B3D002C0027402C0E0E4C0E028
:0E00E500900002121C1EAB82AC83ADF01581A0
:0D00F3001581D0028B828C838DF0C002122B
:0E010000167BAB82AC83ADF0D002900000EB1A
:0E010E00F0A3ECF0A3EDF08B828C838DF0C09B
:0E011C0002120166D002902A7975F080C002AE
:05012A00120177D00274
:0E012F00EAF59025E0FA700F7A01902A957596
:09013D00F080C002120177D0022B
:0D014600C0021200BEE582D002900003F05E
:0E015300C0021200BEAB82D002900003E0FC9E
:05016100B503CB80EDA9
:0E2A79004C50433930302052542054696E794D
:0E2A8700206D656D6F72792020312E300A00AF
:072A950048697420210A00CA
:06005D00E478FFF6D8FD77
:0E016600AAF0AB83E582900045F0A3EBF0A376
:03017400EAF0228C
:0A017700C00AE581F50A2406F581AF
:0E018100AA82AB83ACF0900045E0FDA3E0FE47
:0D018F00A3E0FFBD0009BE0006BF00030293
:02019C00023827
:0C019E00E50A2404F8A60208A60308A63F
:0101AA000450
:0C01AB00E50A2404F88682088683088692
:0A01B700F0121CA5FD7003020238CF
:0C01C100900045E0FBA3E0FCA3E0FAA8DE
:0C01CD000A0874082BF6E43C08F608A6AB
:0C01D90002A80A0886820886830886F0C7
:0A01E500121CA5FEA3121CA5FFE5E5
:0C01EF000A2404F8740126F6E40836F631
:0E01FB0074052BFBE43CFC8B828C838AF01293
:0A0209001CA5FBA3121CA5FCA31208
:0C0213001CA5FAC006C007C005742FC06F
:0C021F00E07402C0E0C006C0078B828CB7
:04022B00838AF022B0
:09022F001581D007D0060201ABD5
:06023800850A81D00A22B4
:08003B007900E94400601B7A22
:0500430000902AA678E0
:03004800D675A0CA
:0A004B0001E493F2A308B8000205D7
:08005500A0D9F4DAF275A0FF56
:080063007800E84400600A790E
:03006B000075A07D
:06006E0000E4F309D8FCD8
:0800740078D6E84401600C7924
:0B007C0002900000E4F0A3D8FCD9FAC9
:03023E00D2AF221A
:03024100C2AF2227
:0702440030AF047A018002D3
:02024B007A0037
:07024D007B008A828B8322F3
:06025400C082C0832222DB
:06025A007560FF02044B79
:0A026000C28C85098C85088AD28CB7
:01026A002271
:0A026B00C00A85810AC082C0830525
:0D02750081058105817407C0E0E4C0E0A8A8
:0C0282000A088682088683122578AC8268
:0C028E00AD8315811581EC240DFCED34CE
:0A029A0000FDA80A080808A60408E1
:0E02A400A6050876007407C0E0E4C0E0E4C0E0
:0C02B200E0A80A08080886820886830875
:0C02BE0086F012102D158115811581A805
:0C02CA000A08080886820886830886F06F
:0C02D600E50A24FCF9E712255FA309E704
:0C02E20012255FA80A080808740226FF15
:0E02EE00E40836FA0886038F828A838BF0E5D7
:0C02FC000A24F9F8E612255FA308E612B8
:09030800255FA308E612255FA899
:0C0311000A080808740526FAE40836FB08
:0C031D00088607A80A0886048A828B83E1
:0C0329008FF0EC12255FA80A0808087489
:0E0335000626FAE40836FB0886058A828B83CA
:0C0343008DF0EC12255FA80A080808865F
:0B034F00820886830886F0850A81D0B2
:02035A000A2275
:08035C009001D6229055AA225F
:08036400902AA6229055AA225E
:0E036C00AA8275A800C0027438C0E0E4C0E0A8
:0E037A00E4C0E090000D75F00012102D15810A
:0E03880015811581D002E4FBC0E0C0E0E4C0A6
:0E039600E0C0E08A828B83121437E58124FCDC
:0903A400F58175570075581B75B1
:0603AD0059B7755A0075F6
:0603B3005B40755C427521
:0A03B9005D0F755E0074E8C0E0748B
:0C03C30003C0E0E4C0E0C0E0855B828580
:0603CF005C83855DF0E592
:0C03D5005E1204ECAA82AB83ACF0FDE5E4
:0E03E1008124FCF581740AC0E0E4C0E0C0E0B5
:0E03EF00C0E08A828B838CF0ED121CC1AA82C2
:0C03FD00AB83ACF0FDE58124FCF5818AA7
:04040900088B09E56E
:05040D0008F4F508E50C
:0504120009F4F50905E5
:0604170008E4B50802052F
:01041D0009D5
:0E041E00758901120260C28DD2A9D28CE4C091
:0A042C00E0C0E0C0E0745BC0E074C3
:0C0436000BC0E090000112026BE5812475
:09044200FBF581758201020A3804
:0E044B00C0D0A2AFC2AFC0D0C0E0C0F0C0822F
:0E045900C083C007C006C005C004C003C002B7
:0A046700C001C000C00A120E12E529
:0504710064B56107E520
:0604760065B56202804F33
:07047C00856182856283782F
:0304830067A9580E
:0E048600E6F0A3D9FBC374113582F582740031
:060494003583F5837911A8
:0B049A00D0E0F0E582158270021583AF
:0A04A500D9F3E581F08564828582B9
:0604AF0061856583858371
:0504B500627867A95800
:0B04BA00E0F6A3D9FBE0F581A3791167
:0604C500E0C0E0A3D9FA3B
:0C04CB00D00AD000D001D002D003D00431
:0E04D700D005D006D007D083D082D0F0D0E080
:0704E500D0D092AFD0D0325D
:0A04EC00C00A85810AC082C083C0E7
:0D04F600F0C0E07E007F007A007B007C20DB
:0C050300A80A08080808E6235401FD249B
:0A050F00FF9200A80A08E625E0F6B6
:0E05190008E633F608E633F608E633F6EE2E73
:0C052700FEEF33FFEA33FAEB33FB300049
:040533000343060177
:0C053700E50A24FAF8C3EE96EF0896EAF5
:0C0543000896EB0896401CE50A24FAF824
:0E054F00EEC396FEEF0896FFEA0896FAEB0858
:09055D0096FBA80A08E64401F629
:0C056600DC9BA80A0886820886830886B1
:09057200F008E6850A81D00A2296
:0A057B00C00A85810AC082C083C057
:0B058500F0E5812410F581A80A08E5CC
:0C0590000A2404F9748E26F7E4083609EA
:0A059C00F70809E6F7AA45AB467C14
:0C05A600007D00C002C003C004C005E5D9
:0C05B2000A24FAF886820886830886F086
:0E05BE0008E61204ECAA82AB83ACF0FDE581E6
:0C05CC0024FCF581E50A2404F88682086E
:0E05D80086830886F0EA12255FA3EB12255FEA
:0B05E600A3EC12255FA3ED12255F902F
:0705F1000182E53CF0A3E5E7
:0605F8003DF0A3E53EF01A
:0C05FE00900182E50A240EF8E0F6A3E06C
:0C060A0008F6A3E008F6E50A240EF8E666
:0A061600B43C0D08E6B4000808E645
:06062000B440030207CD07
:0C062600E50A240EF8740626FDE40836F0
:0C063200FE0886078D828E838FF0E50A9B
:0E063E002407F8121CA5F6A3121CA508F6A3AB
:0B064C00121CA508F6E50A2407F89030
:0D0657000185E6F008A3E6F008A3E6F0E553
:0C0664000A2404F886820886830886F0C9
:0B067000121CA5FAA3121CA5FBA3128C
:09067B001CA5FCA3121CA5FDE561
:0C0684000A2407F8748E26F6E40836F607
:0C069000E50A2407F886820886830886A5
:0C069C00F0E50A240AF9121CA5F7A312CD
:0C06A8001CA509F7A3121CA509F7A3125A
:0C06B4001CA509F7E50A240AF8C3EA9621
:0C06C000EB0896EC0896ED08964058E513
:0C06CC000A2404F886820886830886F061
:0B06D800121CA5FDA3121CA5FEA3121E
:0906E3001CA5FFA3121CA5FAE5F9
:0C06EC000A240AF8EDC396FDEE0896FE05
:0C06F800EF0896FFEA0896FAE50A2404D1
:0E070400F886820886830886F0ED12255FA332
:0C071200EE12255FA3EF12255FA3EA1290
:05071E00255F0207A4A5
:0C072300E50A2404F88682088683088614
:0C072F00F0121CA5FDA3121CA5FEA312D5
:09073B001CA5FFA3121CA5FAE5A0
:0C0744000A240AF8E6C39DFD08E69EFEAC
:0C07500008E69FFF08E69AFAE50A240775
:0E075C00F886820886830886F0ED12255FA3DA
:0C076A00EE12255FA3EF12255FA3EA1238
:0C077600255FA80A08747826FAE408360B
:0C078200FB088604C002C003C004E50AA6
:0E078E00240EF886820886830886F012188AE8
:08079C00158115811581804CC7
:0C07A400E50A240EF88682088683088689
:0C07B000F0121CA5FAA3121CA5FBA3125A
:0E07BC001CA5FC900182EAF0A3EBF0A3ECF088
:0307CA000205FE27
:0C07CD00A80A08747826FAE40836FB0835
:0E07D9008604C002C003C00490003C75F040CE
:0907E70012188A15811581158193
:0607F000850A81D00A22F7
:0A07F600C00A85810AC082C083C0DA
:0C080000F0058105810581A80A087495A7
:0E080C0026FDE40836FE0886078D828E838F57
:0B081A00F0744112255FA80A08E6B444
:0A082500E50C08E6B4000708E6B48D
:04082F000002800241
:02083300800340
:03083500020A3282
:0C083800C005C006C007A80A08749B2673
:0E084400FAE40836FB0886048A058B068C074A
:0E0852008D828E838FF0121CA55401D007D02A
:0E08600006D005603F8A828B838CF0121CA5A7
:0E086E0054FE12255F8D828E838FF07450121F
:0C087C00255FA80A08747826FAE4083604
:0E088800FB088604C002C003C00490002A755D
:0E089600F0401217CC158115811581020A322F
:0C08A400A80A08748B26FAE40836FB084A
:0D08B00086048A828B838CF0121CA5FA90BE
:0A08BD00018EF0748B2561FBE43519
:0A08C70062FCAD638B828C838DF020
:0908D100121CA5FB90018FF0A898
:0C08DA000A181818E6600DC3EB9A4013D2
:0808E600785FE64401F6800B87
:0B08EE00C3EA9B5006785FE64401F669
:0808F900900188E533F0A3E54E
:0609010034F0A3E535F01F
:0C090700900188E50A2404F8E0F6A3E063
:0C09130008F6A3E008F6E50A2404F8E664
:0A091F00B4330D08E6B4000808E642
:06092900B44003020A0FB6
:0C092F00C002E50A2404F8740626FEE469
:0D093B000836FF0886028E828F838AF01234
:0A0948001CA5FEA3121CA5FFA312BC
:0E0952001CA5FA90018BEEF0A3EFF0A3EAF0E3
:0E096000748B2EFEE43FFF8E828F838AF0128E
:0A096E001CA5FB90018FF0D002A839
:0C0978000A181818E66032C3EB9A405EC3
:0C098400A80A08747826FEE40836FF0874
:0C0990008603C006C007C003E50A24046B
:0E099C00F886820886830886F012188A158174
:0709AA0015811581020A32DC
:0C09B100C3EA9B502CA80A08747826FBAF
:0E09BD00E40836FC088605C003C004C005E54A
:0C09CB000A2404F886820886830886F05F
:0B09D70012188A1581158115818050CF
:0E09E200900188E0FBA3E0FCA3E0FD8B828C7B
:0E09F000838DF0121CA5FBA3121CA5FCA31204
:0E09FE001CA5FD900188EBF0A3ECF0A3EDF03A
:030A0C00020907D5
:0C0A0F00A80A08747826FAE40836FB08F0
:0E0A1B008604C002C003C00490003375F04092
:090A290012188A1581158115814E
:060A3200850A81D00A22B2
:080A3800E582FA600302023EB0
:030A40000202416E
:0D0A4300120244E5828583F045F060071241
:060A5000024190000122AA
:070A56001202419000002292
:0A0A5D00749C2561FAE43562FBACDD
:0C0A6700638A828B838CF0121CA5FD7446
:0E0A7300012DFE8A828B838CF012255FED70C0
:0A0A81003A749B2561FAE43562FB2C
:0C0A8B00AC63C002C003C004120A43ADFB
:0E0A970082AE83D004D003D0028A828B838C7F
:0E0AA500F0ED2D5402C0F0C0E0121CA5D0F000
:090AB30054FD45F0D0F002255F6E
:010ABC002217
:0A0ABD00749C2561FAE43562FBAC7D
:0C0AC700638A828B838CF0121CA5FD1D3D
:0E0AD3008A828B838CF0ED12255F701D749B60
:080AE1002561FAE43562FBAC6B
:0C0AE900638A828B838CF0121CA50354DE
:070AF50001FAF582020A3844
:010AFC0022D7
:070AFD00785FE654FDF622CC
:070B0400785FE64402F622CF
:0E0B0B00AA82AB83ACF0FDC002C003C004C0E0
:0E0B190005120A5DD005D004D003D0027495F9
:080B27002561FEE43562FFA820
:0C0B2F00638E828F8388F0745712255F5C
:0C0B3B00C002C003C004C00585618285B3
:060B470062838563F012D9
:0C0B4D00057BE58124FCF58112025A02B0
:020B59000ABDD3
:0A0B5B00C00A85810A0581058105A5
:060B650081AA49AB4AAC75
:0A0B6B004BAD4C0ABA00090BBB00A9
:060B7500050CBC00010D9F
:050B7B008A498B4A8C41
:040B80004B8D4CE568
:0A0B84005524FFFAE55634FFFB8A02
:080B8E00558B56EA4B7042AA98
:040B960047AB488A97
:040B9A00558B56AA77
:040B9E004DAB4EAC61
:0A0BA2004FAD500ABA00090BBB006A
:060BAC00050CBC00010D68
:050BB2008A4D8B4E8C02
:040BB7004F8D50AA64
:040BBB0051AB52AC3C
:0A0BBF0053AD540ABA00090BBB0045
:060BC900050CBC00010D4B
:050BCF008A518B528CDD
:030BD400538D54EA
:0A0BD700748C2561FAE43562FBAC72
:0C0BE100638A828B838CF0121CA56020BC
:0A0BED00748C2561FAE43562FBAC5C
:0C0BF700638A828B838CF0121CA5FD1D0C
:0A0C03008A828B838CF0ED12255FCE
:0A0C0D00748C2561FAE43562FBAC3B
:0C0C1700638A828B838CF0121CA570068F
:060C2300785FE64401F6D3
:050C2900AA3CAB3DAC4C
:0C0C2E003E900190EAF0A3EBF0A3ECF084
:0A0C3A00EAB43C0BEBB40007ECB485
:050C44004003020E094F
:0E0C490074062AFAE43BFB8A828B838CF0123D
:0A0C57001CA5FAA3121CA5FBA312B2
:0E0C61001CA5FC900193EAF0A3EBF0A3ECF0CD
:0C0C6F00A80A08748E2AF6E43B08F60878
:0C0C7B00A604A80A088682088683088662
:0C0C8700F0121CA5FDA3121CA5FBA3127B
:0E0C93001CA5FCA3121CA5FAED4B4C4A602ECA
:0E0CA100ED24FFFDEB34FFFEEC34FFFFEA34E0
:0C0CAF00FFFAA80A0886820886830886DF
:0D0CBB00F0ED12255FA3EE12255FA3EF12EE
:070CC800255FA3EA12255F7E
:0E0CCF00900193E0FAA3E0FBA3E0FC748E2AF0
:0E0CDD00FAE43BFB8A828B838CF0121CA5FA92
:0C0CEB00A3121CA5FBA3121CA5FCA31265
:0C0CF7001CA5FDEA4B4C4D6003020E09E9
:0E0D0300900190E0FAA3E0FBA3E0FC8A828B53
:0E0D1100838CF0121942900193E0FAA3E0FBEC
:0E0D1F00A3E0FC74952AFDE43BFE8C078D8258
:0E0D2D008E838FF0121CA5FDBD426B748A2AC6
:0E0D3B00FDE43BFE8C078D828E838FF07401E9
:0E0D490012255F74922AFDE43BFE8C078D821A
:0E0D57008E838FF0121CA5FDA3121CA5FEA317
:0E0D6500121CA5FFC002C003C0048D828E8345
:0E0D73008FF01219D3AA82AB83ACF015811554
:0E0D8100811581900190EAF0A3EBF0A3ECF055
:0B0D8F00BA0008BB0005BC0002800990
:090D9A008A828B838CF01219424D
:0E0DA300900193E0FAA3E0FBA3E0FC7401C012
:0D0DB100E08A828B838CF01207F61581908A
:070DBE000190E53CF0A3E504
:090DC5003DF0A3E53EF0740625A3
:070DCE003CFAE4353DFBACEB
:0C0DD5003E8A828B838CF0121CA5FAA3CE
:0A0DE100121CA5FBA3121CA5FC9038
:0C0DEB000193EAF0A3EBF0A3ECF0E53C70
:060DF700B43C0CE53DB424
:090DFD000007E53EB4400280034A
:030E0600020CCF0C
:070E0900120260850A81D08E
:020E10000A22B4
:040E1200856164850D
:030E16006265858D
:050E1900636674F8257A
:0A0E1E00604046E56075F007A4246B
:090E28000DFAE43400FB7C00909B
:0E0E31000199EAF0A3EBF0A3ECF08A828B8328
:0E0E3F008CF0121CA5FAA3121CA5FBBA00052C
:050E4D00BB000280154E
:0A0E5200C002C0037463C0E0740E18
:070E5C00C0E0C002C0032248
:040E6300D003D002E6
:070E6700785FE620E10122A3
:0A0E6E0074952561FAE43562FBACCF
:0C0E7800638A828B838CF0121CA5FABAEE
:040E84005202800690
:060E8800785FE64401F66C
:070E8E00785FE620E001227D
:050E9500AA33AB34ACF0
:0C0E9A0035900196EAF0A3EBF0A3ECF019
:0A0EA600EAB43318EBB40014ECB406
:0A0EB000401090019C74E5F0A3745B
:080EBA0000F0A37400F0802693
:0E0EC20074062AFAE43BFB8A828B838CF012C2
:0A0ED0001CA5FAA3121CA5FBA31237
:0E0EDA001CA5FC90019CEAF0A3EBF0A3ECF049
:0A0EE80074952561FAE43562FBAC55
:0C0EF200638A828B838CF0121CA5FABA74
:0E0EFE00524790019CE0FAA3E0FBA3E0FC74D5
:0D0F0C008B2AFAE43BFB8A828B838CF01267
:0A0F19001CA5FA748B2561FBE4357A
:0A0F230062FCAD638B828C838DF0BD
:090F2D00121CA5FBC39A5001221D
:0A0F3600E4C0E085618285628385D6
:070F400063F01207F61581B2
:0D0F470090019CE0FAA3E0FBA3E0FCEAB4FB
:0A0F5400E50AEBB40006ECB400025D
:020F5E008014FD
:0E0F6000900196E0FAA3E0FBA3E0FC8A828BEE
:060F6E00838CF012194211
:090F740090019CE0F564A3E0F596
:060F7D0065A3E0F566E546
:050F830064B5610BE5FF
:050F880065B56206E5FD
:050F8D0066B5630122BE
:0A0F920074952564FAE43565FBACA4
:0C0F9C00668A828B838CF0745212255FF1
:0A0FA800748C2564FAE43565FBAC97
:080FB20066748D2564FDE43531
:0A0FBA0065FEAF668D828E838FF016
:0E0FC400121CA5FD8A828B838CF012255F78AB
:060FD2005FE654FEF6226A
:0A0FD800746A2561FAE43562FBAC8F
:0C0FE200638A828B838CF0121CA5FAA39A
:0B0FEE00121CA5FB746C2561FCE435AF
:0A0FF90062FDAE638C828D838EF0E2
:0B100300121CA5FCA3121CA5FDA312EB
:0C100E001CA5FEC002C0037428C0E074E2
:0C101A0010C0E0C002C0038C828D838EE9
:02102600F022B6
:05102800D003D00222FC
:0A102D00C00A85810A0581058105CE
:0C10370081AA82AB83ACF0A80A08A602D4
:0C10430008A60308A604E50A24FBF886B2
:04104F000508860604
:091053008D078E021DBDFF011E78
:0C105C00EF4A601EA80A088682088683FE
:0C1068000886F0A90A191919E712255F83
:0A107400A31818A68208A68380D5F1
:06107E00850A81D00A2260
:0A108400C00AE581F50A2405F58194
:0C108E00AA82AB83ACF0E50A24F9F8E676
:0E109A002AFD08E63BFE8C078D828E838FF0C8
:0A10A800E412255FE50A24FBF8A915
:0C10B2000A090909E6F70809E6F7080931
:0A10BE00E6F7E50A24F9F8A90A098B
:0610C800E6F70809E6F757
:0A10CE00A80A088605088606A80A8D
:0E10D80008E624FFF608E634FFF6ED4E602B26
:0C10E600A80A080808868208868308868D
:0E10F200F0121CA5FDA31818A68208A6838A7A
:0E110000828B838CF0ED12255FA3AA82AB8355
:03110E00ED70BDC4
:06111100850A81D00A22CC
:0A111700C00A85810AC082C083C0AF
:0C112100F0749DC0E0E4C0E0E4C0E0A871
:0B112D000A0886820886830886F012FC
:0C113800102D158115811581A80A08747E
:0E1144009626FDE40836FE0886077404C0E017
:0C115200E4C0E0E50A24F9F8E6C0E0087B
:0E115E00E6C0E008E6C0E08D828E838FF012BE
:0C116C001084E58124FBF581A80A0874BA
:0C1178008B26FDE40836FE088607E50A19
:0D11840024FCF886028D828E838FF0EA1223
:0C119100255FA80A08746F26FAE40836EF
:0C119D00FB088604A80A08E6C0E008E68B
:0D11A900C0E008E6C0E08A828B838CF01263
:0C11B600173E158115811581A80A0874E8
:0C11C2007826FAE40836FB088604A80A28
:0E11CE0008E6C0E008E6C0E008E6C0E08A825D
:0E11DC008B838CF012173E158115811581A8AA
:0C11EA000A08748126FAE40836FB088627
:0C11F60004A80A08E6C0E008E6C0E00813
:0E120200E6C0E08A828B838CF012173E1581C5
:0C12100015811581A80A08746A26FAE40A
:0D121C000836FB0886048A828B838CF0E57F
:0C1229000A24F7F8E612255FA308E6127D
:0C123500255FA80A08746C26FAE408364D
:0C124100FB0886048A828B838CF0E50A8F
:0E124D0024F4F8E612255FA308E612255FA33D
:0C125B0008E612255FA80A08748D26FA28
:0E126700E40836FB0886048A828B838CF074C0
:0C1275000A12255FA80A08746826FAE433
:0E1281000836FB0886048A828B838CF0E41208
:0C128F00255FA80A08746726FAE40836F8
:0D129B00FB0886048A828B838CF07401129C
:0C12A800255FA80A08746626FAE40836E0
:0D12B400FB0886048A828B838CF074021282
:0C12C100255FA80A08746526FAE40836C8
:0D12CD00FB0886048A828B838CF074031268
:0C12DA00255FA80A08746426FAE40836B0
:0D12E600FB0886048A828B838CF07404124E
:0C12F300255FA80A08746326FAE4083698
:0D12FF00FB0886048A828B838CF074051234
:0C130C00255FA80A08746226FAE408367F
:0D131800FB0886048A828B838CF074061219
:0C132500255FA80A08746126FAE4083667
:0D133100FB0886048A828B838CF0740712FF
:0C133E00255FA80A08745D26FAE4083652
:0D134A00FB0886048A828B838CF074551298
:0C135700255FA80A08745E26FAE4083638
:0D136300FB0886048A828B838CF074AA122A
:0C137000255FA80A08746926FAE4083614
:0D137C00FB0886048A828B838CF0745A1261
:0C138900255FA80A08745F26FAE4083605
:0D139500FB0886048A828B838CF074121290
:0C13A200255FA80A08746026FAE40836EB
:0D13AE00FB0886048A828B838CF074341255
:0C13BB00255FA80A08745826FAE40836DA
:0C13C700FB0886047D678A828B838CF013
:0C13D300ED12255FA80A08745C26FAE4FD
:0E13DF000836FB0886048A828B838CF07480AB
:0C13ED0012255FA80A08745B26FAE408C9
:0D13F90036FB0886048A828B838CF0E41298
:0C140600255FA80A08745926FAE408368D
:0A141200FB0886047DD87E0F8A8255
:0E141C008B838CF0ED12255FA3EE12255F8509
:05142A000A81D00A2236
:08142F00758201120A3880F8F1
:0A143700C00A85810AC082C08374D8
:0E1441003FC0E0E4C0E0E4C0E090002175F0A0
:0C144F004012102D158115811581754586
:08145B000A754600754764752F
:051463004800AC47AD9C
:04146800488C558DCA
:0C146C0056E4C0E0C0E0C0E09000217534
:0E147800F04012173E158115811581E4C0E089
:0E148600C0E0C0E090002A75F04012173E153D
:0D1494008115811581E4C0E0C0E0C0E0904A
:0E14A100003375F04012173E1581158115813C
:0E14AF00E4C0E0C0E0C0E090003C75F04012E8
:0E14BD00173E1581158115817C007D027E0091
:0E14CB00C004C005C00612035CE5828583F0F4
:0E14D900D006D005D0042401FFE435F0FA7BE4
:0E14E70000C004C005C0068F828A838BF012FD
:0E14F5002A3F158115811581E4C0E0C0E0E4B6
:0C150300C0E0C0E0C0E0E4C0E0C0E07464
:0A150F009CC0E0742AC0E07480C0A4
:0C151900E0A80A08E6C0E008E6C0E09088
:0E152500004875F000121117E58124F4F581DD
:0E1533007420C0E0E4C0E0E4C0E0C0E0C0E02E
:09154100742FC0E07414C0E074C2
:0A154A00A1C0E0742AC0E07480C064
:0E155400E074FFC0E0E4C0E09000E575F00038
:0C156200121117E58124F4F58174B7C064
:0C156E00E07400C0E0E4C0E090002175D3
:0C157A00F0401217CC158115811581740A
:0A15860054C0E07401C0E0E4C0E0CE
:0E15900090002175F0401217CC1581158115C1
:05159E00817561487534
:0315A3006200756E
:0915A600630074952561FAE43537
:0A15AF0062FBAC638A828B838CF030
:0C15B900745212255F90017A7441F078A2
:0915C5005FE64402F6850A81D0BC
:0215CE000A22EF
:052A9C004D61696E00B0
:052AA10049646C6500B2
:0915D000AA82AB83ACF002273CB7
:0615D900AA82AB83ACF016
:0E15DF00C002C003C00474E8C0E07403C0E0A2
:0E15ED00E4C0E0C0E08A828B838CF012268F6F
:0E15FB00AD82AE83E58124FCF581D004D003DF
:0B160900D002EE20E7D08D828E8322FD
:0A161400C00A85810AAA82AB83ACEC
:0C161E00F0A80A181818B60A2CC002C068
:0E162A0003C00474E8C0E07403C0E0E4C0E054
:0D163800C0E0740DC0E08A828B838CF0123C
:0E1645002873E58124FBF581D004D003D00288
:0C165300A80A181818860574E8C0E07496
:0E165F0003C0E0E4C0E0C0E0C0058A828B83D7
:0C166D008CF0122873E58124FBF581D07D
:021679000A2243
:0A167B00C00A85810AC082C083C046
:0E168500F090000E1229BFAD82AE83AFF0C010
:0D16930005C006C0077405C0E0E4C0E0A873
:0C16A0000A08E6C0E008E6C0E008E6C06A
:0E16AC00E08D828E838FF0121084E58124FB86
:0E16BA00F581D007D006D00574052DFAE43E68
:0C16C800FB8F048A828B838CF0A80A0838
:0E16D400E612255FA308E612255FA308E612C2
:0E16E200255F74082DFAE43EFB8F048A828B8C
:0A16F000838CF0741412255FA374BC
:0C16FA001612255F740A2DFAE43EFB8FE7
:0C170600048A828B838CF074D912255F5A
:0C171200A3741512255F740C2DFAE43E40
:0C171E00FB8F048A828B838CF074D01245
:06172A00255FA3741512F7
:0C173000255F8D828E838FF0850A81D0AA
:02173C000A227F
:0A173E00C00A85810AAA82AB83ACC1
:0C174800F0E50A24FBF8E60846084670AD
:0E1754001F74062AFDE43BFE8C078D828E83F7
:0E1762008FF0EA12255FA3EB12255FA3EC12B5
:04177000255F80244D
:0E17740074062AFDE43BFE8C078D828E838F67
:0C178200F0E50A24FBF8E612255FA3083E
:0A178E00E612255FA308E612255FAE
:0E17980074032AFDE43BFE8C078D828E838F46
:0D17A600F0EA12255FA3EB12255FA3EC1201
:0E17B300255F8A828B838CF0EA12255FA3EB00
:0917C10012255FA3EC12255FD094
:0217CA000A22F1
:0A17CC00C00A85810AC082C083C0F4
:0C17D600F0058105810581E50A24FBF87F
:0C17E2008605088606088607A80A088607
:0C17EE00820886830886F0E50A2404F9CE
:0C17FA00121CA5F7A3121CA509F7A312EE
:0C1806001CA509F78D828E838FF0E50A87
:0E1812002404F8E612255FA308E612255FA362
:0E18200008E612255F74032DFAE43EFB8F04E8
:0B182E008A828B838CF0A80A08E61267
:0C183900255FA308E612255FA308E61255
:0C184500255FE50A2404F8740326FAE489
:0E1851000836FB0886048A828B838CF0ED1229
:0A185F00255FA3EE12255FA3EF1230
:0C186900255FA80A08868208868308868E
:0D187500F0ED12255FA3EE12255FA3EF1228
:06188200255F850A81D0FC
:021888000A2232
:0A188A00C00AE581F50A2406F58185
:0C189400AA82AB83ACF0E50A24FBF886C6
:0E18A000050886060886078D828E838FF0EA83
:0B18AE0012255FA3EB12255FA3EC12D4
:0C18B900255FA80A0874032DF6E43E0821
:0C18C500F608A607E50A2404F874032ABC
:0C18D100F6E43B08F608A604E50A24042F
:0E18DD00F886820886830886F0121CA5FAA3FE
:0A18EB00121CA5FBA3121CA5FCA80B
:0C18F5000A0886820886830886F0EA1242
:0A190100255FA3EB12255FA3EC1293
:0E190B00255F8A828B838CF0ED12255FA3EEA0
:0919190012255FA3EF12255FE522
:0C1922000A2404F886820886830886F0F8
:0C192E00ED12255FA3EE12255FA3EF125F
:06193A00255F850A81D043
:021940000A2279
:0A194200C00AE581F50A2406F581CC
:0C194C00AB82AC83AAF0E50A2404F81278
:0B1958001CA5F6A3121CA508F6A312A4
:0A1963001CA508F6E50A2404F8A903
:0C196D000A09740326F7E4083609F7089D
:0E19790009E6F774032BFBE43CFC8A058B8225
:0E1987008C838DF0121CA5FBA3121CA5FCA3E3
:0C199500121CA5FDA80A088682088683A3
:0E19A1000886F0EB12255FA3EC12255FA3ED84
:0C19AF0012255F8B828C838DF0E50A24EA
:0E19BB0004F8E612255FA308E612255FA308D4
:0819C900E612255F850A81D0BA
:0219D1000A22E8
:0A19D300C00A85810AAA82AB83AC2A
:0C19DD00F0121CA5FDA3121CA5FEA31215
:0319E9001CA5FF3B
:0E19EC00EDB5020AEEB50306EFB50402806108
:0E19FA00C002C003C00474062DFAE43EFB8F49
:0D1A0800048A828B838CF0121CA5FAA312B5
:091A15001CA5FBA3121CA5FCE5B5
:0C1A1E000A24FBF8E6B5020E08E6B5034A
:0A1A2A000908E6B504047401800108
:011A3400E4CD
:0E1A3500D004D003D00260088D828E838FF023
:021A4300801C05
:0E1A45008D828E838FF0121CA5FDA3121CA5AE
:081A5300FEA3121CA5FF809107
:061A5B0090000075F00090
:031A6100D00A2286
:0E1A6400AA82AB83ACF074232AFDE43BFE8C17
:0E1A7200078D828E838FF0C002C003C0041265
:0E1A800020E9AD82AE83D004D003D002BDFFBA
:051A8E0004BEFF01226F
:0E1A930074062AFAE43BFB8A828B838CF012E5
:0A1AA1001CA554FE12255F8D99224A
:0A1AAB00C00A85810AC082C083C012
:0E1AB500F0E5812407F581C2ACC28EC2AB43BE
:0C1AC300878053890F438920E50A240422
:081ACF00F8A65708A65808A666
:051AD7005908A65AE5C4
:0C1ADC000A24FCF88603088604E4FAFDE6
:0E1AE80074C0C0E0E4C0E0C0E0C0E08B828CBF
:0E1AF600838AF0ED121CC1AA82AB83ACF0FD16
:0E1B0400E58124FCF581C002C003C004C005C9
:0C1B1200E50A2404F88682088683088611
:0E1B1E00F008E61204ECAA82AB83ACF0FDE501
:0D1B2C008124FCF581C3E49AF58DD28EA8CA
:0C1B39000A08741D26FAE40836FB088632
:0C1B4500048A828B838CF0121F72A80AA5
:0E1B510008742326FAE40836FB0886048A820C
:0C1B5F008B838CF0121F72A80A087429F6
:0E1B6B0026FAE40836FB0886048A828B838CF7
:081B7900F0746412255FA374EF
:051B81001A12255FA807
:0C1B86000A08740626FAE40836FB0886FC
:0D1B9200048A828B838CF0121CA544011282
:081B9F00255FD2AC850A81D05C
:021BA7000A2210
:051BA900109802802CE1
:0E1BAE00AA997B00C002C0039001BC75F00034
:0E1BBC00122001158115819001A5E030E21084
:0E1BCA009001A5E054FBF09001A675F000120A
:021BD80023598F
:041BDA00109901223B
:0E1BDE009001C275F0001220E9AA82AB838A42
:0E1BEC00048B05BAFF0BBBFF089001A5E04477
:031BFA0001F022D5
:0E1BFD008C999001A5E054FEF09001A5E03017
:0E1C0B00E1109001A5E054FDF09001B175F0DC
:041C19000002235949
:011C1D0022A4
:0A1C1E00C00A85810AAA82AB83E5A3
:0C1C28000A24FCF8E6C0E008E6C0E0C0BA
:0E1C340002C00390019F75F00012278EE5811B
:0A1C420024FCF581749FC0E07401DA
:0A1C4C00C0E0E4C0E074A9C0E07439
:0C1C56001BC0E090000412026BE581242A
:0E1C6200FBF5817401C0E07408C0E0744EC050
:0E1C7000E07480C0E07425C0E090019F75F024
:0E1C7E0000121AABE58124FBF5817401C0E071
:0E1C8C00E4C0E090019F75F00012261A158149
:0B1C9A00158190019F75F000D00A2218
:03002E0075816673
:0A00310012255BE582600302008ADD
:0E1CA50020F71430F6148883A88220F507E695
:061CB300A88375830022E6
:031CB900E280F7CF
:031CBC00E493228C
:021CBF00E02221
:0A1CC100C00A85810AC082C083C0FA
:0C1CCB00F0C0E0E5812412F581E50A2458
:0C1CD70005F8740228F9AA0A0AC000A847
:0C1CE300028603D000E50A24FAFCC000D1
:0C1CEF00E50A240CF874022CF6D000C0AA
:0C1CFB0000E50A240CF886008606D000E4
:0E1D07008BF0EEA4F709A7F0A90487068BF075
:0C1D1500EEA4F608A6F0E50A240524035D
:0C1D2100F88605E50A240BF974032AF784
:0C1D2D00E50A240BF9870187078FF0EE10
:0C1D3900A42DF6860574022AF9C000E50E
:0B1D45000A2409F8E7F6D000C000E512
:0C1D50000A240AF874012CF6D000C00030
:0C1D5C00E50A240AF886008607D000C0C3
:0C1D680000E50A2409F886F0EFA4D00082
:0C1D74002DF6E50A24052402F8C001E564
:0C1D80000A240DF9E6F708E609F718D070
:0C1D8C000187058DF0EEA4C0E0E50A24FC
:0E1D98000DF9D0E027FD09E735F0FFA605089C
:0C1DA600A60718E50A240DF9E6F708E688
:0C1DB20009F71874012AF98705C000E544
:0C1DBE000A240AF886008607D0008DF089
:0C1DCA00EFA4C000C0E0E50A240DF8D032
:0E1DD600E026FD08E635F0FFD000A60508A6C1
:0C1DE400078705E50A240CF88600860736
:0C1DF0008DF0EFA4C0E0E50A240BF8D051
:0E1DFC00E08600F674012AF874012AF98705C2
:0E1E0A008DF0EEA4F608A6F074032CF8860501
:0E1E18008BF0EDA4F674012CF874012CF98700
:0E1E2600058BF0EDA4F608A6F0A8047600A83F
:0A1E3400027600E50A2405F8E50A2D
:0E1E3E00240FF9E6F708E609F708E609F708A9
:0C1E4C00E609F7181818A90A098706090A
:0C1E58008707098702098703E50A240FA9
:0E1E6400F9EE27FEEF0937FFEA0937FAEB091E
:0E1E720037FBA60608A60708A60208A6031856
:0C1E80001818E50A240FF9E6F708E60937
:0C1E8C00F708E609F708E609F7E50A2464
:0E1E9800FAF88606088607088602088603E523
:0C1EA6000A240FF8EE26FEEF0836FFEAD3
:0E1EB2000836FAEB0836FB8E828F838AF085A5
:051EC0000A81D00A2296
:0E1EC500AA82AB83ACF074052AFDE43BFE8CD0
:0E1ED300078D828E838FF0121CA5FD74042AE9
:0E1EE100FAE43BFB8A828B838CF0121CA5FA7C
:081EEF00EDB50204740180014D
:011EF700E406
:091EF800FD3395E08D82F5832293
:0A1F0100C00A85810A0581AA82AB9F
:0E1F0B0083ACF074042AFDE43BFE8C078D824B
:0C1F19008E838FF0121CA5FDA80A08742E
:0E1F2500012DF674032AFEE43BFF8C058E822C
:0C1F33008F838DF0121CA5FEA80A08C3C5
:091F3F00E69E4005A80A087600A0
:0E1F480074052AFAE43BFB8A828B838CF0122C
:0C1F56001CA5FAA80A08E6B502047A01EE
:021F62008002FB
:021F64007A0001
:0A1F66007B008A828B83850A81D0FC
:021F70000A2243
:0E1F7200AA82AB83ACF074052AFDE43BFE8C22
:0E1F80000774042AFAE43BFB8A828B838CF000
:0E1F8E00E412255F8D828E838FF0E402255FC2
:0A1F9C00C00A85810AAA82AB83AC5B
:0C1FA600F0A80A18181886057E008D822D
:0E1FB2008E83C002C003C0041229BFAD82AEF0
:0E1FC00083AFF0D004D003D0028A828B838CD2
:0D1FCE00F0ED12255FA3EE12255FA3EF12C8
:0E1FDB00255F74032AFDE43BFE8C078D828E89
:0C1FE900838FF0A80A181818E612255F74
:0C1FF5008A828B838CF0121F72D00A22AB
:0A200100C00A85810AC082C083C0B6
:0C200B00F0E5812408F581A80A0874049F
:0E20170026FDE40836FE0886078D828E838F34
:0B202500F0E50A2405F8121CA5F6E502
:0A2030000A2405F8E50A2404F974F7
:0C203A000126F7A80A08740326FBE4083E
:0E20460036FC0886028B828C838AF0121CA561
:0C205400FBE50A2404F8C3E69B4007E506
:062060000A2404F87600DA
:0C206600A80A08740526FAE40836FB08F6
:0D20720086048A828B838CF0121CA5FAE58F
:0C207F000A2404F8E6B502059000018078
:01208B0057FD
:0C208C00A80A0886820886830886F012E5
:0A2098001CA5FAA3121CA5FBA3125D
:0920A2001CA5FCE50A2405F8E583
:0C20AB000A2406F9E62AF7E43B09F709CD
:0A20B700A704E50A24FCF88602E500
:0C20C1000A2406F886820886830886F050
:0C20CD00EA12255F8D828E838FF0E50AF9
:0A20D9002404F8E612255F900000D1
:0620E300850A81D00A22EB
:0A20E900C00A85810AC082C083C0CE
:0C20F300F005810581A80A08740526FD8F
:0E20FF00E40836FE0886078D828E838FF0E59A
:09210D000A2405F8121CA5F6E5F0
:0A2116000A2405F8E50A2404F97410
:0C2120000126F7A80A08740326FBE40857
:0E212C0036FC0886028B828C838AF0121CA57A
:0C213A00FBE50A2404F8C3E69B4007E51F
:062146000A2404F87600F3
:0C214C00A80A08740426FAE40836FB0810
:0D21580086048A828B838CF0121CA5FAE5A8
:0C2165000A2405F8E6B5020590FFFF8093
:01217100432A
:0C217200A80A0886820886830886F012FE
:0A217E001CA5FAA3121CA5FBA31276
:0C2188001CA5FCE50A2405F8E62AFAE490
:0E2194003BFB8A828B838CF0121CA5FA8D8295
:0B21A2008E838FF0E50A2404F8E6129B
:0821AD00255F7B008A828B8311
:0621B500850A81D00A2218
:0A21BB00C00A85810AAA82AB83AC3A
:0E21C500F074092AFDE43BFE8C078D828E83A8
:0C21D3008FF0E50A24FCF8E612255FA35B
:0E21DF0008E612255FE4C0E0C0E0C0E08A829E
:0E21ED008B838CF012173E158115811581D061
:0221FB000A22B6
:0A21FD00C00A85810AC082C083C0B9
:0C220700F0120A5DA80A08740926FDE424
:0D2213000836FE0886078D828E838FF0123C
:0D2220001CA5FAA3121CA5FB1ABAFF011B96
:0D222D008D828E838FF0EA12255FA3EB12E5
:0C223A00255F20E709120ABD9000000299
:02224600235320
:0C224800E50A24FAF8E6084608460846B5
:0E225400702C8D828E838FF0121CA5FAA312BF
:082262001CA5FB0ABA00010BE8
:0D226A008D828E838FF0EA12255FA3EB12A8
:09227700255F120ABD900001026E
:022280002353E6
:0A22820074952561FAE43562FBACA7
:0C228C00638A828B838CF0744212255F01
:0A22980074812561FAE43562FBACA5
:0A22A20063C002C003C004A80A08CC
:0E22AC0086820886830886F012188A1581152E
:0A22BA00811581748A2561FAE4356C
:0A22C40062FBAC638A828B838CF00E
:0B22CE00E412255F74922561FAE435EC
:0A22D90062FBAC638A828B838CF0F9
:0B22E300A80A08E612255FA308E61217
:0922EE00255FA308E612255FE557
:0C22F7000A24FAF8B6FF0E08B6FF0A0829
:09230300B6FF0608B6FF028026B1
:0C230C00E50A24FAF8E6C0E008E6C0E0AC
:0C23180008E6C0E008E6C0E085618285B0
:0623240062838563F012E4
:08232A00057BE58124FCF5812F
:0923320012025A120ABD748A2538
:07233B0061FAE43562FBAC1E
:0C234200638A828B838CF0121CA5FA7B4E
:05234E00008A828B8370
:06235300850A81D00A2278
:0A235900C00AE581F50A2407F581AA
:0D236300AA82AB83ACF0C002C003C004121C
:0E2370000A5DD004D003D00274092AFDE43BBC
:0E237E00FE8C078D828E838FF0121CA5F8A3B3
:09238C00121CA5F908B8000109B2
:0D2395008D828E838FF0E812255FA3E91280
:0E23A200255F8A828B838CF0121CA5FDA3128E
:0923B0001CA5FEA3121CA5FF9060
:0E23B90001CAEDF0A3EEF0A3EFF0EDB5020BBC
:0B23C700EEB50307EFB504030225523A
:0E23D20074062DFAE43EFB8F048A828B838C06
:0C23E000F0121CA5FAA3121CA5FBA3120E
:0E23EC001CA5FC9001D0EAF0A3EBF0A3ECF0EE
:0E23FA008D828E838FF01219429001D0E0C0C8
:0E240800E0A3E0C0E0A3E0C0E090003C75F06F
:0E241600401219D3AA82AB83ACF01581158158
:0E24240015819001CAEAF0A3EBF0A3ECF0BA28
:0B2432000009BB0006BC0003022538B7
:0E243D008A828B838CF0121CA5FDA3121CA5B5
:0E244B00FEA3121CA5FF9001CDEDF0A3EEF054
:0D245900A3EFF08A828B838CF01219429061
:0C24660001CDE0FAA3E0FBA3E0FCEAB427
:0A2472003C0BEBB40007ECB4400390
:03247C00022538FE
:0E247F0074062AFAE43BFB8A828B838CF012EF
:0A248D001CA5FAA3121CA5FBA31264
:0E2497001CA5FC9001D3EAF0A3EBF0A3ECF03F
:0C24A500E50A2405F8748E2AF6E43B08D2
:0C24B100F608A604E50A2405F886820857
:0C24BD0086830886F0A90A09121CA5F706
:0E24C900A3121CA509F7A3121CA509F7A31264
:0E24D7001CA509F79001D0E0FCA3E0FAA3E0F9
:0E24E500FB748E2CFFE43AFA8F828A838BF010
:0B24F300121CA5FFA3121CA5FAA312E7
:0924FE001CA5FBA3121CA5FCA8FF
:0C2507000A08EF26FFEA0836FAEB083657
:0C251300FBEC0836FCE50A2405F8868283
:0D251F000886830886F0EF12255FA3EA12FC
:0A252C00255FA3EB12255FA3EC125C
:02253600255F1F
:0E2538009001D0E0FAA3E0FBA3E0FC7401C028
:0C254600E08A828B838CF01207F615816E
:07255200120ABD850A81D0C9
:022559000A2254
:04255B007582002263
:0E255F0020F71030F6118883A88220F507F6C9
:05256D00A88375830046
:012572002246
:03257300F280F7FC
:02257600F02251
:0A257800C00A85810AC082C083E515
:0A258200812407F581AA0A0AA80ABD
:0C258C00080808A602087600087640E562
:0B2598000A24FCFD8D027B007C40E566
:0A25A3000A2406F8A90A09090987AD
:0E25AD00820987830987F0121CA5FD8A828BA4
:0E25BB00838CF0121CA5FE8DF0A4F608A6F08D
:0C25C900E50A24062401F886070ABA007F
:0225D500010BF8
:0E25D7008A828B838CF0121CA5FA8DF0A4FD75
:0C25E500A90A090909740127FAE4093762
:0E25F100FB0987048A828B838CF0121CA5FAEA
:0C25FF008AF0EEA42D2FF6E50A2406F861
:0C260B0086020886038A828B83850A8180
:03261700D00A22C4
:0A261A00C00A85810AC082C083C097
:0C262400F0A80A0886820886830886F069
:0C263000744312255FA80A08740126FDFF
:0E263C00E40836FE0886078D828E838FF074C8
:0E264A004F12255FA3AD82AE838FF0744D1248
:0C265800255FA3AD82AE83E50A24FCF8E8
:0D266400860274302AFA8D828E838FF01268
:0E267100255FA3AD82AE838FF0E412255FA833
:0B267F000A0886820886830886F08522
:05268A000A81D00A22C4
:0A268F00C00A85810AC082C083C022
:04269900F0120A5DD4
:0C269D00A80A08741D26FDE40836FE089B
:0E26A90086078D828E838FF01220E9AA82AB05
:0C26B700838A078B05BAFF66BBFF63A88F
:0C26C3000A08740626FEE40836FA0886B1
:0D26CF00038E828A838BF0121CA544041236
:0626DC00255F120ABDA8F3
:0C26E2000A08740726FAE40836FB088694
:0C26EE0004E50A24FAF8E6C0E008E6C0A3
:0E26FA00E008E6C0E008E6C0E08A828B838C30
:0E270800F01221FDAA82AB83E58124FCF5814D
:09271600EA4B600590FFFF8017FB
:06271F00120A5D02269D76
:0E272500C005C007120ABDD007D0057D008F89
:03273300828D8311
:06273600850A81D00A2291
:0E273C00AA82AB83ACF0741D2AFAE43BFB8A40
:0E274A00828B838CF0121EC5AA82AB83EA4BF1
:03275800B40100C9
:0A275B00E433FA7B008A828B8322AC
:0E276500AA82AB83ACF074232AFAE43BFB8A11
:0E277300828B838CF0121F01AA82AB83EA4B8B
:03278100B40100A0
:0A278400E433FA7B008A828B832283
:0A278E00C00A85810AC082C083C022
:0C279800F0742BC0E0E4C0E0E4C0E0A856
:0B27A4000A0886820886830886F0126F
:0C27AF00102D158115811581E50A24FC10
:0727BB00F8E60846B4010036
:0B27C200E433FD60067D207E00800AED
:0A27CD00E50A24FCF88605088606DC
:0C27D700A80A08742326FEE40836FF0858
:0E27E3008602C0058E828F838AF0121F9C151D
:0C27F10081E50A24FAF8E60846B401006D
:0B27FD00E433FA60067A807B00800A5B
:0A280800E50A24FAF88602088603A8
:0C281200A80A08741D26FBE40836FC0828
:0E281E008605C0028B828C838DF0121F9C15E4
:0C282C0081A80A08740726FAE40836FBAD
:0E283800088604E4C0E0C0E08A828B838CF046
:0C2846001221BB15811581A80A0874122C
:0E28520026FAE40836FB088604E4C0E0C0E085
:0E2860008A828B838CF01221BB158115818535
:05286E000A81D00A22DE
:0A287300C00A85810AC082C083C03C
:01287D00F06A
:0C287E00120A5DA80A18181886057E00D2
:0C288A00A80A08742326FFE40836FA08A8
:0D2896008603C005C0068F828A838BF01276
:0E28A3002001AA82AB8315811581EA4B60608B
:0C28B100A80A08740626FAE40836FB08A2
:0E28BD0086048A828B838CF0121CA5440212C2
:0628CB00255F120ABDA802
:0C28D1000A08741226FAE40836FB088698
:0C28DD0004E50A24F9F8E6C0E008E6C0B3
:0E28E900E008E6C0E008E6C0E08A828B838C3F
:0E28F700F01221FDAA82AB83E58124FCF5815D
:07290500EA4B700302287E7B
:05290C00900001805D58
:0C291100120ABDA80A08740626FAE408A1
:0E291D0036FB0886048A828B838CF0121CA580
:0C292B0030E03DA80A08742926FAE408F0
:0E29370036FB0886048A828B838CF0121CA566
:0C294500FAA3121CA5FBC002C0037467BB
:0B295100C0E07429C0E0C002C003A871
:0B295C000A0886820886830886F022A5
:04296700D003D002C7
:03296B00900000D9
:06296E00850A81D00A2257
:06297400AA82AB83ACF067
:0D297A008A828B838CF0C002C003C004125F
:0E298700273CE5828583F0D004D003D00245C2
:0E299500F06026C002C003C004E4C0E0C0E051
:0E29A300C0E0C0E08A828B838CF012268FE5A4
:0D29B1008124FCF581D004D003D00280BC4D
:0129BE0022F6
:0A29BF00C00AE581F50A2406F5813F
:0C29C900AA82AB83E50A2404F8E4F608B7
:0C29D500F608F6900007A80A08E0F6A338
:0C29E100E008F6A3E008F6A80A08EA26C1
:0E29ED00FAEB0836FB08860790000AE0FCA310
:0E29FB00E0FDA3E0FEC3EA9CEB9DEF9E50239F
:0C2A0900A80A088604088605088606E571
:0C2A15000A2404F8A60408A60508A6067A
:0B2A2100900007EAF0A3EBF0A3EFF039
:0C2A2C00E50A2404F886820886830886E8
:072A3800F0850A81D00A229B
:0A2A3F00C00A85810AAA82AB83ACAD
:0D2A4900F0900004EAF0A3EBF0A3ECF09095
:0E2A56000007EAF0A3EBF0A3ECF090000AE515
:0C2A64000A24FBF8E6F0A308E6F0A30843
:082A7000E6F0900001D00A22FB
:012A7800223B
:00000001FF
