:0400000002000E32BA
:03000B0002006F81
:0300670002006A2A
:05006A001200B780FE4A
:0E006F00C0E0C0D075D000C28C758CF1758ACF
:09007D00C2D28CE50860021508EE
:07008600E509450A600915B8
:07008D000974FFB50902151B
:010094000A61
:05009500D0D0D0E032E4
:0B009A00E5B175B100E5B275B2FF22C0
:0E00A500C28C758911758CF1758AC2C28DD21C
:0400B300A9D28C2220
:0E00B7007A0075A80075E800C0021200A5D0FE
:0A00C50002C00212009AD002D2AF6E
:0700CF00E509450A70FA750E
:0A00D60009E8750A03EA2AFA70022D
:0200E0007A01A3
:0400E2008AA080E987
:06003D00E478FFF6D8FD97
:08001B007900E94400601B7A42
:05002300009000EA78E6
:030028000075A0C0
:0A002B0000E493F2A308B8000205F8
:08003500A0D9F4DAF275A0FF76
:080043007800E84400600A792E
:03004B000075A09D
:06004E0000E4F309D8FCF8
:080054007800E84400600C791B
:0B005C0000900000E4F0A3D8FCD9FAEB
:03000E0075810AEF
:0A0011001200E6E582600302006AB7
:0400E60075820022FD
:00000001FF
