:03000000020006F5
:06005F00D200C202C2063D
:0300710002000387
:030003000200A553
:1000740075905D75B0DF75C0F975C4FF75FE1C75AC
:100084008921D28CD2A91200D51200F07582FF12F8
:1000940000F31201641202FC7582001200F30200E4
:1000A400BC1200BC12007412010275820B120152C0
:0800B4001201641200BC80FB84
:06047900FF00FB000F066E
:0C006500751081751100751231751300C3
:1000BC0043871075FF00227A08E582C290A2E7926E
:1000CC00910000D29023DAF32243871075FF00AF22
:1000DC00128F821200C3AF108F821200C3C290D253
:1000EC00B5C2B522C2B422E58290000BF0E0FF8FBE
:1000FC00148F158F162253148F531520751600224A
:10010C001200BCE5822323F890043993421408E8CA
:10011C0093421508E8934216221200BCE582232371
:10012C00F89003F993421408E893421508E89342B7
:10013C001622E582FA540FF582120125EAC4540FF7
:10014C00F58212010C2275F00AE58284F582120107
:10015C000C85F082120125221200BCC290C29100C3
:10016C000000D2C200D2900000C2907808E51412B0
:10017C00019C7808E51512019C7805E516D2E4126D
:10018C00019CC2C2000000C291D2900000C2902219
:10019C00A2E092910000D29000000003C29000D81F
:0201AC00EF2240
:1003F900005C0300004001000098030000D00300E6
:1004090000C4010000D4020000DC02000040030027
:1004190000DC030000D4030000CC030000DC000072
:10042900001C020000D80100009C0200008C0200A0
:10043900700304004000040010030C0050010C007C
:1004490060000C00700108007003080050000400EF
:1004590070030C0070010C0070020C0060030800AE
:100469003003000040030C0030030800300208008C
:1001AE00900000E0FFBF5002800475820022120210
:1001BE0081AF82900001E0FEEFB5060280047582E9
:1001CE0000221202ABAF82900002E0FEEFB50602F3
:1001DE008004758200221202C6AF82900003E0FEF8
:1001EE00EFB506028004758200227582012212018B
:1001FE00AEE58260012202020775825002020DE511
:10020E008290000CF0E0FFBF400050527D007E084F
:10021E007A007B007C008A828B838CF074FF120242
:10022E00E1A3AA82AB83ED24FFF8EE34FFF9880533
:10023E008906E84970E0900014E4F0900015F09003
:10024E000010F0900011F09000127405F090001361
:10025E00E4F0900016F0900017F0900018F0BF50E8
:10026E0000500F9000007450F0120281E582900051
:10027E0001F0227F00C0071200BCD0077C107D0069
:10028E007E007B108C828D838EF01203D9FAA3AC84
:10029E0082AD83EA2FFF0BBB00EA8F82227F00C064
:1002AE00071200BCD0077E008E82758301E0FD2F01
:1002BE00FF0EEE70F38F82227F00C0071200BCD0BB
:1002CE00077E008E82758302E0FD2FFF0EEE70F327
:0302DE008F8222EA
:06003500E478FFF6D8FD9F
:100013007906E94400601B7A01900479781175A090
:1000230002E493F2A308B8000205A0D9F4DAF2754A
:02003300A0FF2C
:1002E10020F71130F6138883A88220F509F6A88338
:0B02F1007583002280FEF280F5F022F1
:10003B007800E84400600A790175A000E4F309D860
:10004B00FC7810E84402600C7903900001E4F0A303
:04005B00D8FCD9FAFA
:1002FC0075985075C834D2BC75C83475CBFF75CAA7
:10030C00DAC298C299900010E4F090000FF09000BF
:10031C000EF090000DF0D20AD20BC209C208D2AC7A
:10032C0022C0E0C082C083C0D075D008C2AC109887
:10033C0002801890000EE0FF04F0EF2411F582E427
:10034C003401F583E599F0D208C20B10990280278D
:10035C0090000FE0FF90000DE0FEEFB50E06D20A04
:10036C00D209801390000FEF04F0EF2411F582E412
:10037C003400F583E0F599D2ACD0D0D083D082D0C4
:10038C00E032AF8290000DE0FE04F0EE2411F58215
:10039C00E43400F583EFF0C2AC100A028002D2996B
:1003AC00D2AC22900010E0FF04F0EF2411F582E4AF
:1003BC003401F583E0FFC2AC900010E0FE90000E1B
:0D03CC00E0FDEEB50502D20BD2AC8F82220F
:0D0006007581211203F5E5826003020003FD
:1003D90020F71430F6148883A88220F507E6A8834D
:1003E90075830022E280F7E49322E02275820022DD
:00000001FF
