:03000000020006F5
:06005F00D200C202C2063D
:0300710002000387
:0300030002008C6C
:100074001200DD7582FF12012612019712032F75FB
:1000840082001201260200A91200A91200741201B2
:10009400351201971200A91201351200FC120171E8
:0500A40012019780EF3E
:0204AC00FF0649
:0C006500751081751100751231751300C3
:1000A90043871075FF00227A08E582C290A2E79281
:1000B900910000D29023DAF32243871075FF00AF35
:1000C900128F821200B0AF108F821200B0C290D28C
:1000D900B5C2B52275905D75B0DF75C0F975C4FFFD
:1000E90075FE1C758921D28CD2A91200C20200F9B1
:1000F900C2B42243871075FF00C2F090D000E0F827
:1001090020E102D2F020E202D2F190E000E0F820F2
:10011900E102D2F220E202D2F385F08222E5829056
:100129000003F0E0FF8F148F158F162253148F539D
:100139001520751600221200A9E5822323F89004E0
:100149006C93421408E893421508E8934216221268
:1001590000A9E5822323F890042C93421408E8931C
:10016900421508E893421622E582FA540FF58212E5
:100179000158EAC4540FF58212013F2275F00AE5CD
:100189008284F58212013F85F08212015822120001
:10019900A9C290C291000000D2C200D2900000C250
:1001A900907808E5141201CF7808E5151201CF7887
:1001B90005E516D2E41201CFC2C2000000C291D2F5
:1001C900900000C29022A2E092910000D29000001B
:0801D9000003C29000D8EF22E0
:10042C00005C0300004001000098030000D00300B2
:10043C0000C4010000D4020000DC020000400300F4
:10044C0000DC030000D4030000CC030000DC00003F
:10045C00001C020000D80100009C0200008C02006D
:10046C00700304004000040010030C0050010C0049
:10047C0060000C00700108007003080050000400BC
:10048C0070030C0070010C0070020C00600308007B
:10049C003003000040030C00300308003002080059
:1001E100900000E0FFBF50028004758200221202DD
:1001F100B4AF82900001E0FEEFB506028004758283
:1002010000221202DEAF82900002E0FEEFB506028C
:100211008004758200221202F9AF82900003E0FE91
:10022100EFB5060280047582002275820122120157
:10023100E1E58260012202023A758250020240E544
:1002410082900004F0E0FFBF400050527D007E0824
:100251007A007B007C008A828B838CF074FF12030E
:1002610014A3AA82AB83ED24FFF8EE34FFF98805CD
:100271008906E84970E0900014E4F0900015F090D0
:100281000010F0900011F09000127405F09000132E
:10029100E4F0900016F0900017F0900018F0BF50B5
:1002A10000500F9000007450F01202B4E5829000EB
:1002B10001F0227F00C0071200A9D0077C107D0049
:1002C1007E007B108C828D838EF012040CFAA3AC1D
:1002D10082AD83EA2FFF0BBB00EA8F82227F00C031
:1002E100071200A9D0077E008E82758301E0FD2FE1
:1002F100FF0EEE70F38F82227F00C0071200A9D09B
:10030100077E008E82758302E0FD2FFF0EEE70F3F3
:030311008F8222B6
:06003500E478FFF6D8FD9F
:100013007902E94400601B7A019004AC780975A069
:1000230002E493F2A308B8000205A0D9F4DAF2754A
:02003300A0FF2C
:1003140020F71130F6138883A88220F509F6A88304
:0B0324007583002280FEF280F5F022BD
:10003B007800E84400600A790175A000E4F309D860
:10004B00FC7808E84402600C7903900001E4F0A30B
:04005B00D8FCD9FAFA
:10032F0075985075C834D2BC75C83475CBFF75CA73
:10033F00DAC298C299900008E4F0900007F090009C
:10034F0006F0900005F0D20AD20BC209C208D2AC57
:10035F0022C0E0C082C083C0D075D008C2AC109854
:10036F00028018900006E0FF04F0EF2409F582E404
:10037F003401F583E599F0D208C20B10990280275A
:10038F00900007E0FF900005E0FEEFB50E06D20AE1
:10039F00D2098013900007EF04F0EF2409F582E4EF
:1003AF003400F583E0F599D2ACD0D0D083D082D091
:1003BF00E032AF82900005E0FE04F0EE2409F582F2
:1003CF00E43400F583EFF0C2AC100A028002D29938
:1003DF00D2AC22900008E0FF04F0EF2409F582E48C
:1003EF003401F583E0FFC2AC900008E0FE900006F8
:0D03FF00E0FDEEB50502D20BD2AC8F8222DC
:0D000600758121120428E5826003020003C9
:10040C0020F71430F6148883A88220F507E6A88319
:10041C0075830022E280F7E49322E02275820022A9
:00000001FF
