:1010000002102E32FFFFFFFFFFFFFF021D02FFFF56
:10101000FFFFFF32FFFFFFFFFFFFFF32FFFFFFFF7A
:10102000FFFFFF021956FFFFFFFFFF021343758109
:101030005C12261DE582600302108A7900E94400F3
:10104000601B7A009026E9783175A002E493F2A340
:1010500008B8000205A0D9F4DAF275A0FFE478FF21
:10106000F6D8FD7800E84400600A790075A000E435
:10107000F309D8FC7831E84402600C790390000051
:10108000E4F0A3D8FCD9FA02108A12237A80FEAACF
:1010900082AB83E493F58222AA82AB83AC08AD09CC
:1010A000AE0A8E071EEF60188C828D83E0FFA3AC22
:1010B00082AD838A828B83EFF0A3AA82AB8380E226
:1010C00022AA82AB83AC098C051CED600E8A828B50
:1010D00083E508F0A3AA82AB8380EC22900230E083
:1010E000FA8A218A23E521605B90022CE0FAA3E0D2
:1010F000FB8A24747F5524D39480F4F524C3E5211E
:1011000095245003852124900230E524F0C2AF12CB
:101110002514E521C39524F52190022EE0FAA3E0E1
:10112000FB90022EE5242AF0E43BA3F0AA247B00E6
:1011300090022CE0FCA3E0FD90022CEA2CF0EB3DA9
:10114000A3F080A1AA237B0090022CE0FCA3E0FD89
:1011500090022CECC39AF0ED9BA3F090022EE0FCE1
:10116000A3E0FD90022EECC39AF0ED9BA3F0900259
:1011700030E523F022AA82AB8390022AEAF0A3EBA7
:10118000F0900230E54CF0C2AF1224FAD2AF22C286
:10119000AF1210DCD2AF900230E0F522752100C30F
:1011A000E52195224003021243AA217B0090022CE4
:1011B000E0FCA3E0FDEA2CF582EB3DF58312108FF5
:1011C000AA8290022EE0FBA3E0FCE5212BF582E44D
:1011D0003CF583E0FBEAB503028063AA217B009023
:1011E000022CE0FCA3E0FDEA2CFAEB3DFB90022E82
:1011F000E0FCA3E0FDE5212CF582E43DF583E0F57C
:101200004C8A828B83121175AA217B0090022CE0FC
:10121000FCA3E0FDEA2CF582EB3DF58312108FAACA
:101220008290022EE0FBA3E0FCE5212BF582E43C5A
:10123000F583E0FBEAB5030280049000012205215A
:1012400002119F90000022754C029040000211751F
:10125000754CFF904000021175858250858351E5E1
:101260004D2476FCE43400FDEC24FFFEED34FFFF5A
:101270008E008F018C828D83E4F088048905E5500F
:1012800045517003021303C006C007AA4E7B008AB3
:10129000088B09855082855183C002C003C004C0F9
:1012A000051225D0AE82AF83D005D004D003D00282
:1012B000EE2482F582EF3426F583E493FE8A088BD0
:1012C00009855082855183C004C005C006C007123D
:1012D0002542858250858351D007D006D005D004A1
:1012E0008C828D83EEF01CBCFF011DC3EC9476ED67
:1012F000648075F00063F08095F0D007D00640035D
:1013000002127E8C008D01ECB50613EDB5070F8C33
:10131000828D837430F0EC24FFF8ED34FFF9AA4F8E
:1013200088038904C3EB9476EC648075F00063F065
:101330008095F0400D8B828C83EAF01BBBFFE51C8F
:1013400080E222C0E0C0F0C082C083C0D075D0105F
:1013500090019CE0FA601790019CE01490019CF0D1
:10136000E52730E00990019CE0FA7002C2A3E5484D
:1013700045496015154874FFB548021549E54845CB
:10138000497006C28DC28CC2A9E529600215299058
:101390000001E02401F0A3E03400F0A3E03400F009
:1013A000A3E03400F0052A749C252A40030215109E
:1013B000752A00E5406017E54160041541800F156E
:1013C00040E5407004C2A38005B2A3854341E544D3
:1013D0006017E54560041545800F1544E544700429
:1013E000C2A28005B2A285474590019AE0FA601238
:1013F000EA1490019AF090019AE0FA700590019B2E
:10140000E4F0052C74F6252C4003021510752C0011
:10141000E52B6002152BE53045316009153074FF6E
:10142000B530021531052FE52F24C45019752F0052
:10143000052EE52E24C4500E752E00052DE52D2415
:10144000E85003752D0020020302151074E12532C7
:101450004030D201E5322406F582E43400F583758C
:10146000F00AE52D842430FAF0740125322406F5C3
:1014700082E43400F58375F00AE52D84E5F024302C
:10148000FAF074E125334030D201E5332406F582C9
:10149000E43400F58375F00AE52E842430FAF07404
:1014A0000125332406F582E43400F58375F00AE55E
:1014B0002E84E5F02430FAF074E125344030D20176
:1014C000E5342406F582E43400F58375F00AE52F4F
:1014D000842430FAF0740125342406F582E43400C3
:1014E000F58375F00AE52F84E5F02430FAF074E016
:1014F0002535401CD201E5352406FAE43400FBE52D
:101500002F30E004AC368002AC378A828B83ECF05B
:10151000C2CFD2CAC2C8D0D0D083D082D0F0D0E05F
:10152000327535FF7534FF7533FF7532FF75362020
:1015300075372EC202753084753103752A00752CFB
:1015400000752900900001E4F0A3F0A3F0A3F0756A
:101550002F00752E00752D00C2CAC2CF75C9017546
:10156000C800C2C9C2C875CBF875CDF875CAB875C0
:10157000CCB8D2ADD2CA22AA82AB83EA4B6023C3D5
:1015800074FF9AE49B50057521FF80028A21AC21EB
:101590007D00EAC39CFAEB9DFB852129E52960DBF0
:1015A00080FA228582C0C2E9C2E9D2EAD2EAC2EA5E
:1015B000C2EA2275291EC2E8D2E975C0FFD2EAE567
:1015C000C020E708C2EAC2E990000122E52970EFD5
:1015D00090000022AA82D2E88A820215A3AA82C2BF
:1015E000E88A820215A3200101221215B3C20175F7
:1015F00082801215DD1215B375220074F025224089
:10160000191215B3E5222406F582E43400F583E0CF
:10161000FAF5821215D4052280E11215B37582C045
:101620001215DD1215B375220074F02522401B122D
:1016300015B3741025222406F582E43400F583E006
:10164000FAF5821215D4052280DF2275082075096B
:10165000209000061210C1D20122AA82BA200050A6
:101660000FEA2406F582E43400F583E508F0D201A0
:1016700022AA82D201AB08AC098B828C83E493FD51
:10168000601BBA2000500F8A060AEE2406F582E499
:101690003400F583EDF00BBB00DF0C80DC22AA8266
:1016A000D2017B767C008B828C83E0FD601BBA20AC
:1016B00000500F8A060AEE2406F582E43400F58312
:1016C000EDF00BBB00E00C80DD22AA8285544D7545
:1016D0004E0A754F30855282855383C002121259CB
:1016E000D0028A8202169EAA8285574D754E1075C9
:1016F0004F30855582855683C002121259D0028A16
:101700008202169E2002012274E125324030D2016D
:10171000E5322406F582E43400F58375F00AE52D00
:10172000842430FAF0740125322406F582E4340072
:10173000F58375F00AE52D84E5F02430FAF074E1C4
:1017400025334030D201E5332406F582E43400F538
:101750008375F00AE52E842430FAF07401253324D1
:1017600006F582E43400F58375F00AE52E84E5F091
:101770002430FAF074E125344030D201E5342406F7
:10178000F582E43400F58375F00AE52F842430FAFD
:10179000F0740125342406F582E43400F58375F0F5
:1017A0000AE52F84E5F02430FAF074E02535401C7A
:1017B000D201E5352406FAE43400FBE52F30E004DD
:1017C000AC368002AC378A828B83ECF022C2037580
:1017D00008207509209000261210C175082075098F
:1017E000209000461210C1900010121577758230BB
:1017F0001215DD9000021215777582301215DD90FA
:10180000000212157775823C1215DD900002121548
:10181000777582081215DD1215B37582011215DD78
:101820001215B375820C1215DD1215B375820612EE
:1018300015DD0215B3D2AF750893750926758200C0
:101840001216717508A47509267582101216711288
:1018500015E6C2AF02100022900227E0FA24FC50E5
:10186000069002277402F0900227E0FA24FC403D23
:10187000EA2A2A9018777302188302188E021899A0
:101880000218A47521F4753E80753F25801F7521CF
:10189000FA753E00753F4B80147521FD753E00754D
:1018A0003F9680097521FE753E00753FE1C2ACD2BE
:1018B000B553890F43892085218B85218D438780EE
:1018C000759850D28ED2AC22C200753C0090019D1A
:1018D000E4F090020012108F85823D74FF253D5088
:1018E00006E53D24E05003753D7F90019BE4F090B8
:1018F000020112108FAA82900227EAF0EA24FC501B
:10190000069002277402F0D206021858AA82AB830E
:10191000752200752100AC217D00C3EC9508ED64B3
:10192000808509F063F08095F05011E5212AF58259
:10193000E43BF583E0FC6222052180DAE522C45411
:101940000FFA740F5A9002282441F0740F55229018
:1019500002292441F022C0E0C082C083C0D075D0EB
:101960001810990280002098030219E890019C74D5
:1019700002F0C298859958E52730E002D2A3900181
:101980009BE0FABA07030219E890019BE0FA701D88
:10199000E558B42853E53DB47F08741F55CC248026
:1019A000F53D90010FE4F090019A7406F090010F5C
:1019B000E0FABA8800501490010F74012AF0EA246A
:1019C00087F582E43400F583E558F090019BE0FA56
:1019D000BA040EE558B4291090019BE02401F08070
:1019E0000790019BE02401F0D0D0D083D082D0E0DA
:1019F0003290019BE0FABA070280047582002275DA
:101A0000088775090090010FE0F50A900110121087
:101A10009890010FE0FA1A1A1A900198EAF09001D2
:101A20009BE4F07B0074012AF508E43BF509900182
:101A30001012190C900198E0FA24012410F582E4A8
:101A40003401F583E0FB900228E0FCEBB504197447
:101A5000022A2410F582E43401F583E0FA90022989
:101A6000E0FBEAB50302800475820022900112E0D7
:101A7000FAB53C02800475820022900111E0FAB5AB
:101A80003D0280047582002290019BE0FA7007906D
:101A9000019CE0FA70F9753084753103900114E00F
:101AA000F58222AA8210990280FB8A992290019DD8
:101AB000E0FA54FBF090019CE0FA602590019CE074
:101AC000FA70F9FAC3EA953D500D900032C0021247
:101AD0001577D0020A80ED90019DE0FA4404F08071
:101AE000D4E52730E002D2A2C2ACC2B5D299758249
:101AF0007F121AA375827F121AA375827F121AA30E
:101B0000758228121AA3752228853C82121AA38591
:101B10003D82121AA390019DE0FAF582121AA3E504
:101B20003C6222E53D622290019DE0FA62227A0049
:101B300090019EE0FBC3EA9B501AEA249FF582E4E1
:101B40003401F583E0FB62228B82C002121AA3D01B
:101B5000020A80DC758229121AA3632229E522C4B5
:101B6000540FFA740F5A2441F582121AA3740F55B8
:101B7000222441F582121AA375827F121AA330998A
:101B8000FDD2B5E52730E002C2A2D2AC2290019D81
:101B9000E0FA6401F090019DE0FA54FDF0021AAD04
:101BA00090019DE0FA4402F0021AAD7A647B008A4B
:101BB00029E5296011C002C0031219F1AC82D003DB
:101BC000D002BC59EC220BEB24F5500122C002C01C
:101BD00003121BA0D003D002BA80005005EA2AFAF3
:101BE00080CD7AFA80C9121B8D021BAB021BE6AABC
:101BF0008290019EE0FB90019E74012BF0EB249FEC
:101C0000F582E43401F583EAF022E582FAC4540F48
:101C100090268293FBF582C002121BEFD002740F54
:101C20005A90268293FAF582021BEFAA82AB838B2D
:101C300082C002C003121C0AD003D0027B008A8239
:101C4000021C0AAA82AB8390019EE4F08A828B83F5
:101C5000E493FC601F90019EE0FD90019E74012DB5
:101C6000F0ED249FF582E43401F5830ABA00010BFC
:101C7000ECF080D822E58224FF92EE22E58224FF58
:101C800092EF22D2A285464485474522D2A38542BF
:101C90004085434122E58224FF92A375400022E55E
:101CA0008224FF92A275440022AA82AB838A088B09
:101CB00009750A00750B0090A12075F007E4122544
:101CC0006BAA82AB83ACF0FDC3E49AFAE49BFB857C
:101CD0005948855A498B4B7B008A4A5389F043897E
:101CE00001854A8A854B8CD28DD28CD2A922AA82B8
:101CF000AB83855B59855C5A121CA9E54845497040
:101D0000FA22C0D075D010B2B4C28D854A8A854BF4
:101D10008CD0D032900000E4F075420A7543037510
:101D20004614754701E4F548F549758201121C9582
:101D3000758201121C9F758200121C75758200024B
:101D40001C7CC2AFC2AEC2ADC2ACC2ABC2AAC2A9F9
:101D5000C2A8758F01758E0C75B81575B72775807B
:101D60000F90400012108FAA82BA02028003021D57
:101D70007CE580B40803021D7C02400090022CE444
:101D8000F0A37410F075210074802521402BE5210B
:101D9000249FFAE43401FBAC217D008C8274102D69
:101DA000F583C002C00312108FAC82D003D0028A28
:101DB000828B83ECF0052180CF90022CE4F0A3F01D
:101DC00090022E749FF0A37401F0900230E4F0753D
:101DD0002100748025214030E521249FF582E434E0
:101DE00001F583E0FAAB217C008B828C83C0021268
:101DF000108FAB82D002EAB50302800890023074E3
:101E000080F08004052180CA900230E0FA6003125D
:101E1000118FD2AFE4F527F528121D1412152112E7
:101E200017CD0218C8900199E0FA900198E0FBC321
:101E3000EA9B40047538002290019974012AF0EA67
:101E40002410F582E43401F583E0F53822121E25D2
:101E5000749F2538500CE53824854006E53824E089
:101E6000F53822121E4D7A007B00BB10005012EB99
:101E700090268293FCB538048A3880050B8B02804B
:101E8000E953380FE538C454F0F539121E4D7A0085
:101E90007B00BB10005012EB90268293FCB53804F7
:101EA0008A3880050B8B0280E953380FE5384239B8
:101EB00085398222121E63AA397B008A3B753A005B
:101EC000121E63AA397B00EA423AEB423B229001A0
:101ED0009DE0FA900113E0FB90019D74016BF0907E
:101EE000019F7459F090019E7401F0C002121B8D85
:101EF000D00290019DEAF0D20522AA82AB83C002F3
:101F0000C003121ECED003D002C002C003121E6353
:101F1000D003D00285394C8A828B83021175121E40
:101F200063AA39BA0003021FC7BA0103021FCDBA60
:101F30000203021FD6BA1003022201BA11030222C1
:101F400007BA120302220DBA1303022213BA300396
:101F50000221ADBA31030221B0BA32030221B6BA6E
:101F600033030221BCBA34030221BFBA3503022174
:101F7000C5BA36030221CBBA37030221D1BA3803DE
:101F80000221DDBA60030221E9BA61030221F5BA38
:101F90008003022219BA820302226FBA8703022247
:101FA0001EBA880302222DBA8903022246BA900281
:101FB000802DBA9102802EBA99028003C204229029
:101FC0000000E0FA600122121ECE021835900200D5
:101FD000121EFA0218C8900201121EFA0218C890C6
:101FE0000000E4F022D2A3121E25121E6385822275
:101FF000121EB4853A25853B26121E63858223E591
:10200000227003022194900230E522F090022CE528
:1020100025F0A3E526F0752100C3E5219522501B8C
:10202000121E6390022EE0FAA3E0FBE5212AF5825E
:10203000E43BF583E539F0052180DE121E63E523DC
:102040006001227508B57509267582001216718522
:1020500025558526567557047582071216E7AA225C
:102060007B00EA2525FAEB3526FBEA24FFF555EB44
:1020700034FFF55675570475820C1216E71215E6F3
:10208000E5257014E526B4400F90022EE0FAA3E097
:10209000FB8A828B8374FFF074C02526500AC3E448
:1020A000952574F09526504B755964E4F55A9001C6
:1020B000B8121CA9755964E4F55A900370121CA952
:1020C000755964E4F55A9001B8121CA9755964E475
:1020D000F55A900370121CA9755964E4F55A9001E1
:1020E000B8121CA9755964E4F55A900370121CA922
:1020F00002219ED2A212118FE5828583F045F070F5
:102100000302219E9000007401F0D2037508C67589
:102110000926758210121671AA217B0090022CE00C
:10212000FCA3E0FDEA2CF555EB3DF556755704751B
:1021300082161216E790022EE0FAA3E0FBE5212AB0
:10214000F582E43BF583E0FA8A557556007557022F
:1021500075821B1216E7AA217B0090022CE0FCA3DB
:10216000E0FDEA2CF582EB3DF58312108FAA828AFE
:102170005575560075570275821D1216E71215E641
:102180007559E8755A03900370121CA99007D01274
:102190001577800A900000E0FA7003121247C2A37C
:1021A000900000E0FA6003D20522021ECE021C83DA
:1021B000758201021C9F758200021C9F021C8C7597
:1021C0008201021C95758200021C95121C83021C60
:1021D0008C758201121C9F758201021C957582000C
:1021E000121C9F758200021C957559F4755A019056
:1021F00000DC021CA97559F4755A019001B8021C43
:10220000A9758201021C75758200021C7575820118
:10221000021C7C758200021C7CD20302164B7508DE
:1022200006750900750A20900046021098121E6378
:10223000E539B40100E433FA60047A0080027A01DF
:10224000EA24FF920022121E63E539B40100E43350
:10225000FA60047A0080027A10EA2406F582E434F7
:1022600000F5837508207509101210C1D2012212E1
:102270001E63853921121E25E538B47C0122E5381C
:10228000601DD20374E0252140EBAA210521EA2438
:1022900006F582E43400F583E538F0D20180D622D9
:1022A000D204C2059001997404F0121E25E5382469
:1022B000DF4003022370AA38BA3F02803CBA4103D0
:1022C00002235FBA4403022364BA4B03022354BAC5
:1022D000510280D6BA56028020BA5702800ABA58F4
:1022E0000302235AC20480C2121ECE121EB4853AC3
:1022F00082853B8312157780B1121ECE9026641220
:102300001C43A2A4B3E433FA60047A3080027A3129
:102310008A82121BEFA2A5B3E433FA60047A3080FC
:10232000027A318A82121BEFA2A6B3E433FA600468
:102330007A3080027A318A82121BEFA2A7B3E4338B
:10234000FA60047A3080027A318A82121BEF121B03
:10235000E60222AA121F1E0222AAC2060222AAD244
:10236000060222AA121EB4853A27853B280222AA19
:10237000300406200503021ECE22C2077A00C002E6
:10238000121D42D002C00212164BD00275085475BD
:102390000926758200C002121671D0027508E17517
:1023A0000926758210C002121671D0027508E475F4
:1023B0000926758217C002121671D002853D52752A
:1023C0005300755403758213C0021216CAD00285D9
:1023D0003E52853F5375540575821AC0021216CAC3
:1023E000D002C0021215E6D00275351FD202C0021B
:1023F000121C8CD002C002121C83D0027521007402
:10240000F6252140257409C3952125E0FB9026CDB2
:1024100093CBA393FC755B64E4F55C8B828C83C0E7
:1024200002121CEED002052180D574FF253D501705
:10243000E53D24E040119026E7C002121C43D00283
:10244000C002121BE6D002E52730E64AE52FB502AE
:1024500002804375F00AE53D84ABF0E52CB5033608
:1024600090019F7444F09001A07453F0E52FC45480
:102470000FFB740F5B90268293FB9001A1F0740F09
:10248000552F90268293FB9001A2F090019E740438
:10249000F0121BE6AA2FE53045317007C002121872
:1024A00035D002200328853D5275530075540375BD
:1024B0008213C0021216CAD002853E52853F537560
:1024C000540575821AC0021216CAD002800820076D
:1024D000057535FFC202A2039207C0021215E6D0AD
:1024E00002C0021219F1AB82D002BB0003022447E2
:1024F000C0021222A0D002022447900230E0F990DC
:10250000022AE0FCA3E0FD8C828D83E9790212FFB0
:10251000F0F58222900230E0F990022EE0FAA3E07A
:10252000FB90022CE0FCA3E0FDE5A254FEF5A28C9A
:10253000828D8305A28A828B83E9790912FFF0F5E7
:1025400082227A10E4FBFCE58225E0F582E5833304
:10255000F583EB33FBEC33FCEB9508F5F0EC9509D8
:102560004006FCABF0438201DADD22FB7A20E4FC7A
:10257000FDFEFFE5822582F582E58333F583E5F0F4
:1025800033F5F0EB33FB4017DAE98042E582258230
:10259000F582E58333F583E5F033F5F0EB33FBECBF
:1025A00033FCED33FDEE33FEEF33FFEC9508ED9594
:1025B00009EE950AEF950B4013EC9508FCED950993
:1025C000FDEE950AFEEF950BFF438201DABEEB228A
:1025D000E508450960467A01E50825E0F508E509C2
:1025E000334012F509E5829508E583950940030A11
:1025F00080E6C3E50913F509E50813F508C3E5828C
:102600009508F5F0E58395094005F58385F082C3CB
:10261000E50913F509E50813F508DAE122758200EA
:10262000222449643A20737830302E632C7620318E
:102630002E3320323030372F30342F3137203231A3
:102640003A35303A3136206D7669617261204578CD
:10265000702024004C44522042546563682031327B
:102660002E3030004C483030305331322E30305B19
:10267000245265766973696F6E3A20312E332024B7
:102680005D003031323334353637383941424344D6
:10269000454600202020202041747465736120206D
:1026A00020202000206D6F72736F2064656C2063A2
:1026B000616E6520004C6F61642020203030303026
:1026C0002D303030300045466C61736800060126BD
:1026D000014A015D018801B801EE010B024B029332
:1026E000024964004273004F00FFFFFFFFFFFFFF3E
:1026F000FFFFFFFFFFFFFFFFFFFFFFFFFFFFFFFFEA
:00000001FF
