:03000000020008F3
:0300610002000397
:0500030012018580FEE2
:0A006400858280C290D292C29222DF
:09006E00AA82D2918A8202006488
:09007700AA82C2918A820200648F
:0A008000C016858116E582540325A1
:0E008A00E0FA900CB993CAA393FB430280E501
:0C0098001624FDF886047D00EC4202ED09
:0A00A40042038A82120077D0162270
:0E00AE007582301200777582301200777582ED
:0E00BC003C12007775820812007775820112DF
:0C00CA00007775820C1200777582060228
:0200D6000077B1
:0300D80002006EB5
:0600DB00C016858116E548
:0A00E1001624F9FAC002E51624FC0B
:0C00EB00F8E6C0E0E51624FDF88682125D
:0C00F70000801581E51624F9F8E6C0E051
:0E01030008E6C0E008E6C0E09000D81203C491
:09011100E58124FCF581D01622E1
:07011A007590007580FF22C3
:05012100C298D29922F2
:0C012600A298E433FA7B008A828B8322CB
:0E013200120126E5828583F045F060F4C29844
:09014000AA997B008A828B8322BC
:02014900AA8288
:0E014B003099FD8A99BA0A0675820D020149A3
:010159002283
:06015A00C016858116E5C8
:0A0160001624FBFAC002E51624FB8A
:0D016A00F8E6C0E008E6C0E008E6C0E0905E
:0C01770001491203C4E58124FCF581D08D
:02018300162242
:0A018500C016E581F5162414F5817B
:07018F0012011A1200AE7408
:0A019600C1C0E0740CC0E07480C02A
:0E01A000E07404C0E0E4C0E01200DBE581245E
:0A01AE00FBF58174CDC0E0740CC0B5
:0E01B800E07480C0E012015A15811581158196
:0C01C600E5162411F8E4F608F608F60827
:0C01D200F6E5162409F87601E408F608AA
:0C01DE00F608F6E516240DF8E4F608F625
:0401EA0008F608F615
:0A01EE007C017D00E516240DF8E504
:0C01F800162405F9740126F7E408360906
:0C020400F7E4083609F7E4083609F7A80B
:0B02100016087602E408F608F608F66F
:0A021B00A81608E5162405F9C3E64D
:0E0225009708E6099708E6099708E66480093D
:0C02330087F063F08095F04003020304A4
:0E023F00C004C005120126E5828583F0D005BB
:0E024D00D00445F06058C004C005120132AE66
:0E025B0082AF83C006C007C006C007C006C041
:0A026900077409C0E0740DC0E074D2
:0E02730080C0E0E4C0E07402C0E01200DBE5F1
:0E0281008124F7F581D007D006C006C007C063
:0A028F0006C007741BC0E0740DC028
:0E029900E07480C0E012015AE58124F9F5817D
:0402A700D005D004AA
:0C02AB00C004C005A81608E6C0E008E684
:0C02B700C0E008E6C0E008E6C0E0E51684
:0E02C3002409F886820886830886F008E61271
:0E02D1000A24AE82AF83AAF0FBE58124FCF57F
:0E02DF0081D005D004EE4F4A4B7004FCFD8028
:0102ED0016FA
:0C02EE00A8160806B6000C0806B60007AB
:0702FA000806B60002080629
:0303010002021BDA
:07030400EC4D7003020391B0
:0C030B00E5162411F88602088603088617
:0C03170004088605E5162411F806B6005F
:0D0323000C0806B600070806B60002080622
:0C033000C002C003C004C005E51624098B
:0E033C00F8E6C0E008E6C0E008E6C0E008E62B
:0A034A00C0E0742EC0E0740DC0E0A6
:0E0354007480C0E0E4C0E07401C0E01200DB81
:0C036200E58124F3F581E5162409F8E696
:0E036E00C0E008E6C0E008E6C0E008E6C0E037
:0A037C00743EC0E0740DC0E0748010
:0B038600C0E012015AE58124F9F58166
:0C039100E516240DF806B6000C0806B6B0
:09039D0000070806B6000208067C
:0C03A600E5162409F8740226F6E4083677
:0D03B200F6E40836F6E40836F60201EE85A2
:0503BF001681D016229A
:080CB90000004000140054008B
:0C0CC10056383035322056312E303000CD
:0E0CCD005638303532202449643A20763830CB
:0E0CDB0035322E632036303020323031312D4C
:0E0CE90030352D32352030383A32313A313341
:0E0CF7005A206D766961726120242072656159
:040D050064790A0003
:0E0D090025632028253032582920707265732A
:040D1700736564009C
:0E0D1B00256320282530325829207072657318
:050D29007365640A007F
:0E0D2E005072696D6520256C642028256C6468
:020D3C0029008C
:060D3E0020256C6420007A
:0A03C400C016E581F5162404F5814A
:0A03CE00AA82AB83E4F512F513F5E3
:0303D80014F51504
:0C03DB00E51624FBF88604088605088659
:0C03E700068C828D838EF0120C99FFE5CD
:0C03F3001624FBF874012CF6E43D08F61B
:0B03FF0008A606EFF50A7003020A05CD
:07040A007425B50A0280030E
:030411000209EAF3
:0C041400E51624FBF8860408860508861F
:0C042000068C828D838EF0120C99F50A78
:0C042C00E51624FBF874012CF6E43D08F2
:0C043800F608A6067425B50A1BC002C019
:0A044400037455C0E07404C0E0C06A
:07044E0002C003850A8222AF
:07045500D003D0020203DB1B
:07045C00750F00750E00751D
:08046300100075110A742DB59B
:06046B000A2B751001E5EB
:0C0471001624FBF88604088605088606A1
:0C047D008C828D838EF0120C99F50AE53C
:0C0489001624FBF874012CF6E43D08F684
:0304950008A606B0
:090498007430B50A2B431002E593
:0C04A1001624FBF8860408860508860671
:0C04AD008C828D838EF0120C99F50AE50C
:0C04B9001624FBF874012CF6E43D08F654
:0304C50008A60680
:0A04C800742AB50A1AE51624FAF9A1
:0C04D200E724FEF8E51624FAF9A70086DE
:0904DE0004088605188C0E805AF2
:0C04E700E51624FBF8860408860508864C
:0104F3000602
:0C04F400C3E50A648094B0403774B985F9
:0A0500000AF063F08095F0402BE54F
:0A050A000E75F00AA4250A24D0F5AE
:0B0514000E8C828D838EF0120C99F586
:0A051F000AA3AC82AD83E51624FBAD
:0B052900F8A60408A60508A60680C07E
:0C053400E51624FBF8A60408A60508A69E
:0105400006B4
:09054100746CB50A2B431004E5AB
:0C054A001624FBF88604088605088606C7
:0C0556008C828D838EF0120C99F50AE562
:0C0562001624FBF874012CF6E43D08F6AA
:03056E0008A606D6
:07057100900000E4F0750B9F
:0305780000750CFF
:05057B0000E4F50DB5E0
:040580000A02804F9C
:070584007443B50A02804B2D
:07058B007453B50A02806CF5
:080592007458B50A030206319A
:08059A007462B50A0302063980
:0705A2007463B50A0280300A
:0805A9007464B50A0302064167
:0805B1007469B50A030206415A
:0705B9007473B50A028041D2
:0705C0007475B50A02807793
:0705C7007478B50A0280669A
:0505CE004310408071A4
:0305D300020A0514
:0305D600431008C7
:0A05D900E51624FAF9E724FEF8E520
:0C05E3001624FAF9A70086040886051803
:0B05EF00900000ECF0900001E4F043ED
:0405FA0010408046E7
:0305FE004310089F
:0A060100E51624FAF9E724FDF8E5F8
:0A060B001624FAF9A700860B0886F2
:070615000C08860D1818E522
:04061C000B450C4539
:050620000D7009750BCF
:0306250055750CFC
:040628000D750D80BF
:05062C004310408013A3
:030631004310086B
:05063400751110800BA0
:050639007511028006AE
:03063E0043102046
:0306410075110A26
:08064400E51030E6030208BDD9
:0A064C00E51030E220E51624FAF96B
:0C065600E724FCF8E51624FAF9A700865A
:0606620012088613088651
:09066800140886151818188026E4
:0A067100E51624FAF9E724FEF8E587
:0C067B001624FAF9A7008604088605186A
:050687008C128D1375BB
:06068C0014007515007555
:050692001400751500C5
:05069700E512451345CA
:06069C00144515700E90DC
:0B06A20000007430F0900001E4F00252
:0206AD0008BD86
:0406AF00750B26752C
:0306B3000C0075C3
:0506B6000D00AC0BADCE
:0A06BB000CAE0D8C828D838EF0E4EE
:0B06C500120A0BE51020E533740AB5A3
:0806D000112EE51530E7294366
:0606D8001010E512F4F51C
:0506DE0012E513F4F524
:0506E30013E514F4F51D
:0506E80014E515F4F516
:0506ED00150512E4B543
:0506F200120C0513B518
:0506F70013070514B516
:0406FC0014020515CA
:05070000E51245134560
:06070500144515701D15DE
:07070B000B74FFB50B021592
:010712000CDA
:05071300AC0BAD0CAEC3
:0C0718000D8C828D838EF07430120A0B61
:0307240002089E2A
:05072700E51245134539
:06072C00144515700302E4
:02073200089E1F
:080734007402B511030207CAAB
:08073C007408B511030207EF78
:080744007410B511030208381E
:0A074C00C002C003A81608A6110899
:0C0756007600087600087600A81608E679
:0E076200C0E008E6C0E008E6C0E008E6C0E03F
:0707700085128285138385C9
:0507770014F0E515126D
:0D077C000B1EAA82AB83E58124FCF5818A67
:0A0789000AC002C003A81608E6C06B
:0E079300E008E6C0E008E6C0E008E6C0E08549
:0607A1001282851383851E
:0507A70014F0E515123D
:0707AC000BE2858212858338
:0507B3001385F014F5B0
:0C07B80015E58124FCF581D003D002D0AF
:0607C40003D00202087AD6
:0C07CA0074015512FC7D007E007F008C45
:0607D6000AE515C313F54E
:0507DC0015E51413F502
:0507E10014E51313F5FF
:0507E60013E51213F5FC
:0407EB001202087A74
:0C07EF0074075512FC7D007E007F008C1A
:0607FB000AE513C423C54A
:0808010012C423541F6512C547
:0608090012541FC5126528
:04080F0012C512F507
:0808130013E514C42354E04571
:04081B0013F513E5D9
:0A081F0015C423C514C423541F653B
:0608290014C514541FC5A4
:04082F00146514C573
:0508330014F5158042E0
:0C083800740F5512FC7D007E007F008CC8
:050844000AE513C4C524
:0708490012C4540F6512C533
:0608500012540FC51265F1
:0408560012C512F5C0
:07085A0013E514C454F0453E
:0408610013F513E593
:0808650015C4C514C4540F654D
:06086D0014C514540FC570
:04087300146514C52F
:0308770014F51560
:08087A00150B74FFB50B02150C
:010882000C69
:05088300AC0BAD0CAE52
:060888000D740F550A90EB
:0E088E000D4493FF8C828D838EF0120A0B02B4
:02089C0007272C
:0A089E00E51030E41A150B74FFB5E5
:0408A8000B02150C1E
:0508AC00AC0BAD0CAE29
:0C08B1000D8C828D838EF0742D120A0BCA
:0708BD00850B82850C838589
:0C08C4000DF0C002C003120C71AC82AD3C
:0A08D00083D003D0028C08E510204D
:0708DA00E052E508B50E0035
:0508E100504B750900F9
:0A08E600AC0E7D00AE087F00ECC3ED
:0C08F0009EFCED9FFDAE097F00C3EE9C56
:0D08FC00EF64808DF063F08095F05026E5EC
:080909001030E1047C30800293
:020911007C2048
:0A091300C002C0037426C0E074099E
:09091D00C0E0C002C0038C82227C
:08092600D003D002050980B8DE
:03092E0075090048
:05093100E509B5080016
:090936005052E509250BFCE435E3
:0A093F000CFDAE0D8C828D838EF04E
:06094900120C99F50AE50D
:0A094F001030E31BC3E50A64809436
:0C095900E1401274FA850AF063F080950A
:09096500F04006E50A24E0F50A61
:0A096E00C002C0037482C0E07409E7
:0A097800C0E0C002C003850A82221D
:08098200D003D002050980A793
:08098A00E51020E0030203DB8D
:05099200E508B50E00B0
:0509970040030203DB38
:03099C00750900DA
:0A099F00AC0E7D00AE087F00ECC333
:0C09A9009EFCED9FFDAE097F00C3EE9C9C
:0D09B500EF64808DF063F08095F040030248
:0209C20003DB55
:0909C400E51030E1047C308002F2
:0209CD007C208C
:0A09CF00C002C00374E2C0E0740926
:0909D900C0E0C002C0038C8222C0
:0809E200D003D002050980B525
:0A09EA00C002C00374FEC0E07409EF
:0A09F400C0E0C002C003850A8222A1
:0709FE00D003D0020203DB6D
:060A0500851681D01622C7
:0E0D440030313233343536373839616263640A
:030D5200656600D3
:070D5500286E756C6C29008B
:06003700E478FFF6D8FD9D
:080015007900E94400601B7A48
:05001D0000900D5C786D
:030022002875A09E
:0A00250000E493F2A308B8000205FE
:08002F00A0D9F4DAF275A0FF7C
:0E0A0B0020F71030F6118883A88220F507F638
:050A1900A883758300B5
:010A1E0022B5
:030A1F00F280F76B
:020A2200F022C0
:08003D007800E84400600A7934
:030045000075A0A3
:0600480000E4F309D8FCFE
:08004E007828E84400600C79F9
:0B00560001900000E4F0A3D8FCD9FAF0
:0A0A2400C016858116C082C083C091
:0C0A2E00F0C0E0E581240CF581E5162401
:0C0A3A00FA040404F8E630E717E516247F
:0E0A4600FAF8C3E496FE08E496FF08E496FA78
:060A540008E496FB80108F
:0C0A5A00E51624FAF886060886070886D0
:040A660002088603F9
:0C0A6A008E048F05A81608080808E63363
:0A0A7600E433FE601DA81608E51623
:0E0A80002409F9C3E496F708E49609F708E4A0
:0A0A8E009609F708E49609F78016B0
:0A0A9800A81608E5162409F9E6F790
:0C0AA2000809E6F70809E6F70809E6F77E
:0C0AAE00C006C004C005C002C003E5166D
:0E0ABA002409F886820886830886F008E61272
:0E0AC8000B1EAA82AB83ACF0FDE58124FCF589
:0C0AD60081D006E5162405F8A60208A64B
:0C0AE2000308A60408A605EE601DE5163A
:0E0AEE002405F8C3E496FE08E496FF08E4969B
:0D0AFC00FA08E496FB8E828F838AF0800F4B
:0C0B0900E5162405F8868208868308861D
:030B1500F008E6FF
:060B1800851681D01622B3
:0A0B1E00C016858116AA82AB83ACD5
:0B0B2800F0FD05817E00A81608760095
:0C0B3300E51624FA040404F8E62354013B
:0C0B3F00FF704DE51624FAF8E625E0F6FC
:0D0B4B0008E633F608E633F608E633F6E573
:0C0B58001624FAF8C3EA96EB0896EC08A5
:0C0B640096ED0896501AE51624FA0404D9
:0E0B700004F8E6C313F618E613F618E613F6BB
:060B7E0018E613F6800BDF
:0A0B8400A8160806A81608860680C9
:010B8E00A4C2
:0C0B8F00E51624FAF8C3EA96EB0896EC91
:0C0B9B000896ED08964015E51624FAF8BF
:0E0BA700EAC396FAEB0896FBEC0896FCED0804
:020BB50096FDAB
:0C0BB700E51624FA040404F8E6C313F663
:0E0BC30018E613F618E613F618E613F68E077A
:0C0BD1001EEF70BA8A828B838CF0ED85D9
:050BDD001681D0162274
:0A0BE200C016858116C082C083C0D2
:0D0BEC00F0C0E07E007F007A007B007C20DE
:0C0BF900A81608080808E6235401FD2493
:0A0C0500FF9200A81608E625E0F6AD
:0E0C0F0008E633F608E633F608E633F6EE2E76
:0C0C1D00FEEF33FFEA33FAEB33FB30004C
:040C2900034306017A
:0C0C2D00E51624FAF8C3EE96EF0896EAEC
:0C0C39000896EB0896401CE51624FAF81B
:0E0C4500EEC396FEEF0896FFEA0896FAEB085B
:090C530096FBA81608E64401F620
:0C0C5C00DC9BA8160886820886830886A8
:090C6800F008E6851681D0162281
:0A0C7100AA82AB83ACF07D007E0088
:0E0C7B008A828B838CF0120C99FFA3AA82ABA5
:0B0C890083EF60070DBD00EA0E80E75E
:050C94008D828E832219
:03000800758120DF
:0A000B00120CB5E582600302000349
:0E0C990020F71430F6148883A88220F507E6B1
:060CA700A8837583002202
:030CAD00E280F7EB
:030CB000E49322A8
:020CB300E0223D
:040CB5007582002222
:00000001FF
